{
  "_format": "hh-sol-artifact-1",
  "contractName": "AVC20",
  "sourceName": "contracts/AVC20.sol",
  "abi": [
    {
      "inputs": [
        {
          "internalType": "string",
          "name": "name_",
          "type": "string"
        },
        {
          "internalType": "string",
          "name": "symbol_",
          "type": "string"
        }
      ],
      "stateMutability": "nonpayable",
      "type": "constructor"
    },
    {
      "anonymous": false,
      "inputs": [
        {
          "indexed": true,
          "internalType": "address",
          "name": "owner",
          "type": "address"
        },
        {
          "indexed": true,
          "internalType": "address",
          "name": "spender",
          "type": "address"
        },
        {
          "indexed": false,
          "internalType": "uint256",
          "name": "value",
          "type": "uint256"
        }
      ],
      "name": "Approval",
      "type": "event"
    },
    {
      "anonymous": false,
      "inputs": [
        {
          "indexed": true,
          "internalType": "address",
          "name": "delegator",
          "type": "address"
        },
        {
          "indexed": true,
          "internalType": "address",
          "name": "fromDelegate",
          "type": "address"
        },
        {
          "indexed": true,
          "internalType": "address",
          "name": "toDelegate",
          "type": "address"
        }
      ],
      "name": "DelegateChanged",
      "type": "event"
    },
    {
      "anonymous": false,
      "inputs": [
        {
          "indexed": true,
          "internalType": "address",
          "name": "delegate",
          "type": "address"
        },
        {
          "indexed": false,
          "internalType": "uint256",
          "name": "previousBalance",
          "type": "uint256"
        },
        {
          "indexed": false,
          "internalType": "uint256",
          "name": "newBalance",
          "type": "uint256"
        }
      ],
      "name": "DelegateVotesChanged",
      "type": "event"
    },
    {
      "anonymous": false,
      "inputs": [
        {
          "indexed": true,
          "internalType": "address",
          "name": "by",
          "type": "address"
        },
        {
          "indexed": false,
          "internalType": "uint256",
          "name": "dividendsDistributed",
          "type": "uint256"
        }
      ],
      "name": "DividendsDistributed",
      "type": "event"
    },
    {
      "anonymous": false,
      "inputs": [
        {
          "indexed": true,
          "internalType": "address",
          "name": "by",
          "type": "address"
        },
        {
          "indexed": false,
          "internalType": "uint256",
          "name": "fundsWithdrawn",
          "type": "uint256"
        }
      ],
      "name": "DividendsWithdrawn",
      "type": "event"
    },
    {
      "anonymous": false,
      "inputs": [
        {
          "indexed": true,
          "internalType": "address",
          "name": "previousOwner",
          "type": "address"
        },
        {
          "indexed": true,
          "internalType": "address",
          "name": "newOwner",
          "type": "address"
        }
      ],
      "name": "OwnershipTransferred",
      "type": "event"
    },
    {
      "anonymous": false,
      "inputs": [
        {
          "indexed": true,
          "internalType": "address",
          "name": "from",
          "type": "address"
        },
        {
          "indexed": true,
          "internalType": "address",
          "name": "to",
          "type": "address"
        },
        {
          "indexed": false,
          "internalType": "uint256",
          "name": "value",
          "type": "uint256"
        }
      ],
      "name": "Transfer",
      "type": "event"
    },
    {
      "inputs": [],
      "name": "DELEGATION_TYPEHASH",
      "outputs": [
        {
          "internalType": "bytes32",
          "name": "",
          "type": "bytes32"
        }
      ],
      "stateMutability": "view",
      "type": "function"
    },
    {
      "inputs": [],
      "name": "DOMAIN_TYPEHASH",
      "outputs": [
        {
          "internalType": "bytes32",
          "name": "",
          "type": "bytes32"
        }
      ],
      "stateMutability": "view",
      "type": "function"
    },
    {
      "inputs": [],
      "name": "PERMIT_TYPEHASH",
      "outputs": [
        {
          "internalType": "bytes32",
          "name": "",
          "type": "bytes32"
        }
      ],
      "stateMutability": "view",
      "type": "function"
    },
    {
      "inputs": [
        {
          "internalType": "address",
          "name": "addressToAdd",
          "type": "address"
        }
      ],
      "name": "addToTokenList",
      "outputs": [],
      "stateMutability": "nonpayable",
      "type": "function"
    },
    {
      "inputs": [
        {
          "internalType": "address",
          "name": "account",
          "type": "address"
        },
        {
          "internalType": "address",
          "name": "spender",
          "type": "address"
        }
      ],
      "name": "allowance",
      "outputs": [
        {
          "internalType": "uint256",
          "name": "",
          "type": "uint256"
        }
      ],
      "stateMutability": "view",
      "type": "function"
    },
    {
      "inputs": [
        {
          "internalType": "address",
          "name": "spender",
          "type": "address"
        },
        {
          "internalType": "uint256",
          "name": "rawAmount",
          "type": "uint256"
        }
      ],
      "name": "approve",
      "outputs": [
        {
          "internalType": "bool",
          "name": "",
          "type": "bool"
        }
      ],
      "stateMutability": "nonpayable",
      "type": "function"
    },
    {
      "inputs": [
        {
          "internalType": "address",
          "name": "account",
          "type": "address"
        }
      ],
      "name": "balanceOf",
      "outputs": [
        {
          "internalType": "uint256",
          "name": "",
          "type": "uint256"
        }
      ],
      "stateMutability": "view",
      "type": "function"
    },
    {
      "inputs": [
        {
          "internalType": "address",
          "name": "",
          "type": "address"
        },
        {
          "internalType": "uint32",
          "name": "",
          "type": "uint32"
        }
      ],
      "name": "checkpoints",
      "outputs": [
        {
          "internalType": "uint32",
          "name": "fromBlock",
          "type": "uint32"
        },
        {
          "internalType": "uint96",
          "name": "votes",
          "type": "uint96"
        }
      ],
      "stateMutability": "view",
      "type": "function"
    },
    {
      "inputs": [],
      "name": "collect",
      "outputs": [],
      "stateMutability": "nonpayable",
      "type": "function"
    },
    {
      "inputs": [
        {
          "internalType": "address",
          "name": "account",
          "type": "address"
        }
      ],
      "name": "cumulativeDividendsOf",
      "outputs": [
        {
          "internalType": "uint256",
          "name": "",
          "type": "uint256"
        }
      ],
      "stateMutability": "view",
      "type": "function"
    },
    {
      "inputs": [
        {
          "internalType": "uint256",
          "name": "i",
          "type": "uint256"
        },
        {
          "internalType": "address",
          "name": "account",
          "type": "address"
        }
      ],
      "name": "cumulativeDividendsOf",
      "outputs": [
        {
          "internalType": "uint256",
          "name": "",
          "type": "uint256"
        }
      ],
      "stateMutability": "view",
      "type": "function"
    },
    {
      "inputs": [],
      "name": "decimals",
      "outputs": [
        {
          "internalType": "uint8",
          "name": "",
          "type": "uint8"
        }
      ],
      "stateMutability": "view",
      "type": "function"
    },
    {
      "inputs": [
        {
          "internalType": "address",
          "name": "delegatee",
          "type": "address"
        }
      ],
      "name": "delegate",
      "outputs": [],
      "stateMutability": "nonpayable",
      "type": "function"
    },
    {
      "inputs": [
        {
          "internalType": "address",
          "name": "delegatee",
          "type": "address"
        },
        {
          "internalType": "uint256",
          "name": "nonce",
          "type": "uint256"
        },
        {
          "internalType": "uint256",
          "name": "expiry",
          "type": "uint256"
        },
        {
          "internalType": "uint8",
          "name": "v",
          "type": "uint8"
        },
        {
          "internalType": "bytes32",
          "name": "r",
          "type": "bytes32"
        },
        {
          "internalType": "bytes32",
          "name": "s",
          "type": "bytes32"
        }
      ],
      "name": "delegateBySig",
      "outputs": [],
      "stateMutability": "nonpayable",
      "type": "function"
    },
    {
      "inputs": [
        {
          "internalType": "address",
          "name": "",
          "type": "address"
        }
      ],
      "name": "delegates",
      "outputs": [
        {
          "internalType": "address",
          "name": "",
          "type": "address"
        }
      ],
      "stateMutability": "view",
      "type": "function"
    },
    {
      "inputs": [
        {
          "internalType": "address",
          "name": "addressToAdd",
          "type": "address"
        }
      ],
      "name": "distribute",
      "outputs": [],
      "stateMutability": "nonpayable",
      "type": "function"
    },
    {
      "inputs": [],
      "name": "domainSeparator",
      "outputs": [
        {
          "internalType": "bytes32",
          "name": "",
          "type": "bytes32"
        }
      ],
      "stateMutability": "view",
      "type": "function"
    },
    {
      "inputs": [
        {
          "internalType": "address",
          "name": "account",
          "type": "address"
        }
      ],
      "name": "getCurrentVotes",
      "outputs": [
        {
          "internalType": "uint96",
          "name": "",
          "type": "uint96"
        }
      ],
      "stateMutability": "view",
      "type": "function"
    },
    {
      "inputs": [
        {
          "internalType": "address",
          "name": "account",
          "type": "address"
        },
        {
          "internalType": "uint256",
          "name": "blockNumber",
          "type": "uint256"
        }
      ],
      "name": "getPriorVotes",
      "outputs": [
        {
          "internalType": "uint96",
          "name": "",
          "type": "uint96"
        }
      ],
      "stateMutability": "view",
      "type": "function"
    },
    {
      "inputs": [],
      "name": "getTokenDivLength",
      "outputs": [
        {
          "internalType": "uint256",
          "name": "",
          "type": "uint256"
        }
      ],
      "stateMutability": "view",
      "type": "function"
    },
    {
      "inputs": [],
      "name": "name",
      "outputs": [
        {
          "internalType": "string",
          "name": "",
          "type": "string"
        }
      ],
      "stateMutability": "view",
      "type": "function"
    },
    {
      "inputs": [
        {
          "internalType": "address",
          "name": "",
          "type": "address"
        }
      ],
      "name": "nonces",
      "outputs": [
        {
          "internalType": "uint256",
          "name": "",
          "type": "uint256"
        }
      ],
      "stateMutability": "view",
      "type": "function"
    },
    {
      "inputs": [
        {
          "internalType": "address",
          "name": "",
          "type": "address"
        }
      ],
      "name": "numCheckpoints",
      "outputs": [
        {
          "internalType": "uint32",
          "name": "",
          "type": "uint32"
        }
      ],
      "stateMutability": "view",
      "type": "function"
    },
    {
      "inputs": [],
      "name": "owner",
      "outputs": [
        {
          "internalType": "address",
          "name": "",
          "type": "address"
        }
      ],
      "stateMutability": "view",
      "type": "function"
    },
    {
      "inputs": [
        {
          "internalType": "address",
          "name": "owner",
          "type": "address"
        },
        {
          "internalType": "address",
          "name": "spender",
          "type": "address"
        },
        {
          "internalType": "uint256",
          "name": "rawAmount",
          "type": "uint256"
        },
        {
          "internalType": "uint256",
          "name": "deadline",
          "type": "uint256"
        },
        {
          "internalType": "uint8",
          "name": "v",
          "type": "uint8"
        },
        {
          "internalType": "bytes32",
          "name": "r",
          "type": "bytes32"
        },
        {
          "internalType": "bytes32",
          "name": "s",
          "type": "bytes32"
        }
      ],
      "name": "permit",
      "outputs": [],
      "stateMutability": "nonpayable",
      "type": "function"
    },
    {
      "inputs": [],
      "name": "pointsPerShare",
      "outputs": [
        {
          "internalType": "uint256",
          "name": "",
          "type": "uint256"
        }
      ],
      "stateMutability": "view",
      "type": "function"
    },
    {
      "inputs": [
        {
          "internalType": "uint96",
          "name": "amount",
          "type": "uint96"
        }
      ],
      "name": "redeem",
      "outputs": [],
      "stateMutability": "nonpayable",
      "type": "function"
    },
    {
      "inputs": [],
      "name": "renounceOwnership",
      "outputs": [],
      "stateMutability": "nonpayable",
      "type": "function"
    },
    {
      "inputs": [],
      "name": "symbol",
      "outputs": [
        {
          "internalType": "string",
          "name": "",
          "type": "string"
        }
      ],
      "stateMutability": "view",
      "type": "function"
    },
    {
      "inputs": [],
      "name": "totalSupply",
      "outputs": [
        {
          "internalType": "uint256",
          "name": "",
          "type": "uint256"
        }
      ],
      "stateMutability": "view",
      "type": "function"
    },
    {
      "inputs": [
        {
          "internalType": "address",
          "name": "dst",
          "type": "address"
        },
        {
          "internalType": "uint256",
          "name": "rawAmount",
          "type": "uint256"
        }
      ],
      "name": "transfer",
      "outputs": [
        {
          "internalType": "bool",
          "name": "",
          "type": "bool"
        }
      ],
      "stateMutability": "nonpayable",
      "type": "function"
    },
    {
      "inputs": [
        {
          "internalType": "address",
          "name": "src",
          "type": "address"
        },
        {
          "internalType": "address",
          "name": "dst",
          "type": "address"
        },
        {
          "internalType": "uint256",
          "name": "rawAmount",
          "type": "uint256"
        }
      ],
      "name": "transferFrom",
      "outputs": [
        {
          "internalType": "bool",
          "name": "",
          "type": "bool"
        }
      ],
      "stateMutability": "nonpayable",
      "type": "function"
    },
    {
      "inputs": [
        {
          "internalType": "address",
          "name": "newOwner",
          "type": "address"
        }
      ],
      "name": "transferOwnership",
      "outputs": [],
      "stateMutability": "nonpayable",
      "type": "function"
    },
    {
      "inputs": [
        {
          "internalType": "address",
          "name": "account",
          "type": "address"
        }
      ],
      "name": "withdrawableDividendsOf",
      "outputs": [
        {
          "internalType": "uint256",
          "name": "",
          "type": "uint256"
        }
      ],
      "stateMutability": "view",
      "type": "function"
    },
    {
      "inputs": [
        {
          "internalType": "uint256",
          "name": "i",
          "type": "uint256"
        },
        {
          "internalType": "address",
          "name": "account",
          "type": "address"
        }
      ],
      "name": "withdrawableDividendsOf",
      "outputs": [
        {
          "internalType": "uint256",
          "name": "",
          "type": "uint256"
        }
      ],
      "stateMutability": "view",
      "type": "function"
    },
    {
      "inputs": [
        {
          "internalType": "uint256",
          "name": "i",
          "type": "uint256"
        },
        {
          "internalType": "address",
          "name": "account",
          "type": "address"
        }
      ],
      "name": "withdrawnDividendsOf",
      "outputs": [
        {
          "internalType": "uint256",
          "name": "",
          "type": "uint256"
        }
      ],
      "stateMutability": "view",
      "type": "function"
    },
    {
      "inputs": [
        {
          "internalType": "address",
          "name": "account",
          "type": "address"
        }
      ],
      "name": "withdrawnDividendsOf",
      "outputs": [
        {
          "internalType": "uint256",
          "name": "",
          "type": "uint256"
        }
      ],
      "stateMutability": "view",
      "type": "function"
    }
  ],
  "bytecode": "0x60e06040523480156200001157600080fd5b5060405162003cbb38038062003cbb833981810160405260408110156200003757600080fd5b81019080805160405193929190846401000000008211156200005857600080fd5b9083019060208201858111156200006e57600080fd5b82516401000000008111828201881017156200008957600080fd5b82525081516020918201929091019080838360005b83811015620000b85781810151838201526020016200009e565b50505050905090810190601f168015620000e65780820380516001836020036101000a031916815260200191505b50604052602001805160405193929190846401000000008211156200010a57600080fd5b9083019060208201858111156200012057600080fd5b82516401000000008111828201881017156200013b57600080fd5b82525081516020918201929091019080838360005b838110156200016a57818101518382015260200162000150565b50505050905090810190601f168015620001985780820380516001836020036101000a031916815260200191505b506040525050508181620002e460201b62000f6f176200030860201b6200096d1783838160009080519060200190620001d392919062000acf565b508051620001e990600190602084019062000acf565b50815160208301207f8cad95687ba82c2ce50e74f7b754645e5117c3a5bec8151c0726d5857980a866906200021d62000317565b3060405160200162000233949392919062000b71565b60408051601f19818403018152919052805160209091012060805250506001600160c01b031960c092831b811660a05290821b1690525060009050620002786200031b565b600d80546001600160a01b0319166001600160a01b038316908117909155604051919250906000907f8be0079c531659141344cd1fd0a4f28419497f9722a3daafe3b4186f6b6457e0908290a350620002dc3369d3c21bcecceda10000006200031f565b505062000c87565b6001600160a01b03166000908152600460205260409020546001600160601b031690565b6002546001600160601b031690565b4690565b3390565b6200033682826200034a60201b62001cfe1760201c565b620003468260008390036200048e565b5050565b6001600160a01b0382166200037c5760405162461bcd60e51b8152600401620003739062000c22565b60405180910390fd5b60006200038982620004fb565b60025460408051808201909152601581527f6d696e7420616d6f756e74206f766572666c6f777300000000000000000000006020820152919250620003dc916001600160601b0390911690839062000530565b600280546001600160601b039283166001600160601b0319918216179091556001600160a01b03851660008181526004602052604080822080548087168801909616959094169490941790925591517fddf252ad1be2c89b69c2b068fc378daa952ba7f163c4a11628f55a4df523b3ef906200045a90859062000c59565b60405180910390a36001600160a01b03808416600090815260056020526040812054620004899216836200056f565b505050565b620004db620004ae600954836200076160201b62001e2e1790919060201c565b6001600160a01b0384166000908152600a6020908152604090912054919062001ed76200081b821b17901c565b6001600160a01b039092166000908152600a602052604090209190915550565b60006c0100000000000000000000000082106200052c5760405162461bcd60e51b8152600401620003739062000beb565b5090565b6000838301826001600160601b038087169083161015620005665760405162461bcd60e51b815260040162000373919062000b95565b50949350505050565b816001600160a01b0316836001600160a01b0316141580156200059b57506000816001600160601b0316115b1562000489576001600160a01b038316156200067f576001600160a01b03831660009081526007602052604081205463ffffffff169081620005df5760006200061f565b6001600160a01b0385166000908152600660209081526040808320600019860163ffffffff16845290915290205464010000000090046001600160601b03165b905060006200066b82856040518060400160405280601681526020017f766f746520616d6f756e7420756e646572666c6f7773000000000000000000008152506200088560201b60201c565b90506200067b86848484620008c7565b5050505b6001600160a01b0382161562000489576001600160a01b03821660009081526007602052604081205463ffffffff169081620006bd576000620006fd565b6001600160a01b0384166000908152600660209081526040808320600019860163ffffffff16845290915290205464010000000090046001600160601b03165b905060006200074982856040518060400160405280601581526020017f766f746520616d6f756e74206f766572666c6f777300000000000000000000008152506200053060201b60201c565b90506200075985848484620008c7565b505050505050565b600082620007725750600062000815565b82600019148015620007875750600160ff1b82145b15620007c55760405162461bcd60e51b815260040180806020018281038252602781526020018062003c946027913960400191505060405180910390fd5b82820282848281620007d357fe5b0514620008125760405162461bcd60e51b815260040180806020018281038252602781526020018062003c946027913960400191505060405180910390fd5b90505b92915050565b6000828201818312801590620008315750838112155b806200084857506000831280156200084857508381125b620008125760405162461bcd60e51b815260040180806020018281038252602181526020018062003c736021913960400191505060405180910390fd5b6000836001600160601b0316836001600160601b031611158290620008bf5760405162461bcd60e51b815260040162000373919062000b95565b505050900390565b600062000910436040518060400160405280601c81526020017f626c6f636b206e756d626572206578636565647320333220626974730000000081525062000a9c60201b60201c565b905060008463ffffffff161180156200095a57506001600160a01b038516600090815260066020908152604080832063ffffffff6000198901811685529252909120548282169116145b15620009b6576001600160a01b0385166000908152600660209081526040808320600019880163ffffffff16845290915290208054600160201b600160801b0319166401000000006001600160601b0385160217905562000a50565b60408051808201825263ffffffff80841682526001600160601b0380861660208085019182526001600160a01b038b166000818152600683528781208c87168252835287812096518754945190951664010000000002600160201b600160801b031995871663ffffffff19958616179590951694909417909555938252600790935292909220805460018801909316929091169190911790555b846001600160a01b03167fdec2bacdd2f05b59de34da9b523dff8be42e5e38e818c82fdb0bae774387a724848460405162000a8d92919062000c6d565b60405180910390a25050505050565b600081640100000000841062000ac75760405162461bcd60e51b815260040162000373919062000b95565b509192915050565b828054600181600116156101000203166002900490600052602060002090601f01602090048101928262000b07576000855562000b52565b82601f1062000b2257805160ff191683800117855562000b52565b8280016001018555821562000b52579182015b8281111562000b5257825182559160200191906001019062000b35565b506200052c9291505b808211156200052c576000815560010162000b5b565b938452602084019290925260408301526001600160a01b0316606082015260800190565b6000602080835283518082850152825b8181101562000bc35785810183015185820160400152820162000ba5565b8181111562000bd55783604083870101525b50601f01601f1916929092016040019392505050565b60208082526016908201527f616d6f756e742065786365656473203936206269747300000000000000000000604082015260600190565b60208082526018908201527f6d696e7420746f20746865207a65726f20616464726573730000000000000000604082015260600190565b6001600160601b0391909116815260200190565b6001600160601b0392831681529116602082015260400190565b60805160a05160c01c60c05160c01c612fb462000cbf60003950806109c05250806116b852806118cd5280611cdc5250612fb46000f3fe608060405234801561001057600080fd5b50600436106102775760003560e01c80637630c4a811610160578063b4b5ea57116100d8578063e52253811161008c578063f1127ed811610071578063f1127ed8146107ac578063f2fde38b14610806578063f698da251461082c57610277565b8063e52253811461079c578063e7a324dc146107a457610277565b8063c9017b1e116100bd578063c9017b1e146106f1578063d505accf1461071d578063dd62ed3e1461076e57610277565b8063b4b5ea5714610684578063c3cda520146106aa57610277565b80638ae7f4b01161012f57806395d89b411161011457806395d89b411461062a578063a9059cbb14610632578063b131e6101461065e57610277565b80638ae7f4b0146105fc5780638da5cb5b1461062257610277565b80637630c4a814610560578063782d6fe1146105865780637e245d79146105ce5780637ecebe00146105d657610277565b806349ad80bf116101f35780635c19a95c116101c25780636fcfff45116101a75780636fcfff45146104f357806370a0823114610532578063715018a61461055857610277565b80635c19a95c146104a557806363453ae1146104cd57610277565b806349ad80bf1461040957806353f83ad714610411578063587cde1e146104375780635a9ed1e51461047957610277565b806320606b701161024a57806330adf81f1161022f57806330adf81f146103b7578063313ce567146103bf5780633dbb287c146103dd57610277565b806320606b701461037957806323b872dd1461038157610277565b806306fdde031461027c578063095ea7b3146102f957806318160ddd146103395780631a60b63d14610353575b600080fd5b610284610834565b6040805160208082528351818301528351919283929083019185019080838360005b838110156102be5781810151838201526020016102a6565b50505050905090810190601f1680156102eb5780820380516001836020036101000a031916815260200191505b509250505060405180910390f35b6103256004803603604081101561030f57600080fd5b506001600160a01b0381351690602001356108c2565b604080519115158252519081900360200190f35b61034161096d565b60408051918252519081900360200190f35b6103416004803603602081101561036957600080fd5b50356001600160a01b031661097c565b610341610a09565b6103256004803603606081101561039757600080fd5b506001600160a01b03813581169160208101359091169060400135610a2d565b610341610b58565b6103c7610b7c565b6040805160ff9092168252519081900360200190f35b610341600480360360408110156103f357600080fd5b50803590602001356001600160a01b0316610b81565b610341610bc1565b6103416004803603602081101561042757600080fd5b50356001600160a01b0316610bc7565b61045d6004803603602081101561044d57600080fd5b50356001600160a01b0316610be2565b604080516001600160a01b039092168252519081900360200190f35b6103416004803603604081101561048f57600080fd5b50803590602001356001600160a01b0316610bfd565b6104cb600480360360208110156104bb57600080fd5b50356001600160a01b0316610d2e565b005b6104cb600480360360208110156104e357600080fd5b50356001600160a01b0316610d3b565b6105196004803603602081101561050957600080fd5b50356001600160a01b0316610f57565b6040805163ffffffff9092168252519081900360200190f35b6103416004803603602081101561054857600080fd5b50356001600160a01b0316610f6f565b6104cb610f93565b6104cb6004803603602081101561057657600080fd5b50356001600160601b0316611051565b6105b26004803603604081101561059c57600080fd5b506001600160a01b03813516906020013561128f565b604080516001600160601b039092168252519081900360200190f35b6103416114a4565b610341600480360360208110156105ec57600080fd5b50356001600160a01b03166114aa565b6104cb6004803603602081101561061257600080fd5b50356001600160a01b03166114bc565b61045d611539565b610284611548565b6103256004803603604081101561064857600080fd5b506001600160a01b0381351690602001356115a2565b6103416004803603602081101561067457600080fd5b50356001600160a01b03166115c5565b6105b26004803603602081101561069a57600080fd5b50356001600160a01b03166115f1565b6104cb600480360360c08110156106c057600080fd5b506001600160a01b038135169060208101359060408101359060ff6060820135169060808101359060a00135611663565b6103416004803603604081101561070757600080fd5b50803590602001356001600160a01b03166117f0565b6104cb600480360360e081101561073357600080fd5b506001600160a01b03813581169160208101359091169060408101359060608101359060ff6080820135169060a08101359060c00135611835565b6103416004803603604081101561078457600080fd5b506001600160a01b0381358116916020013516611a6c565b6104cb611aa0565b610341611b6b565b6107de600480360360408110156107c257600080fd5b5080356001600160a01b0316906020013563ffffffff16611b8f565b6040805163ffffffff90931683526001600160601b0390911660208301528051918290030190f35b6104cb6004803603602081101561081c57600080fd5b50356001600160a01b0316611bc5565b610341611cda565b6000805460408051602060026001851615610100026000190190941693909304601f810184900484028201840190925281815292918301828280156108ba5780601f1061088f576101008083540402835291602001916108ba565b820191906000526020600020905b81548152906001019060200180831161089d57829003601f168201915b505050505081565b6000806000198314156108d857506000196108e4565b6108e183611f3c565b90505b3360008181526003602090815260408083206001600160a01b03891680855292529182902080546bffffffffffffffffffffffff19166001600160601b03861617905590519091907f8c5be1e5ebec7d5bd14f71427d1e84f3dd0314c0f7b2291e5b200ac8c7c3b92590610959908590612ea5565b60405180910390a360019150505b92915050565b6002546001600160601b031690565b6001600160a01b0381166000908152600a60205260408120546fffffffffffffffffffffffffffffffff906109fb906109f6906109f06109eb6109e28863ffffffff7f000000000000000000000000000000000000000000000000000000000000000016565b60095490611f6e565b611f92565b90611ed7565b611fa4565b81610a0257fe5b0492915050565b7f8cad95687ba82c2ce50e74f7b754645e5117c3a5bec8151c0726d5857980a86681565b6001600160a01b03831660009081526003602090815260408083203380855292528220546001600160601b031682610a6485611f3c565b9050866001600160a01b0316836001600160a01b031614158015610a9157506001600160601b0382811614155b15610b40576000610abb8383604051806060016040528060218152602001612f1b60219139611fb3565b6001600160a01b038981166000818152600360209081526040808320948a16808452949091529081902080546bffffffffffffffffffffffff19166001600160601b0386161790555192935090917f8c5be1e5ebec7d5bd14f71427d1e84f3dd0314c0f7b2291e5b200ac8c7c3b92590610b36908590612ea5565b60405180910390a3505b610b4b878783611ff2565b5060019695505050505050565b7f6e71edae12b1b97f4d1f60370fef10105fa2faae0126114a169c64845d6126c981565b601281565b6000600c8381548110610b9057fe5b600091825260208083206001600160a01b038616845260036005909302019190910190526040902054905092915050565b600c5490565b6001600160a01b03166000908152600b602052604090205490565b6005602052600090815260409020546001600160a01b031681565b60006fffffffffffffffffffffffffffffffff8016610d1f6109f6600c8681548110610c2557fe5b90600052602060002090600502016002016000866001600160a01b03166001600160a01b03168152602001908152602001600020546109f06109eb600c8981548110610c6d57fe5b600091825260209182902060059091020154604080516370a0823160e01b81526001600160a01b038c81166004830152915191909216926370a082319260248082019391829003018186803b158015610cc557600080fd5b505afa158015610cd9573d6000803e3d6000fd5b505050506040513d6020811015610cef57600080fd5b5051600c80548b908110610cff57fe5b906000526020600020906005020160010154611f6e90919063ffffffff16565b81610d2657fe5b049392505050565b610d383382612011565b50565b610d4361209b565b6001600160a01b0316610d54611539565b6001600160a01b031614610daf576040805162461bcd60e51b815260206004820181905260248201527f4f776e61626c653a2063616c6c6572206973206e6f7420746865206f776e6572604482015290519081900360640190fd5b6000306001600160a01b03166318160ddd6040518163ffffffff1660e01b815260040160206040518083038186803b158015610dea57600080fd5b505afa158015610dfe573d6000803e3d6000fd5b505050506040513d6020811015610e1457600080fd5b5051905060005b600c54811015610f52576000610e746fffffffffffffffffffffffffffffffff8016610e6e85600c8681548110610e4e57fe5b90600052602060002090600502016001015461209f90919063ffffffff16565b906120f8565b90506000600c8381548110610e8557fe5b600091825260209182902060059091020154604080516370a0823160e01b815230600482015290516001600160a01b03909216926370a0823192602480840193829003018186803b158015610ed957600080fd5b505afa158015610eed573d6000803e3d6000fd5b505050506040513d6020811015610f0357600080fd5b5051600c805491925060009185908110610f1957fe5b9060005260206000209060050201600401548383030190506000811115610f4457610f448482612157565b505050806001019050610e1b565b505050565b60076020526000908152604090205463ffffffff1681565b6001600160a01b03166000908152600460205260409020546001600160601b031690565b610f9b61209b565b6001600160a01b0316610fac611539565b6001600160a01b031614611007576040805162461bcd60e51b815260206004820181905260248201527f4f776e61626c653a2063616c6c6572206973206e6f7420746865206f776e6572604482015290519081900360640190fd5b600d546040516000916001600160a01b0316907f8be0079c531659141344cd1fd0a4f28419497f9722a3daafe3b4186f6b6457e0908390a3600d80546001600160a01b0319169055565b6000306001600160a01b03166318160ddd6040518163ffffffff1660e01b815260040160206040518083038186803b15801561108c57600080fd5b505afa1580156110a0573d6000803e3d6000fd5b505050506040513d60208110156110b657600080fd5b5051905060005b600c5481101561127f5760006110f06fffffffffffffffffffffffffffffffff8016610e6e85600c8681548110610e4e57fe5b90506000600c838154811061110157fe5b600091825260209182902060059091020154604080516370a0823160e01b815230600482015290516001600160a01b03909216926370a0823192602480840193829003018186803b15801561115557600080fd5b505afa158015611169573d6000803e3d6000fd5b505050506040513d602081101561117f57600080fd5b5051600c80549192506000918590811061119557fe5b600091825260208220600460059092020101548484030191506111c586610e6e846001600160601b038b1661209f565b9050801561127057600c85815481106111da57fe5b60009182526020808320600590920290910154604080516323b872dd60e01b81523060048201523360248201526044810186905290516001600160a01b03909216936323b872dd9360648084019491939192918390030190829087803b15801561124357600080fd5b505af1158015611257573d6000803e3d6000fd5b505050506040513d602081101561126d57600080fd5b50505b505050508060010190506110bd565b5061128b333084611ff2565b5050565b60004382106112b95760405162461bcd60e51b81526004016112b090612d92565b60405180910390fd5b6001600160a01b03831660009081526007602052604090205463ffffffff16806112e7576000915050610967565b6001600160a01b038416600090815260066020908152604080832063ffffffff600019860181168552925290912054168310611364576001600160a01b03841660009081526006602090815260408083206000199490940163ffffffff168352929052205464010000000090046001600160601b03169050610967565b6001600160a01b038416600090815260066020908152604080832083805290915290205463ffffffff1683101561139f576000915050610967565b600060001982015b8163ffffffff168163ffffffff16111561145e576000600263ffffffff848403166001600160a01b038916600090815260066020908152604080832094909304860363ffffffff8181168452948252918390208351808501909452549384168084526401000000009094046001600160601b031690830152925090871415611439576020015194506109679350505050565b805163ffffffff1687111561145057819350611457565b6001820392505b50506113a7565b506001600160a01b038516600090815260066020908152604080832063ffffffff909416835292905220546001600160601b036401000000009091041691505092915050565b60095481565b60086020526000908152604090205481565b6114c461209b565b6001600160a01b03166114d5611539565b6001600160a01b031614611530576040805162461bcd60e51b815260206004820181905260248201527f4f776e61626c653a2063616c6c6572206973206e6f7420746865206f776e6572604482015290519081900360640190fd5b610d38816122b4565b600d546001600160a01b031690565b60018054604080516020600284861615610100026000190190941693909304601f810184900484028201840190925281815292918301828280156108ba5780601f1061088f576101008083540402835291602001916108ba565b6000806115ae83611f3c565b90506115bb338583611ff2565b5060019392505050565b6001600160a01b0381166000908152600b6020526040812054610967906115eb8461097c565b90612403565b6001600160a01b03811660009081526007602052604081205463ffffffff168061161c57600061165c565b6001600160a01b0383166000908152600660209081526040808320600019850163ffffffff16845290915290205464010000000090046001600160601b03165b9392505050565b60007fe48329057bfd03d55e49b547132e39cffd9c1820ad7b9d4c5307691425d15adf87878760405160200161169c9493929190612c21565b60405160208183030381529060405280519060200120905060007f0000000000000000000000000000000000000000000000000000000000000000826040516020016116e9929190612bd2565b6040516020818303038152906040528051906020012090506000600182878787604051600081526020016040526040516117269493929190612c45565b6020604051602081039080840390855afa158015611748573d6000803e3d6000fd5b5050604051601f1901519150506001600160a01b03811661177b5760405162461bcd60e51b81526004016112b090612cb6565b6001600160a01b038116600090815260086020526040902080546001810190915588146117ba5760405162461bcd60e51b81526004016112b090612dc9565b864211156117da5760405162461bcd60e51b81526004016112b090612e6e565b6117e4818a612011565b5050505b505050505050565b600061165c600c848154811061180257fe5b600091825260208083206001600160a01b0387168452600360059093020191909101905260409020546115eb8585610bfd565b600060001986141561184a5750600019611856565b61185386611f3c565b90505b6001600160a01b038816600090815260086020908152604080832080546001810190915590516118b1927f6e71edae12b1b97f4d1f60370fef10105fa2faae0126114a169c64845d6126c9928d928d928d92918d9101612bed565b60405160208183030381529060405280519060200120905060007f0000000000000000000000000000000000000000000000000000000000000000826040516020016118fe929190612bd2565b60405160208183030381529060405280519060200120905060006001828888886040516000815260200160405260405161193b9493929190612c45565b6020604051602081039080840390855afa15801561195d573d6000803e3d6000fd5b5050604051601f1901519150506001600160a01b0381166119905760405162461bcd60e51b81526004016112b090612cb6565b8a6001600160a01b0316816001600160a01b0316146119c15760405162461bcd60e51b81526004016112b090612e00565b874211156119e15760405162461bcd60e51b81526004016112b090612e6e565b6001600160a01b038b81166000818152600360209081526040808320948f16808452949091529081902080546bffffffffffffffffffffffff19166001600160601b038916179055517f8c5be1e5ebec7d5bd14f71427d1e84f3dd0314c0f7b2291e5b200ac8c7c3b92590611a57908890612ea5565b60405180910390a35050505050505050505050565b6001600160a01b0391821660009081526003602090815260408083209390941682529190915220546001600160601b031690565b6000805b600c5481101561128b57611ab88133612413565b91508115611b6357600c8181548110611acd57fe5b60009182526020808320600590920290910154604080516323b872dd60e01b81523060048201523360248201526044810187905290516001600160a01b03909216936323b872dd9360648084019491939192918390030190829087803b158015611b3657600080fd5b505af1158015611b4a573d6000803e3d6000fd5b505050506040513d6020811015611b6057600080fd5b50505b600101611aa4565b7fe48329057bfd03d55e49b547132e39cffd9c1820ad7b9d4c5307691425d15adf81565b600660209081526000928352604080842090915290825290205463ffffffff81169064010000000090046001600160601b031682565b611bcd61209b565b6001600160a01b0316611bde611539565b6001600160a01b031614611c39576040805162461bcd60e51b815260206004820181905260248201527f4f776e61626c653a2063616c6c6572206973206e6f7420746865206f776e6572604482015290519081900360640190fd5b6001600160a01b038116611c7e5760405162461bcd60e51b8152600401808060200182810382526026815260200180612ed46026913960400191505060405180910390fd5b600d546040516001600160a01b038084169216907f8be0079c531659141344cd1fd0a4f28419497f9722a3daafe3b4186f6b6457e090600090a3600d80546001600160a01b0319166001600160a01b0392909216919091179055565b7f000000000000000000000000000000000000000000000000000000000000000081565b6001600160a01b038216611d245760405162461bcd60e51b81526004016112b090612e37565b6000611d2f82611f3c565b60025460408051808201909152601581527f6d696e7420616d6f756e74206f766572666c6f777300000000000000000000006020820152919250611d80916001600160601b039091169083906124d8565b600280546001600160601b039283166bffffffffffffffffffffffff19918216179091556001600160a01b03851660008181526004602052604080822080548087168801909616959094169490941790925591517fddf252ad1be2c89b69c2b068fc378daa952ba7f163c4a11628f55a4df523b3ef90611e01908590612ea5565b60405180910390a36001600160a01b03808416600090815260056020526040812054610f52921683612514565b600082611e3d57506000610967565b82600019148015611e515750600160ff1b82145b15611e8d5760405162461bcd60e51b8152600401808060200182810382526027815260200180612f5d6027913960400191505060405180910390fd5b82820282848281611e9a57fe5b051461165c5760405162461bcd60e51b8152600401808060200182810382526027815260200180612f5d6027913960400191505060405180910390fd5b6000828201818312801590611eec5750838112155b80611f015750600083128015611f0157508381125b61165c5760405162461bcd60e51b8152600401808060200182810382526021815260200180612efa6021913960400191505060405180910390fd5b60006c010000000000000000000000008210611f6a5760405162461bcd60e51b81526004016112b090612ced565b5090565b6000821580611f8957505081810281838281611f8657fe5b04145b61096757600080fd5b6000600160ff1b8210611f6a57600080fd5b600080821215611f6a57600080fd5b6000836001600160601b0316836001600160601b031611158290611fea5760405162461bcd60e51b81526004016112b09190612c63565b505050900390565b611ffd8383836126e2565b610f528383836001600160601b03166128c8565b6001600160a01b03808316600081815260056020818152604080842080546004845282862054949093528787166001600160a01b031984168117909155905191909516946001600160601b039092169391928592917f3134e8a2e6d97e929a7e54011ea5485d7d196dd5f0ba4d4ef95803e8e3fc257f9190a4612095828483612514565b50505050565b3390565b6000826120ae57506000610967565b828202828482816120bb57fe5b041461165c5760405162461bcd60e51b8152600401808060200182810382526021815260200180612f3c6021913960400191505060405180910390fd5b600080821161214e576040805162461bcd60e51b815260206004820152601a60248201527f536166654d6174683a206469766973696f6e206279207a65726f000000000000604482015290519081900360640190fd5b818381610d2657fe5b6000600c838154811061216657fe5b600091825260209182902060059091020154604080516318160ddd60e01b815290516001600160a01b03909216926318160ddd92600480840193829003018186803b1580156121b457600080fd5b505afa1580156121c8573d6000803e3d6000fd5b505050506040513d60208110156121de57600080fd5b5051905080612234576040805162461bcd60e51b815260206004820152600660248201527f5348415245530000000000000000000000000000000000000000000000000000604482015290519081900360640190fd5b8115610f525761228d81612258846fffffffffffffffffffffffffffffffff611f6e565b8161225f57fe5b04600c858154811061226d57fe5b90600052602060002090600502016001015461295990919063ffffffff16565b600c848154811061229a57fe5b906000526020600020906005020160010181905550505050565b6001600160a01b03811661230f576040805162461bcd60e51b815260206004820152600860248201527f4164647265737330000000000000000000000000000000000000000000000000604482015290519081900360640190fd5b6000805b600c5481101561236157826001600160a01b0316600c828154811061233457fe5b60009182526020909120600590910201546001600160a01b0316141561235957600191505b600101612313565b5080156123b5576040805162461bcd60e51b815260206004820152601160248201527f4164647273416c726564794f6e4c697374000000000000000000000000000000604482015290519081900360640190fd5b600c80546001810180835560008390528492919081106123d157fe5b6000918252602090912060059091020180546001600160a01b0319166001600160a01b03929092169190911790555050565b8082038281111561096757600080fd5b60008061242084846117f0565b9050801561249f5761246881600c868154811061243957fe5b600091825260208083206001600160a01b03891684526003600590930201919091019052604090205490612959565b600c858154811061247557fe5b600091825260208083206001600160a01b0388168452600360059093020191909101905260409020555b6124d081600c86815481106124b057fe5b90600052602060002090600502016004015461295990919063ffffffff16565b509392505050565b6000838301826001600160601b03808716908316101561250b5760405162461bcd60e51b81526004016112b09190612c63565b50949350505050565b816001600160a01b0316836001600160a01b03161415801561253f57506000816001600160601b0316115b15610f52576001600160a01b03831615612615576001600160a01b03831660009081526007602052604081205463ffffffff16908161257f5760006125bf565b6001600160a01b0385166000908152600660209081526040808320600019860163ffffffff16845290915290205464010000000090046001600160601b03165b9050600061260382856040518060400160405280601681526020017f766f746520616d6f756e7420756e646572666c6f777300000000000000000000815250611fb3565b905061261186848484612969565b5050505b6001600160a01b03821615610f52576001600160a01b03821660009081526007602052604081205463ffffffff169081612650576000612690565b6001600160a01b0384166000908152600660209081526040808320600019860163ffffffff16845290915290205464010000000090046001600160601b03165b905060006126d482856040518060400160405280601581526020017f766f746520616d6f756e74206f766572666c6f777300000000000000000000008152506124d8565b90506117e885848484612969565b6001600160a01b0383166127085760405162461bcd60e51b81526004016112b090612d24565b6001600160a01b03821661272e5760405162461bcd60e51b81526004016112b090612d5b565b6001600160a01b038316600090815260046020908152604091829020548251808401909352601f83527f7472616e7366657220616d6f756e7420657863656564732062616c616e63650091830191909152612796916001600160601b03909116908390611fb3565b6001600160a01b03848116600090815260046020908152604080832080546bffffffffffffffffffffffff19166001600160601b03968716179055928616825290829020548251808401909352601983527f7472616e7366657220616d6f756e74206f766572666c6f7773000000000000009183019190915261281c92169083906124d8565b6001600160a01b038381166000818152600460205260409081902080546bffffffffffffffffffffffff19166001600160601b0395909516949094179093559151908516907fddf252ad1be2c89b69c2b068fc378daa952ba7f163c4a11628f55a4df523b3ef9061288e908590612ea5565b60405180910390a36001600160a01b03808416600090815260056020526040808220548584168352912054610f5292918216911683612514565b60006128e26109eb83600954611f6e90919063ffffffff16565b6001600160a01b0385166000908152600a60205260409020549091506129089082611ed7565b6001600160a01b038086166000908152600a602052604080822093909355908516815220546129379082612b3d565b6001600160a01b039093166000908152600a6020526040902092909255505050565b8082018281101561096757600080fd5b60006129aa436040518060400160405280601c81526020017f626c6f636b206e756d6265722065786365656473203332206269747300000000815250612ba2565b905060008463ffffffff161180156129f357506001600160a01b038516600090815260066020908152604080832063ffffffff6000198901811685529252909120548282169116145b15612a53576001600160a01b0385166000908152600660209081526040808320600019880163ffffffff168452909152902080546fffffffffffffffffffffffff0000000019166401000000006001600160601b03851602179055612af3565b60408051808201825263ffffffff80841682526001600160601b0380861660208085019182526001600160a01b038b166000818152600683528781208c871682528352878120965187549451909516640100000000026fffffffffffffffffffffffff000000001995871663ffffffff19958616179590951694909417909555938252600790935292909220805460018801909316929091169190911790555b846001600160a01b03167fdec2bacdd2f05b59de34da9b523dff8be42e5e38e818c82fdb0bae774387a7248484604051612b2e929190612eb9565b60405180910390a25050505050565b6000818303818312801590612b525750838113155b80612b675750600083128015612b6757508381135b61165c5760405162461bcd60e51b8152600401808060200182810382526024815260200180612f846024913960400191505060405180910390fd5b6000816401000000008410612bca5760405162461bcd60e51b81526004016112b09190612c63565b509192915050565b61190160f01b81526002810192909252602282015260420190565b9586526001600160a01b0394851660208701529290931660408501526060840152608083019190915260a082015260c00190565b9384526001600160a01b039290921660208401526040830152606082015260800190565b93845260ff9290921660208401526040830152606082015260800190565b6000602080835283518082850152825b81811015612c8f57858101830151858201604001528201612c73565b81811115612ca05783604083870101525b50601f01601f1916929092016040019392505050565b60208082526011908201527f696e76616c6964207369676e6174757265000000000000000000000000000000604082015260600190565b60208082526016908201527f616d6f756e742065786365656473203936206269747300000000000000000000604082015260600190565b6020808252601e908201527f7472616e736665722066726f6d20746865207a65726f20616464726573730000604082015260600190565b6020808252601c908201527f7472616e7366657220746f20746865207a65726f206164647265737300000000604082015260600190565b60208082526012908201527f6e6f74207965742064657465726d696e65640000000000000000000000000000604082015260600190565b6020808252600d908201527f696e76616c6964206e6f6e636500000000000000000000000000000000000000604082015260600190565b6020808252600c908201527f756e617574686f72697a65640000000000000000000000000000000000000000604082015260600190565b60208082526018908201527f6d696e7420746f20746865207a65726f20616464726573730000000000000000604082015260600190565b60208082526011908201527f7369676e61747572652065787069726564000000000000000000000000000000604082015260600190565b6001600160601b0391909116815260200190565b6001600160601b039283168152911660208201526040019056fe4f776e61626c653a206e6577206f776e657220697320746865207a65726f20616464726573735369676e6564536166654d6174683a206164646974696f6e206f766572666c6f777472616e7366657220616d6f756e74206578636565647320616c6c6f77616e6365536166654d6174683a206d756c7469706c69636174696f6e206f766572666c6f775369676e6564536166654d6174683a206d756c7469706c69636174696f6e206f766572666c6f775369676e6564536166654d6174683a207375627472616374696f6e206f766572666c6f77a164736f6c6343000706000a5369676e6564536166654d6174683a206164646974696f6e206f766572666c6f775369676e6564536166654d6174683a206d756c7469706c69636174696f6e206f766572666c6f77",
  "linkReferences": {},
  "deployedLinkReferences": {}
}