{
  "_format": "hh-sol-artifact-1",
  "contractName": "AVC20",
  "sourceName": "contracts/AVC20.sol",
  "abi": [
    {
      "inputs": [
        {
          "internalType": "string",
          "name": "name_",
          "type": "string"
        },
        {
          "internalType": "string",
          "name": "symbol_",
          "type": "string"
        }
      ],
      "stateMutability": "nonpayable",
      "type": "constructor"
    },
    {
      "anonymous": false,
      "inputs": [
        {
          "indexed": true,
          "internalType": "address",
          "name": "owner",
          "type": "address"
        },
        {
          "indexed": true,
          "internalType": "address",
          "name": "spender",
          "type": "address"
        },
        {
          "indexed": false,
          "internalType": "uint256",
          "name": "value",
          "type": "uint256"
        }
      ],
      "name": "Approval",
      "type": "event"
    },
    {
      "anonymous": false,
      "inputs": [
        {
          "indexed": true,
          "internalType": "address",
          "name": "delegator",
          "type": "address"
        },
        {
          "indexed": true,
          "internalType": "address",
          "name": "fromDelegate",
          "type": "address"
        },
        {
          "indexed": true,
          "internalType": "address",
          "name": "toDelegate",
          "type": "address"
        }
      ],
      "name": "DelegateChanged",
      "type": "event"
    },
    {
      "anonymous": false,
      "inputs": [
        {
          "indexed": true,
          "internalType": "address",
          "name": "delegate",
          "type": "address"
        },
        {
          "indexed": false,
          "internalType": "uint256",
          "name": "previousBalance",
          "type": "uint256"
        },
        {
          "indexed": false,
          "internalType": "uint256",
          "name": "newBalance",
          "type": "uint256"
        }
      ],
      "name": "DelegateVotesChanged",
      "type": "event"
    },
    {
      "anonymous": false,
      "inputs": [
        {
          "indexed": true,
          "internalType": "address",
          "name": "by",
          "type": "address"
        },
        {
          "indexed": false,
          "internalType": "uint256",
          "name": "dividendsDistributed",
          "type": "uint256"
        }
      ],
      "name": "DividendsDistributed",
      "type": "event"
    },
    {
      "anonymous": false,
      "inputs": [
        {
          "indexed": true,
          "internalType": "address",
          "name": "by",
          "type": "address"
        },
        {
          "indexed": false,
          "internalType": "uint256",
          "name": "fundsWithdrawn",
          "type": "uint256"
        }
      ],
      "name": "DividendsWithdrawn",
      "type": "event"
    },
    {
      "anonymous": false,
      "inputs": [
        {
          "indexed": true,
          "internalType": "address",
          "name": "previousOwner",
          "type": "address"
        },
        {
          "indexed": true,
          "internalType": "address",
          "name": "newOwner",
          "type": "address"
        }
      ],
      "name": "OwnershipTransferred",
      "type": "event"
    },
    {
      "anonymous": false,
      "inputs": [
        {
          "indexed": true,
          "internalType": "address",
          "name": "from",
          "type": "address"
        },
        {
          "indexed": true,
          "internalType": "address",
          "name": "to",
          "type": "address"
        },
        {
          "indexed": false,
          "internalType": "uint256",
          "name": "value",
          "type": "uint256"
        }
      ],
      "name": "Transfer",
      "type": "event"
    },
    {
      "inputs": [],
      "name": "DELEGATION_TYPEHASH",
      "outputs": [
        {
          "internalType": "bytes32",
          "name": "",
          "type": "bytes32"
        }
      ],
      "stateMutability": "view",
      "type": "function"
    },
    {
      "inputs": [],
      "name": "DOMAIN_TYPEHASH",
      "outputs": [
        {
          "internalType": "bytes32",
          "name": "",
          "type": "bytes32"
        }
      ],
      "stateMutability": "view",
      "type": "function"
    },
    {
      "inputs": [],
      "name": "PERMIT_TYPEHASH",
      "outputs": [
        {
          "internalType": "bytes32",
          "name": "",
          "type": "bytes32"
        }
      ],
      "stateMutability": "view",
      "type": "function"
    },
    {
      "inputs": [
        {
          "internalType": "uint256",
          "name": "i",
          "type": "uint256"
        },
        {
          "internalType": "address",
          "name": "account",
          "type": "address"
        }
      ],
      "name": "_prepareCollect",
      "outputs": [
        {
          "internalType": "uint256",
          "name": "",
          "type": "uint256"
        }
      ],
      "stateMutability": "nonpayable",
      "type": "function"
    },
    {
      "inputs": [
        {
          "internalType": "uint256",
          "name": "percent",
          "type": "uint256"
        }
      ],
      "name": "addProposal",
      "outputs": [],
      "stateMutability": "nonpayable",
      "type": "function"
    },
    {
      "inputs": [
        {
          "internalType": "uint256",
          "name": "amount",
          "type": "uint256"
        }
      ],
      "name": "addProposalMint",
      "outputs": [],
      "stateMutability": "nonpayable",
      "type": "function"
    },
    {
      "inputs": [
        {
          "internalType": "address",
          "name": "addressToAdd",
          "type": "address"
        }
      ],
      "name": "addToTokenList",
      "outputs": [],
      "stateMutability": "nonpayable",
      "type": "function"
    },
    {
      "inputs": [
        {
          "internalType": "address[]",
          "name": "addresses",
          "type": "address[]"
        }
      ],
      "name": "addToTokensListArray",
      "outputs": [],
      "stateMutability": "nonpayable",
      "type": "function"
    },
    {
      "inputs": [
        {
          "internalType": "address",
          "name": "account",
          "type": "address"
        },
        {
          "internalType": "address",
          "name": "spender",
          "type": "address"
        }
      ],
      "name": "allowance",
      "outputs": [
        {
          "internalType": "uint256",
          "name": "",
          "type": "uint256"
        }
      ],
      "stateMutability": "view",
      "type": "function"
    },
    {
      "inputs": [
        {
          "internalType": "uint256",
          "name": "i",
          "type": "uint256"
        }
      ],
      "name": "amountCollected",
      "outputs": [
        {
          "internalType": "uint256",
          "name": "",
          "type": "uint256"
        }
      ],
      "stateMutability": "view",
      "type": "function"
    },
    {
      "inputs": [
        {
          "internalType": "address",
          "name": "spender",
          "type": "address"
        },
        {
          "internalType": "uint256",
          "name": "rawAmount",
          "type": "uint256"
        }
      ],
      "name": "approve",
      "outputs": [
        {
          "internalType": "bool",
          "name": "",
          "type": "bool"
        }
      ],
      "stateMutability": "nonpayable",
      "type": "function"
    },
    {
      "inputs": [
        {
          "internalType": "address",
          "name": "account",
          "type": "address"
        }
      ],
      "name": "balanceOf",
      "outputs": [
        {
          "internalType": "uint256",
          "name": "",
          "type": "uint256"
        }
      ],
      "stateMutability": "view",
      "type": "function"
    },
    {
      "inputs": [
        {
          "internalType": "uint256",
          "name": "i",
          "type": "uint256"
        }
      ],
      "name": "balanceOf22",
      "outputs": [
        {
          "internalType": "uint256",
          "name": "",
          "type": "uint256"
        }
      ],
      "stateMutability": "view",
      "type": "function"
    },
    {
      "inputs": [
        {
          "internalType": "uint256",
          "name": "amount",
          "type": "uint256"
        }
      ],
      "name": "burn",
      "outputs": [
        {
          "internalType": "uint256",
          "name": "",
          "type": "uint256"
        }
      ],
      "stateMutability": "nonpayable",
      "type": "function"
    },
    {
      "inputs": [
        {
          "internalType": "address",
          "name": "",
          "type": "address"
        },
        {
          "internalType": "uint32",
          "name": "",
          "type": "uint32"
        }
      ],
      "name": "checkpoints",
      "outputs": [
        {
          "internalType": "uint32",
          "name": "fromBlock",
          "type": "uint32"
        },
        {
          "internalType": "uint96",
          "name": "votes",
          "type": "uint96"
        }
      ],
      "stateMutability": "view",
      "type": "function"
    },
    {
      "inputs": [],
      "name": "collect",
      "outputs": [],
      "stateMutability": "nonpayable",
      "type": "function"
    },
    {
      "inputs": [
        {
          "internalType": "uint256",
          "name": "i",
          "type": "uint256"
        }
      ],
      "name": "cumAmountToDistribute",
      "outputs": [
        {
          "internalType": "uint256",
          "name": "",
          "type": "uint256"
        }
      ],
      "stateMutability": "view",
      "type": "function"
    },
    {
      "inputs": [
        {
          "internalType": "address",
          "name": "account",
          "type": "address"
        }
      ],
      "name": "cumulativeDividendsOf",
      "outputs": [
        {
          "internalType": "uint256",
          "name": "",
          "type": "uint256"
        }
      ],
      "stateMutability": "view",
      "type": "function"
    },
    {
      "inputs": [
        {
          "internalType": "uint256",
          "name": "i",
          "type": "uint256"
        },
        {
          "internalType": "address",
          "name": "account",
          "type": "address"
        }
      ],
      "name": "cumulativeDividendsOf",
      "outputs": [
        {
          "internalType": "uint256",
          "name": "",
          "type": "uint256"
        }
      ],
      "stateMutability": "view",
      "type": "function"
    },
    {
      "inputs": [
        {
          "internalType": "uint256",
          "name": "i",
          "type": "uint256"
        },
        {
          "internalType": "address",
          "name": "account",
          "type": "address"
        }
      ],
      "name": "cumulativeDividendsOf2",
      "outputs": [
        {
          "internalType": "uint256",
          "name": "",
          "type": "uint256"
        }
      ],
      "stateMutability": "view",
      "type": "function"
    },
    {
      "inputs": [],
      "name": "decimals",
      "outputs": [
        {
          "internalType": "uint8",
          "name": "",
          "type": "uint8"
        }
      ],
      "stateMutability": "view",
      "type": "function"
    },
    {
      "inputs": [
        {
          "internalType": "address",
          "name": "delegatee",
          "type": "address"
        }
      ],
      "name": "delegate",
      "outputs": [],
      "stateMutability": "nonpayable",
      "type": "function"
    },
    {
      "inputs": [
        {
          "internalType": "address",
          "name": "delegatee",
          "type": "address"
        },
        {
          "internalType": "uint256",
          "name": "nonce",
          "type": "uint256"
        },
        {
          "internalType": "uint256",
          "name": "expiry",
          "type": "uint256"
        },
        {
          "internalType": "uint8",
          "name": "v",
          "type": "uint8"
        },
        {
          "internalType": "bytes32",
          "name": "r",
          "type": "bytes32"
        },
        {
          "internalType": "bytes32",
          "name": "s",
          "type": "bytes32"
        }
      ],
      "name": "delegateBySig",
      "outputs": [],
      "stateMutability": "nonpayable",
      "type": "function"
    },
    {
      "inputs": [
        {
          "internalType": "address",
          "name": "",
          "type": "address"
        }
      ],
      "name": "delegates",
      "outputs": [
        {
          "internalType": "address",
          "name": "",
          "type": "address"
        }
      ],
      "stateMutability": "view",
      "type": "function"
    },
    {
      "inputs": [],
      "name": "distributionRound",
      "outputs": [
        {
          "internalType": "uint256",
          "name": "",
          "type": "uint256"
        }
      ],
      "stateMutability": "view",
      "type": "function"
    },
    {
      "inputs": [],
      "name": "domainSeparator",
      "outputs": [
        {
          "internalType": "bytes32",
          "name": "",
          "type": "bytes32"
        }
      ],
      "stateMutability": "view",
      "type": "function"
    },
    {
      "inputs": [],
      "name": "getAvailableDistributions",
      "outputs": [
        {
          "internalType": "uint256[]",
          "name": "",
          "type": "uint256[]"
        }
      ],
      "stateMutability": "view",
      "type": "function"
    },
    {
      "inputs": [
        {
          "internalType": "uint256",
          "name": "i",
          "type": "uint256"
        },
        {
          "internalType": "address",
          "name": "address1",
          "type": "address"
        }
      ],
      "name": "getCorrection",
      "outputs": [
        {
          "internalType": "int256",
          "name": "",
          "type": "int256"
        }
      ],
      "stateMutability": "view",
      "type": "function"
    },
    {
      "inputs": [
        {
          "internalType": "address",
          "name": "account",
          "type": "address"
        }
      ],
      "name": "getCurrentVotes",
      "outputs": [
        {
          "internalType": "uint96",
          "name": "",
          "type": "uint96"
        }
      ],
      "stateMutability": "view",
      "type": "function"
    },
    {
      "inputs": [
        {
          "internalType": "uint256",
          "name": "i",
          "type": "uint256"
        }
      ],
      "name": "getMyVote",
      "outputs": [
        {
          "internalType": "uint256",
          "name": "",
          "type": "uint256"
        }
      ],
      "stateMutability": "view",
      "type": "function"
    },
    {
      "inputs": [
        {
          "internalType": "uint256",
          "name": "i",
          "type": "uint256"
        }
      ],
      "name": "getMyVoteMint",
      "outputs": [
        {
          "internalType": "uint256",
          "name": "",
          "type": "uint256"
        }
      ],
      "stateMutability": "view",
      "type": "function"
    },
    {
      "inputs": [],
      "name": "getNumProposals",
      "outputs": [
        {
          "internalType": "uint256",
          "name": "",
          "type": "uint256"
        }
      ],
      "stateMutability": "view",
      "type": "function"
    },
    {
      "inputs": [],
      "name": "getNumProposalsMint",
      "outputs": [
        {
          "internalType": "uint256",
          "name": "",
          "type": "uint256"
        }
      ],
      "stateMutability": "view",
      "type": "function"
    },
    {
      "inputs": [
        {
          "internalType": "uint256",
          "name": "i",
          "type": "uint256"
        }
      ],
      "name": "getPPS",
      "outputs": [
        {
          "internalType": "uint256",
          "name": "",
          "type": "uint256"
        }
      ],
      "stateMutability": "view",
      "type": "function"
    },
    {
      "inputs": [
        {
          "internalType": "address",
          "name": "account",
          "type": "address"
        },
        {
          "internalType": "uint256",
          "name": "blockNumber",
          "type": "uint256"
        }
      ],
      "name": "getPriorVotes",
      "outputs": [
        {
          "internalType": "uint96",
          "name": "",
          "type": "uint96"
        }
      ],
      "stateMutability": "view",
      "type": "function"
    },
    {
      "inputs": [
        {
          "internalType": "uint256",
          "name": "i",
          "type": "uint256"
        }
      ],
      "name": "getProjDistribute",
      "outputs": [
        {
          "internalType": "uint256",
          "name": "",
          "type": "uint256"
        }
      ],
      "stateMutability": "view",
      "type": "function"
    },
    {
      "inputs": [
        {
          "internalType": "uint256",
          "name": "i",
          "type": "uint256"
        }
      ],
      "name": "getProposal",
      "outputs": [
        {
          "components": [
            {
              "internalType": "uint256",
              "name": "totalVotesForDist",
              "type": "uint256"
            },
            {
              "internalType": "uint256",
              "name": "proposalNumber",
              "type": "uint256"
            },
            {
              "internalType": "uint256",
              "name": "timestamp",
              "type": "uint256"
            },
            {
              "internalType": "bool",
              "name": "hasDeployed",
              "type": "bool"
            },
            {
              "internalType": "uint256",
              "name": "id",
              "type": "uint256"
            },
            {
              "internalType": "uint256",
              "name": "percentToDistribute",
              "type": "uint256"
            },
            {
              "internalType": "uint256",
              "name": "mintAmount",
              "type": "uint256"
            }
          ],
          "internalType": "struct ERC20VotesComp.votingProposalView",
          "name": "",
          "type": "tuple"
        }
      ],
      "stateMutability": "view",
      "type": "function"
    },
    {
      "inputs": [
        {
          "internalType": "uint256",
          "name": "i",
          "type": "uint256"
        }
      ],
      "name": "getProposalMint",
      "outputs": [
        {
          "components": [
            {
              "internalType": "uint256",
              "name": "totalVotesForDist",
              "type": "uint256"
            },
            {
              "internalType": "uint256",
              "name": "proposalNumber",
              "type": "uint256"
            },
            {
              "internalType": "uint256",
              "name": "timestamp",
              "type": "uint256"
            },
            {
              "internalType": "bool",
              "name": "hasDeployed",
              "type": "bool"
            },
            {
              "internalType": "uint256",
              "name": "id",
              "type": "uint256"
            },
            {
              "internalType": "uint256",
              "name": "percentToDistribute",
              "type": "uint256"
            },
            {
              "internalType": "uint256",
              "name": "mintAmount",
              "type": "uint256"
            }
          ],
          "internalType": "struct ERC20VotesComp.votingProposalView",
          "name": "",
          "type": "tuple"
        }
      ],
      "stateMutability": "view",
      "type": "function"
    },
    {
      "inputs": [],
      "name": "getTokenDivLength",
      "outputs": [
        {
          "internalType": "uint256",
          "name": "",
          "type": "uint256"
        }
      ],
      "stateMutability": "view",
      "type": "function"
    },
    {
      "inputs": [],
      "name": "getTokenList",
      "outputs": [
        {
          "internalType": "address[]",
          "name": "",
          "type": "address[]"
        }
      ],
      "stateMutability": "view",
      "type": "function"
    },
    {
      "inputs": [
        {
          "internalType": "uint256",
          "name": "amount",
          "type": "uint256"
        }
      ],
      "name": "mintToSelf",
      "outputs": [
        {
          "internalType": "uint256",
          "name": "",
          "type": "uint256"
        }
      ],
      "stateMutability": "nonpayable",
      "type": "function"
    },
    {
      "inputs": [],
      "name": "name",
      "outputs": [
        {
          "internalType": "string",
          "name": "",
          "type": "string"
        }
      ],
      "stateMutability": "view",
      "type": "function"
    },
    {
      "inputs": [
        {
          "internalType": "address",
          "name": "",
          "type": "address"
        }
      ],
      "name": "nonces",
      "outputs": [
        {
          "internalType": "uint256",
          "name": "",
          "type": "uint256"
        }
      ],
      "stateMutability": "view",
      "type": "function"
    },
    {
      "inputs": [
        {
          "internalType": "address",
          "name": "",
          "type": "address"
        }
      ],
      "name": "numCheckpoints",
      "outputs": [
        {
          "internalType": "uint32",
          "name": "",
          "type": "uint32"
        }
      ],
      "stateMutability": "view",
      "type": "function"
    },
    {
      "inputs": [],
      "name": "owner",
      "outputs": [
        {
          "internalType": "address",
          "name": "",
          "type": "address"
        }
      ],
      "stateMutability": "view",
      "type": "function"
    },
    {
      "inputs": [
        {
          "internalType": "address",
          "name": "owner",
          "type": "address"
        },
        {
          "internalType": "address",
          "name": "spender",
          "type": "address"
        },
        {
          "internalType": "uint256",
          "name": "rawAmount",
          "type": "uint256"
        },
        {
          "internalType": "uint256",
          "name": "deadline",
          "type": "uint256"
        },
        {
          "internalType": "uint8",
          "name": "v",
          "type": "uint8"
        },
        {
          "internalType": "bytes32",
          "name": "r",
          "type": "bytes32"
        },
        {
          "internalType": "bytes32",
          "name": "s",
          "type": "bytes32"
        }
      ],
      "name": "permit",
      "outputs": [],
      "stateMutability": "nonpayable",
      "type": "function"
    },
    {
      "inputs": [
        {
          "internalType": "uint256",
          "name": "i",
          "type": "uint256"
        }
      ],
      "name": "placeVoteForDist",
      "outputs": [],
      "stateMutability": "nonpayable",
      "type": "function"
    },
    {
      "inputs": [
        {
          "internalType": "uint256",
          "name": "i",
          "type": "uint256"
        }
      ],
      "name": "placeVoteForDistMint",
      "outputs": [],
      "stateMutability": "nonpayable",
      "type": "function"
    },
    {
      "inputs": [],
      "name": "pointsPerShare",
      "outputs": [
        {
          "internalType": "uint256",
          "name": "",
          "type": "uint256"
        }
      ],
      "stateMutability": "view",
      "type": "function"
    },
    {
      "inputs": [
        {
          "internalType": "uint96",
          "name": "amount",
          "type": "uint96"
        }
      ],
      "name": "redeem",
      "outputs": [],
      "stateMutability": "nonpayable",
      "type": "function"
    },
    {
      "inputs": [
        {
          "internalType": "uint256",
          "name": "i",
          "type": "uint256"
        }
      ],
      "name": "removeVoteForDist",
      "outputs": [],
      "stateMutability": "nonpayable",
      "type": "function"
    },
    {
      "inputs": [],
      "name": "renounceOwnership",
      "outputs": [],
      "stateMutability": "nonpayable",
      "type": "function"
    },
    {
      "inputs": [],
      "name": "selfdestruct",
      "outputs": [],
      "stateMutability": "nonpayable",
      "type": "function"
    },
    {
      "inputs": [],
      "name": "symbol",
      "outputs": [
        {
          "internalType": "string",
          "name": "",
          "type": "string"
        }
      ],
      "stateMutability": "view",
      "type": "function"
    },
    {
      "inputs": [],
      "name": "totalSupply",
      "outputs": [
        {
          "internalType": "uint256",
          "name": "",
          "type": "uint256"
        }
      ],
      "stateMutability": "view",
      "type": "function"
    },
    {
      "inputs": [],
      "name": "totalVotesForDist",
      "outputs": [
        {
          "internalType": "uint256",
          "name": "",
          "type": "uint256"
        }
      ],
      "stateMutability": "view",
      "type": "function"
    },
    {
      "inputs": [
        {
          "internalType": "address",
          "name": "dst",
          "type": "address"
        },
        {
          "internalType": "uint256",
          "name": "rawAmount",
          "type": "uint256"
        }
      ],
      "name": "transfer",
      "outputs": [
        {
          "internalType": "bool",
          "name": "",
          "type": "bool"
        }
      ],
      "stateMutability": "nonpayable",
      "type": "function"
    },
    {
      "inputs": [
        {
          "internalType": "address",
          "name": "src",
          "type": "address"
        },
        {
          "internalType": "address",
          "name": "dst",
          "type": "address"
        },
        {
          "internalType": "uint256",
          "name": "rawAmount",
          "type": "uint256"
        }
      ],
      "name": "transferFrom",
      "outputs": [
        {
          "internalType": "bool",
          "name": "",
          "type": "bool"
        }
      ],
      "stateMutability": "nonpayable",
      "type": "function"
    },
    {
      "inputs": [
        {
          "internalType": "address",
          "name": "newOwner",
          "type": "address"
        }
      ],
      "name": "transferOwnership",
      "outputs": [],
      "stateMutability": "nonpayable",
      "type": "function"
    },
    {
      "inputs": [
        {
          "internalType": "address",
          "name": "account",
          "type": "address"
        }
      ],
      "name": "withdrawableDividendsOf",
      "outputs": [
        {
          "internalType": "uint256",
          "name": "",
          "type": "uint256"
        }
      ],
      "stateMutability": "view",
      "type": "function"
    },
    {
      "inputs": [
        {
          "internalType": "uint256",
          "name": "i",
          "type": "uint256"
        },
        {
          "internalType": "address",
          "name": "account",
          "type": "address"
        }
      ],
      "name": "withdrawableDividendsOf",
      "outputs": [
        {
          "internalType": "uint256",
          "name": "",
          "type": "uint256"
        }
      ],
      "stateMutability": "view",
      "type": "function"
    },
    {
      "inputs": [
        {
          "internalType": "uint256",
          "name": "i",
          "type": "uint256"
        },
        {
          "internalType": "address",
          "name": "account",
          "type": "address"
        }
      ],
      "name": "withdrawableDividendsOf2",
      "outputs": [
        {
          "internalType": "uint256",
          "name": "",
          "type": "uint256"
        }
      ],
      "stateMutability": "view",
      "type": "function"
    },
    {
      "inputs": [
        {
          "internalType": "uint256",
          "name": "i",
          "type": "uint256"
        },
        {
          "internalType": "address",
          "name": "account",
          "type": "address"
        }
      ],
      "name": "withdrawnDividendsOf",
      "outputs": [
        {
          "internalType": "uint256",
          "name": "",
          "type": "uint256"
        }
      ],
      "stateMutability": "view",
      "type": "function"
    },
    {
      "inputs": [
        {
          "internalType": "address",
          "name": "account",
          "type": "address"
        }
      ],
      "name": "withdrawnDividendsOf",
      "outputs": [
        {
          "internalType": "uint256",
          "name": "",
          "type": "uint256"
        }
      ],
      "stateMutability": "view",
      "type": "function"
    }
  ],
  "bytecode": "0x60e0604052600180553480156200001557600080fd5b5060405162005ed938038062005ed9833981016040819052620000389162000bb6565b8181620001b760201b6200176b17620001db60201b62000c3217838381600590805190602001906200006c92919062000a9b565b5080516200008290600690602084019062000a9b565b50815160208301207f8cad95687ba82c2ce50e74f7b754645e5117c3a5bec8151c0726d5857980a86690620000b6620001ea565b30604051602001620000cc949392919062000c1d565b60408051601f19818403018152919052805160209091012060805250506001600160c01b031960c092831b811660a05290821b169052506000905062000111620001ee565b601480546001600160a01b0319166001600160a01b038316908117909155604051919250906000907f8be0079c531659141344cd1fd0a4f28419497f9722a3daafe3b4186f6b6457e0908290a350620001753369d3c21bcecceda1000000620001f2565b62000180306200021d565b600380546001018082556000828152606492916200019a57fe5b906000526020600020906008020160050181905550505062000d45565b6001600160a01b03166000908152600960205260409020546001600160601b031690565b6007546001600160601b031690565b4690565b3390565b6200020982826200031660201b6200300c1760201c565b620002198260008390036200045a565b5050565b6001600160a01b03811662000264576040805162461bcd60e51b8152602060048201526008602482015267041646472657373360c41b604482015290519081900360640190fd5b6000805b601154811015620002ba57826001600160a01b0316601182815481106200028b57fe5b60009182526020909120600890910201546001600160a01b03161415620002b157600191505b60010162000268565b5080620002ce576011805460010181556000525b601180548391906000198101908110620002e457fe5b6000918252602090912060089091020180546001600160a01b0319166001600160a01b03929092169190911790555050565b6001600160a01b038216620003485760405162461bcd60e51b81526004016200033f9062000cad565b60405180910390fd5b60006200035582620004c7565b60075460408051808201909152601581527f6d696e7420616d6f756e74206f766572666c6f777300000000000000000000006020820152919250620003a8916001600160601b03909116908390620004fc565b600780546001600160601b039283166001600160601b0319918216179091556001600160a01b03851660008181526009602052604080822080548087168801909616959094169490941790925591517fddf252ad1be2c89b69c2b068fc378daa952ba7f163c4a11628f55a4df523b3ef906200042690859062000ce4565b60405180910390a36001600160a01b038084166000908152600a6020526040812054620004559216836200053b565b505050565b620004a76200047a600e54836200072d60201b620031411790919060201c565b6001600160a01b0384166000908152600f60209081526040909120549190620031ea620007e7821b17901c565b6001600160a01b039092166000908152600f602052604090209190915550565b60006c010000000000000000000000008210620004f85760405162461bcd60e51b81526004016200033f9062000c76565b5090565b6000838301826001600160601b038087169083161015620005325760405162461bcd60e51b81526004016200033f919062000c41565b50949350505050565b816001600160a01b0316836001600160a01b0316141580156200056757506000816001600160601b0316115b1562000455576001600160a01b038316156200064b576001600160a01b0383166000908152600c602052604081205463ffffffff169081620005ab576000620005eb565b6001600160a01b0385166000908152600b60209081526040808320600019860163ffffffff16845290915290205464010000000090046001600160601b03165b905060006200063782856040518060400160405280601681526020017f766f746520616d6f756e7420756e646572666c6f7773000000000000000000008152506200085160201b60201c565b9050620006478684848462000893565b5050505b6001600160a01b0382161562000455576001600160a01b0382166000908152600c602052604081205463ffffffff16908162000689576000620006c9565b6001600160a01b0384166000908152600b60209081526040808320600019860163ffffffff16845290915290205464010000000090046001600160601b03165b905060006200071582856040518060400160405280601581526020017f766f746520616d6f756e74206f766572666c6f77730000000000000000000000815250620004fc60201b60201c565b9050620007258584848462000893565b505050505050565b6000826200073e57506000620007e1565b82600019148015620007535750600160ff1b82145b15620007915760405162461bcd60e51b815260040180806020018281038252602781526020018062005eb26027913960400191505060405180910390fd5b828202828482816200079f57fe5b0514620007de5760405162461bcd60e51b815260040180806020018281038252602781526020018062005eb26027913960400191505060405180910390fd5b90505b92915050565b6000828201818312801590620007fd5750838112155b806200081457506000831280156200081457508381125b620007de5760405162461bcd60e51b815260040180806020018281038252602181526020018062005e916021913960400191505060405180910390fd5b6000836001600160601b0316836001600160601b0316111582906200088b5760405162461bcd60e51b81526004016200033f919062000c41565b505050900390565b6000620008dc436040518060400160405280601c81526020017f626c6f636b206e756d626572206578636565647320333220626974730000000081525062000a6860201b60201c565b905060008463ffffffff161180156200092657506001600160a01b0385166000908152600b6020908152604080832063ffffffff6000198901811685529252909120548282169116145b1562000982576001600160a01b0385166000908152600b60209081526040808320600019880163ffffffff16845290915290208054600160201b600160801b0319166401000000006001600160601b0385160217905562000a1c565b60408051808201825263ffffffff80841682526001600160601b0380861660208085019182526001600160a01b038b166000818152600b83528781208c87168252835287812096518754945190951664010000000002600160201b600160801b031995871663ffffffff19958616179590951694909417909555938252600c90935292909220805460018801909316929091169190911790555b846001600160a01b03167fdec2bacdd2f05b59de34da9b523dff8be42e5e38e818c82fdb0bae774387a724848460405162000a5992919062000cf8565b60405180910390a25050505050565b600081640100000000841062000a935760405162461bcd60e51b81526004016200033f919062000c41565b509192915050565b828054600181600116156101000203166002900490600052602060002090601f01602090048101928262000ad3576000855562000b1e565b82601f1062000aee57805160ff191683800117855562000b1e565b8280016001018555821562000b1e579182015b8281111562000b1e57825182559160200191906001019062000b01565b50620004f89291505b80821115620004f8576000815560010162000b27565b600082601f83011262000b4e578081fd5b81516001600160401b038082111562000b6357fe5b604051601f8301601f19168101602001828111828210171562000b8257fe5b60405282815284830160200186101562000b9a578384fd5b62000bad83602083016020880162000d12565b95945050505050565b6000806040838503121562000bc9578182fd5b82516001600160401b038082111562000be0578384fd5b62000bee8683870162000b3d565b9350602085015191508082111562000c04578283fd5b5062000c138582860162000b3d565b9150509250929050565b938452602084019290925260408301526001600160a01b0316606082015260800190565b600060208252825180602084015262000c6281604085016020870162000d12565b601f01601f19169190910160400192915050565b60208082526016908201527f616d6f756e742065786365656473203936206269747300000000000000000000604082015260600190565b60208082526018908201527f6d696e7420746f20746865207a65726f20616464726573730000000000000000604082015260600190565b6001600160601b0391909116815260200190565b6001600160601b0392831681529116602082015260400190565b60005b8381101562000d2f57818101518382015260200162000d15565b8381111562000d3f576000848401525b50505050565b60805160a05160c01c60c05160c01c61511462000d7d6000395080610c7152508061235752806127305280612fb352506151146000f3fe608060405234801561001057600080fd5b50600436106103d05760003560e01c8063798974dd116101ff578063c3cda5201161011a578063e5225381116100ad578063f2fde38b1161007c578063f2fde38b1461081e578063f698da2514610831578063f6c902e414610839578063f76b404914610841576103d0565b8063e5225381146107da578063e7a324dc146107e2578063ed2f23bd146107ea578063f1127ed8146107fd576103d0565b8063dbb8a024116100e9578063dbb8a0241461078e578063dd62ed3e146107a1578063dec20964146107b4578063e00bdabc146107c7576103d0565b8063c3cda52014610742578063c7f758a814610755578063c9017b1e14610768578063d505accf1461077b576103d0565b806395d89b4111610192578063b1cde24411610161578063b1cde24414610701578063b4b5ea5714610709578063b644ea3a1461071c578063bb6d5e3b1461072f576103d0565b806395d89b41146106c057806397d839f8146106c8578063a9059cbb146106db578063b131e610146106ee576103d0565b80638bd62406116101ce5780638bd624061461068a5780638da5cb5b1461069257806392f143151461069a5780639308c6f2146106ad576103d0565b8063798974dd146106545780637e245d791461065c5780637ecebe00146106645780638ae7f4b014610677576103d0565b80634227a4b3116102ef578063675b618c11610282578063715018a611610251578063715018a61461060657806373fff2401461060e5780637630c4a814610621578063782d6fe114610634576103d0565b8063675b618c146105b6578063679d38e0146105cb5780636fcfff45146105d357806370a08231146105f3576103d0565b806353f83ad7116102be57806353f83ad71461055d578063587cde1e146105705780635a9ed1e5146105905780635c19a95c146105a3576103d0565b80634227a4b31461051c57806342966c681461052f57806349ad80bf1461054257806349f5e05f1461054a576103d0565b806320606b7011610367578063313ce56711610336578063313ce567146104bf5780633d8ccf43146104d45780633dbb287c146104f45780633fec91a414610507576103d0565b806320606b701461048757806323b872dd1461048f578063273cbaa0146104a257806330adf81f146104b7576103d0565b8063095ea7b3116103a3578063095ea7b3146104395780630f9360151461045957806318160ddd1461046c5780631a60b63d14610474576103d0565b806301d07385146103d5578063050fcdf6146103fe57806306fdde0314610411578063093031e714610426575b600080fd5b6103e86103e336600461492a565b610854565b6040516103f59190614a56565b60405180910390f35b6103e861040c36600461492a565b61091e565b61041961095e565b6040516103f59190614ad5565b6103e86104343660046148fa565b6109ec565b61044c610447366004614767565b610a15565b6040516103f59190614a4b565b6103e861046736600461492a565b610abe565b6103e8610c32565b6103e8610482366004614677565b610c41565b6103e8610d1f565b61044c61049d3660046146c3565b610d43565b6104aa610e6c565b6040516103f591906149c6565b6103e8610f23565b6104c7610f47565b6040516103f59190614ff4565b6104e76104e23660046148fa565b610f4c565b6040516103f59190614f74565b6103e861050236600461492a565b611096565b61051a6105153660046148fa565b6110d6565b005b6103e861052a3660046148fa565b61116b565b6103e861053d3660046148fa565b6111c2565b6103e861128a565b6103e86105583660046148fa565b611290565b6103e861056b366004614677565b61132d565b61058361057e366004614677565b611348565b6040516103f5919061498e565b6103e861059e36600461492a565b611363565b61051a6105b1366004614677565b6114db565b6105be6114e8565b6040516103f59190614a13565b61051a6116c8565b6105e66105e1366004614677565b611753565b6040516103f59190614fc4565b6103e8610601366004614677565b61176b565b61051a61178f565b61051a61061c3660046148fa565b61184d565b61051a61062f36600461494c565b611a4c565b610647610642366004614767565b611bce565b6040516103f59190615002565b6103e8611dda565b6103e8611de0565b6103e8610672366004614677565b611de6565b61051a610685366004614677565b611df8565b6103e8611e75565b610583611e7b565b6103e86106a83660046148fa565b611e8a565b61051a6106bb366004614825565b611f6f565b610419612017565b6103e86106d636600461492a565b612072565b61044c6106e9366004614767565b61207e565b6103e86106fc366004614677565b6120a1565b6103e8612141565b610647610717366004614677565b612147565b61051a61072a3660046148fa565b6121b9565b6103e861073d3660046148fa565b612262565b61051a610750366004614790565b612302565b6104e76107633660046148fa565b61248f565b6103e861077636600461492a565b6125b0565b61051a6107893660046146fe565b612698565b6103e861079c3660046148fa565b6128cf565b6103e86107af366004614691565b6128f7565b61051a6107c23660046148fa565b61292b565b6103e86107d53660046148fa565b612b4a565b61051a612b72565b6103e8612d67565b61051a6107f83660046148fa565b612d8b565b61081061080b3660046147e7565b612e66565b6040516103f5929190614fd5565b61051a61082c366004614677565b612e9c565b6103e8612fb1565b6103e8612fd5565b6103e861084f3660046148fa565b612fdb565b60008061086184846125b0565b90508015610915576108a9816011868154811061087a57fe5b600091825260208083206001600160a01b0389168452600460089093020191909101905260409020549061324f565b601185815481106108b657fe5b600091825260208083206001600160a01b03881684526004600890930201919091019052604090205560118054610913918391879081106108f357fe5b90600052602060002090600802016005015461324f90919063ffffffff16565b505b90505b92915050565b60006011838154811061092d57fe5b600091825260208083206001600160a01b038616845260036008909302019190910190526040902054905092915050565b6005805460408051602060026001851615610100026000190190941693909304601f810184900484028201840190925281815292918301828280156109e45780601f106109b9576101008083540402835291602001916109e4565b820191906000526020600020905b8154815290600101906020018083116109c757829003601f168201915b505050505081565b6000601182815481106109fb57fe5b90600052602060002090600802016005015490505b919050565b600080600019831415610a2b5750600019610a37565b610a348361325f565b90505b3360008181526008602090815260408083206001600160a01b03891680855292529182902080546bffffffffffffffffffffffff19166001600160601b03861617905590519091907f8c5be1e5ebec7d5bd14f71427d1e84f3dd0314c0f7b2291e5b200ac8c7c3b92590610aac908590615002565b60405180910390a35060019392505050565b600080610ae860118581548110610ad157fe5b906000526020600020906008020160010154613291565b90506000610b916011600081548110610afd57fe5b60009182526020909120600890910201546040516370a0823160e01b81526001600160a01b03909116906370a0823190610b3b90889060040161498e565b60206040518083038186803b158015610b5357600080fd5b505afa158015610b67573d6000803e3d6000fd5b505050506040513d601f19601f82011682018060405250810190610b8b9190614912565b836132a3565b9050600060118681548110610ba257fe5b600091825260208083206001600160a01b03891684526003600890930201919091019052604081205483019150811215610c1257600081810390821215610be8826132fc565b90610c0f5760405162461bcd60e51b8152600401610c069190614ad5565b60405180910390fd5b50505b806000610c26826001600160801b036133ef565b98975050505050505050565b6007546001600160601b031690565b6001600160a01b0381166000908152600f60205260408120548190610ca790610ca1610c9c610c938763ffffffff7f000000000000000000000000000000000000000000000000000000000000000016565b600e549061344e565b613291565b906131ea565b90506000811215610cff576040805162461bcd60e51b815260206004820152601460248201527f6e6574206e656761746976652062616c616e6365000000000000000000000000604482015290519081900360640190fd5b6001600160801b03610d1082613472565b81610d1757fe5b049392505050565b7f8cad95687ba82c2ce50e74f7b754645e5117c3a5bec8151c0726d5857980a86681565b6001600160a01b03831660009081526008602090815260408083203380855292528220546001600160601b031682610d7a8561325f565b9050866001600160a01b0316836001600160a01b031614158015610da757506001600160601b0382811614155b15610e54576000610dd1838360405180606001604052806024815260200161507860249139613481565b6001600160a01b038981166000818152600860209081526040808320948a168084529482529182902080546bffffffffffffffffffffffff19166001600160601b03871690811790915582519081529151949550929391927f8c5be1e5ebec7d5bd14f71427d1e84f3dd0314c0f7b2291e5b200ac8c7c3b92592918290030190a3505b610e5f8787836134c0565b5060019695505050505050565b60115460609060009067ffffffffffffffff81118015610e8b57600080fd5b50604051908082528060200260200182016040528015610eb5578160200160208202803683370190505b50905060005b601154811015610f1d5760118181548110610ed257fe5b600091825260209091206008909102015482516001600160a01b0390911690839083908110610efd57fe5b6001600160a01b0390921660209283029190910190910152600101610ebb565b50905090565b7f6e71edae12b1b97f4d1f60370fef10105fa2faae0126114a169c64845d6126c981565b601281565b610f54614610565b6004548210610f755760405162461bcd60e51b8152600401610c0690614e61565b610f7d614610565b60048381548110610f8a57fe5b600091825260209091206008909102015481526004805484908110610fab57fe5b90600052602060002090600802016001015481602001818152505060048381548110610fd357fe5b90600052602060002090600802016002015481604001818152505060048381548110610ffb57fe5b600091825260209091206003600890920201015460ff1615156060820152600480548490811061102757fe5b9060005260206000209060080201600401548160800181815250506004838154811061104f57fe5b9060005260206000209060080201600501548160a00181815250506004838154811061107757fe5b600091825260209091206008909102016006015460c082015292915050565b6000601183815481106110a557fe5b600091825260208083206001600160a01b038616845260046008909302019190910190526040902054905092915050565b60038054600181018083556000839052909190829081106110f357fe5b600091825260209091206004600890920201015560038054600019810191908290811061111c57fe5b906000526020600020906008020160010181905550606481111561113e575060645b60038054829190600019810190811061115357fe5b90600052602060002090600802016005018190555050565b600454600090821061118f5760405162461bcd60e51b8152600401610c0690614e61565b6004828154811061119c57fe5b600091825260208083203384526008929092029091016007019052604090205492915050565b60006111cc6134fb565b6001600160a01b03166111dd611e7b565b6001600160a01b031614611238576040805162461bcd60e51b815260206004820181905260248201527f4f776e61626c653a2063616c6c6572206973206e6f7420746865206f776e6572604482015290519081900360640190fd5b600082116112585760405162461bcd60e51b8152600401610c0690614d85565b816112623361176b565b10156112805760405162461bcd60e51b8152600401610c0690614bcd565b610a1033836134ff565b60115490565b60006011828154811061129f57fe5b60009182526020909120600890910201546040516370a0823160e01b81526001600160a01b03909116906370a08231906112dd90309060040161498e565b60206040518083038186803b1580156112f557600080fd5b505afa158015611309573d6000803e3d6000fd5b505050506040513d601f19601f820116820180604052508101906109189190614912565b6001600160a01b031660009081526010602052604090205490565b600a602052600090815260409020546001600160a01b031681565b60008061137660118581548110610ad157fe5b9050600061141d601160008154811061138b57fe5b600091825260209182902060089091020154604080516370a0823160e01b81526001600160a01b038981166004830152915191909216926370a082319260248082019391829003018186803b1580156113e357600080fd5b505afa1580156113f7573d6000803e3d6000fd5b505050506040513d602081101561140d57600080fd5b505161141884613472565b6132a3565b905060006114636011878154811061143157fe5b600091825260208083206001600160a01b038a16845260036008909302019190910190526040902054610ca184613291565b905060008112156114bb576040805162461bcd60e51b815260206004820152600960248201527f6e656756616c3333330000000000000000000000000000000000000000000000604482015290519081900360640190fd5b60006114c682613472565b90506000610c26826001600160801b036133ef565b6114e53382613513565b50565b60115460609060009067ffffffffffffffff8111801561150757600080fd5b50604051908082528060200260200182016040528015611531578160200160208202803683370190505b5090506000805b6011548110156116c05760006116076011838154811061155457fe5b9060005260206000209060080201600501546011848154811061157357fe5b60009182526020909120600890910201546040516370a0823160e01b81526001600160a01b03909116906370a08231906115b190309060040161498e565b60206040518083038186803b1580156115c957600080fd5b505afa1580156115dd573d6000803e3d6000fd5b505050506040513d601f19601f820116820180604052508101906116019190614912565b90613597565b905060006116556001600160801b0380166011858154811061162557fe5b60009182526020808320308452600360089093020191909101905260409020548161164c57fe5b849190056131ea565b905060009350600081131561169957806011848154811061167257fe5b90600052602060002090600802016007015410611690576000611692565b805b935061169e565b600093505b838584815181106116ab57fe5b60209081029190910101525050600101611538565b509091505090565b6116d06134fb565b6001600160a01b03166116e1611e7b565b6001600160a01b03161461173c576040805162461bcd60e51b815260206004820181905260248201527f4f776e61626c653a2063616c6c6572206973206e6f7420746865206f776e6572604482015290519081900360640190fd5b73e640a1777a9943ecd1ee89e9a3e039cb962d37afff5b600c6020526000908152604090205463ffffffff1681565b6001600160a01b03166000908152600960205260409020546001600160601b031690565b6117976134fb565b6001600160a01b03166117a8611e7b565b6001600160a01b031614611803576040805162461bcd60e51b815260206004820181905260248201527f4f776e61626c653a2063616c6c6572206973206e6f7420746865206f776e6572604482015290519081900360640190fd5b6014546040516000916001600160a01b0316907f8be0079c531659141344cd1fd0a4f28419497f9722a3daafe3b4186f6b6457e0908390a3601480546001600160a01b0319169055565b600454811061186e5760405162461bcd60e51b8152600401610c0690614e61565b6004818154811061187b57fe5b6000918252602080832033845260076008909302019190910190526040902054156118b85760405162461bcd60e51b8152600401610c0690614b5f565b600481815481106118c557fe5b600091825260209091206003600890920201015460ff16156118f95760405162461bcd60e51b8152600401610c0690614d17565b6119296119053361176b565b6004838154811061191257fe5b600091825260209091206008909102015490613597565b6004828154811061193657fe5b60009182526020909120600890910201556119503361176b565b6004828154811061195d57fe5b60009182526020808320338452600760089093020191909101905260409020556119a2600261199c61198e3061176b565b611996610c32565b906135f1565b906133ef565b600482815481106119af57fe5b90600052602060002090600802016000015411156114e5576119ef30600483815481106119d857fe5b90600052602060002090600802016006015461364e565b6001600482815481106119fe57fe5b906000526020600020906008020160030160006101000a81548160ff0219169083151502179055504260048281548110611a3457fe5b90600052602060002090600802016002018190555050565b6000306001600160a01b03166318160ddd6040518163ffffffff1660e01b815260040160206040518083038186803b158015611a8757600080fd5b505afa158015611a9b573d6000803e3d6000fd5b505050506040513d601f19601f82011682018060405250810190611abf9190614912565b90506000611acb6114e8565b90506000611ad83361176b565b905060005b601154811015611bc7576000611b138561199c85878681518110611afd57fe5b60200260200101516132a390919063ffffffff16565b90508015611bbe5760118281548110611b2857fe5b60009182526020909120600890910201546040516323b872dd60e01b81526001600160a01b03909116906323b872dd90611b6a903090339086906004016149a2565b602060405180830381600087803b158015611b8457600080fd5b505af1158015611b98573d6000803e3d6000fd5b505050506040513d601f19601f82011682018060405250810190611bbc91906148da565b505b50600101611add565b5050505050565b6000438210611bef5760405162461bcd60e51b8152600401610c0690614c72565b6001600160a01b0383166000908152600c602052604090205463ffffffff1680611c1d576000915050610918565b6001600160a01b0384166000908152600b6020908152604080832063ffffffff600019860181168552925290912054168310611c9a576001600160a01b0384166000908152600b602090815260408083206000199490940163ffffffff168352929052205464010000000090046001600160601b03169050610918565b6001600160a01b0384166000908152600b6020908152604080832083805290915290205463ffffffff16831015611cd5576000915050610918565b600060001982015b8163ffffffff168163ffffffff161115611d94576000600263ffffffff848403166001600160a01b0389166000908152600b6020908152604080832094909304860363ffffffff8181168452948252918390208351808501909452549384168084526401000000009094046001600160601b031690830152925090871415611d6f576020015194506109189350505050565b805163ffffffff16871115611d8657819350611d8d565b6001820392505b5050611cdd565b506001600160a01b0385166000908152600b6020908152604080832063ffffffff909416835292905220546001600160601b036401000000009091041691505092915050565b60035490565b600e5481565b600d6020526000908152604090205481565b611e006134fb565b6001600160a01b0316611e11611e7b565b6001600160a01b031614611e6c576040805162461bcd60e51b815260206004820181905260248201527f4f776e61626c653a2063616c6c6572206973206e6f7420746865206f776e6572604482015290519081900360640190fd5b6114e581613665565b60005481565b6014546001600160a01b031690565b60008060118381548110611e9a57fe5b90600052602060002090600802016005015460118481548110611eb957fe5b90600052602060002090600802016007015460118581548110611ed857fe5b60009182526020909120600890910201546040516370a0823160e01b81526001600160a01b03909116906370a0823190611f1690309060040161498e565b60206040518083038186803b158015611f2e57600080fd5b505afa158015611f42573d6000803e3d6000fd5b505050506040513d601f19601f82011682018060405250810190611f669190614912565b03019392505050565b611f776134fb565b6001600160a01b0316611f88611e7b565b6001600160a01b031614611fe3576040805162461bcd60e51b815260206004820181905260248201527f4f776e61626c653a2063616c6c6572206973206e6f7420746865206f776e6572604482015290519081900360640190fd5b60005b81518110156120135761200b828281518110611ffe57fe5b6020026020010151613665565b600101611fe6565b5050565b6006805460408051602060026001851615610100026000190190941693909304601f810184900484028201840190925281815292918301828280156109e45780601f106109b9576101008083540402835291602001916109e4565b600061091583836125b0565b60008061208a8361325f565b90506120973385836134c0565b5060019392505050565b60006120ac82610c41565b6001600160a01b0383166000908152601060205260409020541115612118576040805162461bcd60e51b815260206004820152600960248201527f77726f6e672076616c0000000000000000000000000000000000000000000000604482015290519081900360640190fd5b6001600160a01b03821660009081526010602052604090205461213a83610c41565b0392915050565b60015481565b6001600160a01b0381166000908152600c602052604081205463ffffffff16806121725760006121b2565b6001600160a01b0383166000908152600b60209081526040808320600019850163ffffffff16845290915290205464010000000090046001600160601b03165b9392505050565b600081116121d95760405162461bcd60e51b8152600401610c0690614f3d565b60048054600181018083556000839052909190829081106121f657fe5b6000918252602090912060046008909202018101919091558054600019810191908290811061222157fe5b600091825260209091206001600890920201015560048054829190600019810190811061224a57fe5b90600052602060002090600802016006018190555050565b600061226c6134fb565b6001600160a01b031661227d611e7b565b6001600160a01b0316146122d8576040805162461bcd60e51b815260206004820181905260248201527f4f776e61626c653a2063616c6c6572206973206e6f7420746865206f776e6572604482015290519081900360640190fd5b600082116122f85760405162461bcd60e51b8152600401610c0690614d4e565b610a10338361364e565b60007fe48329057bfd03d55e49b547132e39cffd9c1820ad7b9d4c5307691425d15adf87878760405160200161233b9493929190614a93565b60405160208183030381529060405280519060200120905060007f000000000000000000000000000000000000000000000000000000000000000082604051602001612388929190614973565b6040516020818303038152906040528051906020012090506000600182878787604051600081526020016040526040516123c59493929190614ab7565b6020604051602081039080840390855afa1580156123e7573d6000803e3d6000fd5b5050604051601f1901519150506001600160a01b03811661241a5760405162461bcd60e51b8152600401610c0690614b28565b6001600160a01b0381166000908152600d6020526040902080546001810190915588146124595760405162461bcd60e51b8152600401610c0690614ce0565b864211156124795760405162461bcd60e51b8152600401610c0690614f06565b612483818a613513565b5050505b505050505050565b612497614610565b60035482106124b85760405162461bcd60e51b8152600401610c0690614e61565b6124c0614610565b600383815481106124cd57fe5b6000918252602090912060089091020154815260038054849081106124ee57fe5b9060005260206000209060080201600101548160200181815250506003838154811061251657fe5b9060005260206000209060080201600201548160400181815250506003838154811061253e57fe5b60009182526020909120600360089092020181015460ff161515606083015280548490811061256957fe5b9060005260206000209060080201600401548160800181815250506003838154811061259157fe5b600091825260209091206008909102016005015460a082015292915050565b6000601183815481106125bf57fe5b600091825260208083206001600160a01b0386168452600460089093020191909101905260409020546125f28484611363565b1015612645576040805162461bcd60e51b815260206004820152600960248201527f77726f6e6720766c320000000000000000000000000000000000000000000000604482015290519081900360640190fd5b60006126906011858154811061265757fe5b600091825260208083206001600160a01b03881684526004600890930201919091019052604090205461268a8686611363565b9061376c565b949350505050565b60006000198614156126ad57506000196126b9565b6126b68661325f565b90505b6001600160a01b0388166000908152600d602090815260408083208054600181019091559051612714927f6e71edae12b1b97f4d1f60370fef10105fa2faae0126114a169c64845d6126c9928d928d928d92918d9101614a5f565b60405160208183030381529060405280519060200120905060007f000000000000000000000000000000000000000000000000000000000000000082604051602001612761929190614973565b60405160208183030381529060405280519060200120905060006001828888886040516000815260200160405260405161279e9493929190614ab7565b6020604051602081039080840390855afa1580156127c0573d6000803e3d6000fd5b5050604051601f1901519150506001600160a01b0381166127f35760405162461bcd60e51b8152600401610c0690614b28565b8a6001600160a01b0316816001600160a01b0316146128245760405162461bcd60e51b8152600401610c0690614dbc565b874211156128445760405162461bcd60e51b8152600401610c0690614f06565b6001600160a01b038b81166000818152600860209081526040808320948f16808452949091529081902080546bffffffffffffffffffffffff19166001600160601b038916179055517f8c5be1e5ebec7d5bd14f71427d1e84f3dd0314c0f7b2291e5b200ac8c7c3b925906128ba908890615002565b60405180910390a35050505050505050505050565b6000601182815481106128de57fe5b9060005260206000209060080201600101549050919050565b6001600160a01b0391821660009081526008602090815260408083209390941682529190915220546001600160601b031690565b600354811061294c5760405162461bcd60e51b8152600401610c0690614e61565b6003818154811061295957fe5b6000918252602080832033845260076008909302019190910190526040902054156129965760405162461bcd60e51b8152600401610c0690614b5f565b600381815481106129a357fe5b600091825260209091206003600890920201015460ff16156129d75760405162461bcd60e51b8152600401610c0690614d17565b6129f06129e33361176b565b6003838154811061191257fe5b600382815481106129fd57fe5b6000918252602090912060089091020155612a173361176b565b60038281548110612a2457fe5b6000918252602080832033845260076008909302019190910190526040902055612a55600261199c61198e3061176b565b60038281548110612a6257fe5b90600052602060002090600802016000015411156114e557612a8261377c565b600160038281548110612a9157fe5b906000526020600020906008020160030160006101000a81548160ff0219169083151502179055504260038281548110612ac757fe5b600091825260208220600260089092020101919091556003805460018101808355928290529182908110612af757fe5b6000918252602090912060016008909202010155600380546000198101919082908110612b2057fe5b60009182526020909120600460089092020101556003805460649190600019810190811061115357fe5b600060118281548110612b5957fe5b9060005260206000209060080201600701549050919050565b6000805b60115481101561201357612b8a8133610854565b91508115612d5f578015612cf95760118181548110612ba557fe5b60009182526020909120600890910201546040516370a0823160e01b81526001600160a01b03909116906370a0823190612be390309060040161498e565b60206040518083038186803b158015612bfb57600080fd5b505afa158015612c0f573d6000803e3d6000fd5b505050506040513d601f19601f82011682018060405250810190612c339190614912565b821115612c525760405162461bcd60e51b8152600401610c0690614ca9565b60118181548110612c5f57fe5b60009182526020909120600890910201546040516323b872dd60e01b81526001600160a01b03909116906323b872dd90612ca1903090339087906004016149a2565b602060405180830381600087803b158015612cbb57600080fd5b505af1158015612ccf573d6000803e3d6000fd5b505050506040513d601f19601f82011682018060405250810190612cf391906148da565b50612d5f565b6001600160601b03821115612d205760405162461bcd60e51b8152600401610c0690614df3565b612d293061176b565b821115612d35836132fc565b90612d535760405162461bcd60e51b8152600401610c069190614ad5565b50612d5f3033846134c0565b600101612b76565b7fe48329057bfd03d55e49b547132e39cffd9c1820ad7b9d4c5307691425d15adf81565b6003548110612dac5760405162461bcd60e51b8152600401610c0690614e61565b600060038281548110612dbb57fe5b600091825260208083203384526007600890930201919091019052604090205411612df85760405162461bcd60e51b8152600401610c0690614e2a565b3360009081526002602052604090205460038054612e3392919084908110612e1c57fe5b6000918252602090912060089091020154906135f1565b60038281548110612e4057fe5b600091825260208083206008909202909101929092553381526002909152604081205550565b600b60209081526000928352604080842090915290825290205463ffffffff81169064010000000090046001600160601b031682565b612ea46134fb565b6001600160a01b0316612eb5611e7b565b6001600160a01b031614612f10576040805162461bcd60e51b815260206004820181905260248201527f4f776e61626c653a2063616c6c6572206973206e6f7420746865206f776e6572604482015290519081900360640190fd5b6001600160a01b038116612f555760405162461bcd60e51b81526004018080602001828103825260268152602001806150316026913960400191505060405180910390fd5b6014546040516001600160a01b038084169216907f8be0079c531659141344cd1fd0a4f28419497f9722a3daafe3b4186f6b6457e090600090a3601480546001600160a01b0319166001600160a01b0392909216919091179055565b7f000000000000000000000000000000000000000000000000000000000000000081565b60045490565b6003546000908210612fff5760405162461bcd60e51b8152600401610c0690614e61565b6003828154811061119c57fe5b6001600160a01b0382166130325760405162461bcd60e51b8152600401610c0690614ecf565b600061303d8261325f565b60075460408051808201909152601581527f6d696e7420616d6f756e74206f766572666c6f77730000000000000000000000602082015291925061308e916001600160601b03909116908390613919565b600780546001600160601b039283166bffffffffffffffffffffffff19918216179091556001600160a01b03851660008181526009602052604080822080548087168801909616959094169490941790925591517fddf252ad1be2c89b69c2b068fc378daa952ba7f163c4a11628f55a4df523b3ef9061310f908590615002565b60405180910390a36001600160a01b038084166000908152600a602052604081205461313c92168361394c565b505050565b60008261315057506000610918565b826000191480156131645750600160ff1b82145b156131a05760405162461bcd60e51b81526004018080602001828103825260278152602001806150bd6027913960400191505060405180910390fd5b828202828482816131ad57fe5b05146109155760405162461bcd60e51b81526004018080602001828103825260278152602001806150bd6027913960400191505060405180910390fd5b60008282018183128015906131ff5750838112155b80613214575060008312801561321457508381125b6109155760405162461bcd60e51b81526004018080602001828103825260218152602001806150576021913960400191505060405180910390fd5b8082018281101561091857600080fd5b60006c01000000000000000000000000821061328d5760405162461bcd60e51b8152600401610c0690614b96565b5090565b6000600160ff1b821061328d57600080fd5b6000826132b257506000610918565b828202828482816132bf57fe5b04146109155760405162461bcd60e51b815260040180806020018281038252602181526020018061509c6021913960400191505060405180910390fd5b60608161332157506040805180820190915260018152600360fc1b6020820152610a10565b8160005b811561333957600101600a82049150613325565b60008167ffffffffffffffff8111801561335257600080fd5b506040519080825280601f01601f19166020018201604052801561337d576020820181803683370190505b50859350905060001982015b83156133e657600a840660300160f81b828280600190039350815181106133ac57fe5b60200101907effffffffffffffffffffffffffffffffffffffffffffffffffffffffffffff1916908160001a905350600a84049350613389565b50949350505050565b6000808211613445576040805162461bcd60e51b815260206004820152601a60248201527f536166654d6174683a206469766973696f6e206279207a65726f000000000000604482015290519081900360640190fd5b818381610d1757fe5b60008215806134695750508181028183828161346657fe5b04145b61091857600080fd5b60008082121561328d57600080fd5b6000836001600160601b0316836001600160601b0316111582906134b85760405162461bcd60e51b8152600401610c069190614ad5565b505050900390565b6134cb838383613b1a565b60005b6011548110156134f5576134ed818585856001600160601b0316613ea5565b6001016134ce565b50505050565b3390565b6135098282613fe2565b6120138282614128565b6001600160a01b038083166000818152600a6020818152604080842080546009845282862054949093528787166001600160a01b031984168117909155905191909516946001600160601b039092169391928592917f3134e8a2e6d97e929a7e54011ea5485d7d196dd5f0ba4d4ef95803e8e3fc257f9190a46134f582848361394c565b600082820183811015610915576040805162461bcd60e51b815260206004820152601b60248201527f536166654d6174683a206164646974696f6e206f766572666c6f770000000000604482015290519081900360640190fd5b600082821115613648576040805162461bcd60e51b815260206004820152601e60248201527f536166654d6174683a207375627472616374696f6e206f766572666c6f770000604482015290519081900360640190fd5b50900390565b613658828261300c565b6120138282600003614128565b6001600160a01b0381166136c0576040805162461bcd60e51b815260206004820152600860248201527f4164647265737330000000000000000000000000000000000000000000000000604482015290519081900360640190fd5b6000805b60115481101561371257826001600160a01b0316601182815481106136e557fe5b60009182526020909120600890910201546001600160a01b0316141561370a57600191505b6001016136c4565b5080613725576011805460010181556000525b60118054839190600019810190811061373a57fe5b6000918252602090912060089091020180546001600160a01b0319166001600160a01b03929092169190911790555050565b8082038281111561091857600080fd5b6040516370a0823160e01b81526138649030906370a08231906137a390839060040161498e565b60206040518083038186803b1580156137bb57600080fd5b505afa1580156137cf573d6000803e3d6000fd5b505050506040513d601f19601f820116820180604052508101906137f39190614912565b306001600160a01b03166318160ddd6040518163ffffffff1660e01b815260040160206040518083038186803b15801561382c57600080fd5b505afa158015613840573d6000803e3d6000fd5b505050506040513d601f19601f820116820180604052508101906119969190614912565b60125560005b6011548110156114e55760006138866011838154811061155457fe5b905060006138a46001600160801b0380166011858154811061162557fe5b9050600081131561390f5780601184815481106138bd57fe5b906000526020600020906008020160070154101561390f5761390f8361390a601186815481106138e957fe5b9060005260206000209060080201600701548461417f90919063ffffffff16565b6141e4565b505060010161386a565b6000838301826001600160601b0380871690831610156133e65760405162461bcd60e51b8152600401610c069190614ad5565b816001600160a01b0316836001600160a01b03161415801561397757506000816001600160601b0316115b1561313c576001600160a01b03831615613a4d576001600160a01b0383166000908152600c602052604081205463ffffffff1690816139b75760006139f7565b6001600160a01b0385166000908152600b60209081526040808320600019860163ffffffff16845290915290205464010000000090046001600160601b03165b90506000613a3b82856040518060400160405280601681526020017f766f746520616d6f756e7420756e646572666c6f777300000000000000000000815250613481565b9050613a498684848461440c565b5050505b6001600160a01b0382161561313c576001600160a01b0382166000908152600c602052604081205463ffffffff169081613a88576000613ac8565b6001600160a01b0384166000908152600b60209081526040808320600019860163ffffffff16845290915290205464010000000090046001600160601b03165b90506000613b0c82856040518060400160405280601581526020017f766f746520616d6f756e74206f766572666c6f77730000000000000000000000815250613919565b90506124878584848461440c565b6001600160a01b038316613b405760405162461bcd60e51b8152600401610c0690614c04565b6001600160a01b038216613b665760405162461bcd60e51b8152600401610c0690614c3b565b6001600160a01b038216600090815260096020908152604091829020548251808401909352600a83527f7472616e7366657232320000000000000000000000000000000000000000000091830191909152613bce916001600160601b03909116908390613919565b6001600160a01b03838116600090815260096020908152604080832080546bffffffffffffffffffffffff19166001600160601b03968716179055928716825290829020548251808401909352600583527f737562323200000000000000000000000000000000000000000000000000000091830191909152613c549216908390613481565b6001600160a01b038481166000818152600960205260409081902080546bffffffffffffffffffffffff19166001600160601b039590951694909417909355915190841691907fddf252ad1be2c89b69c2b068fc378daa952ba7f163c4a11628f55a4df523b3ef90613cc7908590615002565b60405180910390a36001600160a01b038084166000908152600a6020526040808220548584168352912054613d019291821691168361394c565b600354600090600a1115613d16576000613d1e565b600354600919015b90506000815b60035481101561248757600060038281548110613d3d57fe5b600091825260208083206001600160a01b038b16845260076008909302019190910190526040902054118015613d94575060038181548110613d7b57fe5b600091825260209091206003600890920201015460ff16155b15613e9d5760038181548110613da657fe5b600091825260208083206001600160a01b038a168452600760089093020191909101905260409020546001600160601b03851610613e195760038181548110613deb57fe5b600091825260208083206001600160a01b038a16845260076008909302019190910190526040902054613e24565b836001600160601b03165b9150613e668260038381548110613e3757fe5b600091825260208083206001600160a01b038c16845260076008909302019190910190526040902054906135f1565b60038281548110613e7357fe5b600091825260208083206001600160a01b038b168452600760089093020191909101905260409020555b600101613d24565b6000613edb610c9c8360118881548110613ebb57fe5b90600052602060002090600802016001015461344e90919063ffffffff16565b9050613f1d8160118781548110613eee57fe5b600091825260208083206001600160a01b038a16845260036008909302019190910190526040902054906131ea565b60118681548110613f2a57fe5b600091825260208083206001600160a01b03891684526003600890930201919091019052604090205560118054613f9691839188908110613f6757fe5b600091825260208083206001600160a01b0389168452600360089093020191909101905260409020549061417f565b60118681548110613fa357fe5b90600052602060002090600802016003016000856001600160a01b03166001600160a01b03168152602001908152602001600020819055505050505050565b6001600160a01b0382166140085760405162461bcd60e51b8152600401610c0690614e98565b60006140138261325f565b6001600160a01b038416600090815260096020908152604091829020548251808401909352601b83527f6275726e20616d6f756e7420657863656564732062616c616e636500000000009183019190915291925061407c916001600160601b0316908390613481565b6001600160a01b03841660008181526009602052604080822080546bffffffffffffffffffffffff199081166001600160601b0396871617909155600780549182169186168790039095161790935591517fddf252ad1be2c89b69c2b068fc378daa952ba7f163c4a11628f55a4df523b3ef906140fa908590615002565b60405180910390a36001600160a01b038084166000908152600a602052604081205461313c9216908361394c565b61415f614140600e548361314190919063ffffffff16565b6001600160a01b0384166000908152600f6020526040902054906131ea565b6001600160a01b039092166000908152600f602052604090209190915550565b60008183038183128015906141945750838113155b806141a957506000831280156141a957508381135b6109155760405162461bcd60e51b81526004018080602001828103825260248152602001806150e46024913960400191505060405180910390fd5b60006001600160801b03801661423f6011858154811061420057fe5b9060005260206000209060080201600101546011868154811061421f57fe5b90600052602060002090600802016002015461344e90919063ffffffff16565b8161424657fe5b0490506000614255828461324f565b90506f4b3b4ca85a86c47a098a2240000000008110614273826132fc565b906142fc5760405162461bcd60e51b81526004018080602001828103825283818151815260200191508051906020019080838360005b838110156142c15781810151838201526020016142a9565b50505050905090810190601f1680156142ee5780820380516001836020036101000a031916815260200191505b509250505060405180910390fd5b50601254614311826001600160801b0361344e565b8161431857fe5b046011858154811061432657fe5b9060005260206000209060080201600101819055506012546011858154811061434b57fe5b906000526020600020906008020160020181905550614391836011868154811061437157fe5b90600052602060002090600802016006015461324f90919063ffffffff16565b6011858154811061439e57fe5b9060005260206000209060080201600601819055506143e483601186815481106143c457fe5b90600052602060002090600802016007015461324f90919063ffffffff16565b601185815481106143f157fe5b90600052602060002090600802016007018190555050505050565b600061444d436040518060400160405280601c81526020017f626c6f636b206e756d62657220657863656564732033322062697473000000008152506145e0565b905060008463ffffffff1611801561449657506001600160a01b0385166000908152600b6020908152604080832063ffffffff6000198901811685529252909120548282169116145b156144f6576001600160a01b0385166000908152600b60209081526040808320600019880163ffffffff168452909152902080546fffffffffffffffffffffffff0000000019166401000000006001600160601b03851602179055614596565b60408051808201825263ffffffff80841682526001600160601b0380861660208085019182526001600160a01b038b166000818152600b83528781208c871682528352878120965187549451909516640100000000026fffffffffffffffffffffffff000000001995871663ffffffff19958616179590951694909417909555938252600c90935292909220805460018801909316929091169190911790555b846001600160a01b03167fdec2bacdd2f05b59de34da9b523dff8be42e5e38e818c82fdb0bae774387a72484846040516145d1929190615016565b60405180910390a25050505050565b60008164010000000084106146085760405162461bcd60e51b8152600401610c069190614ad5565b509192915050565b6040518060e001604052806000815260200160008152602001600081526020016000151581526020016000815260200160008152602001600081525090565b80356001600160a01b0381168114610a1057600080fd5b803560ff81168114610a1057600080fd5b600060208284031215614688578081fd5b6109158261464f565b600080604083850312156146a3578081fd5b6146ac8361464f565b91506146ba6020840161464f565b90509250929050565b6000806000606084860312156146d7578081fd5b6146e08461464f565b92506146ee6020850161464f565b9150604084013590509250925092565b600080600080600080600060e0888a031215614718578283fd5b6147218861464f565b965061472f6020890161464f565b9550604088013594506060880135935061474b60808901614666565b925060a0880135915060c0880135905092959891949750929550565b60008060408385031215614779578182fd5b6147828361464f565b946020939093013593505050565b60008060008060008060c087890312156147a8578182fd5b6147b18761464f565b955060208701359450604087013593506147cd60608801614666565b92506080870135915060a087013590509295509295509295565b600080604083850312156147f9578182fd5b6148028361464f565b9150602083013563ffffffff8116811461481a578182fd5b809150509250929050565b60006020808385031215614837578182fd5b823567ffffffffffffffff8082111561484e578384fd5b818501915085601f830112614861578384fd5b81358181111561486d57fe5b8381026040518582820101818110858211171561488657fe5b604052828152858101935084860182860187018a10156148a4578788fd5b8795505b838610156148cd576148b98161464f565b8552600195909501949386019386016148a8565b5098975050505050505050565b6000602082840312156148eb578081fd5b81518015158114610915578182fd5b60006020828403121561490b578081fd5b5035919050565b600060208284031215614923578081fd5b5051919050565b6000806040838503121561493c578182fd5b823591506146ba6020840161464f565b60006020828403121561495d578081fd5b81356001600160601b0381168114610915578182fd5b61190160f01b81526002810192909252602282015260420190565b6001600160a01b0391909116815260200190565b6001600160a01b039384168152919092166020820152604081019190915260600190565b6020808252825182820181905260009190848201906040850190845b81811015614a075783516001600160a01b0316835292840192918401916001016149e2565b50909695505050505050565b6020808252825182820181905260009190848201906040850190845b81811015614a0757835183529284019291840191600101614a2f565b901515815260200190565b90815260200190565b9586526001600160a01b0394851660208701529290931660408501526060840152608083019190915260a082015260c00190565b9384526001600160a01b039290921660208401526040830152606082015260800190565b93845260ff9290921660208401526040830152606082015260800190565b6000602080835283518082850152825b81811015614b0157858101830151858201604001528201614ae5565b81811115614b125783604083870101525b50601f01601f1916929092016040019392505050565b60208082526011908201527f696e76616c6964207369676e6174757265000000000000000000000000000000604082015260600190565b6020808252600d908201527f416c726561647920566f74656400000000000000000000000000000000000000604082015260600190565b60208082526016908201527f616d6f756e742065786365656473203936206269747300000000000000000000604082015260600190565b6020808252600c908201527f6275726e42616c546f4c6f770000000000000000000000000000000000000000604082015260600190565b6020808252601e908201527f7472616e736665722066726f6d20746865207a65726f20616464726573730000604082015260600190565b6020808252601c908201527f7472616e7366657220746f20746865207a65726f206164647265737300000000604082015260600190565b60208082526012908201527f6e6f74207965742064657465726d696e65640000000000000000000000000000604082015260600190565b60208082526012908201527f6e6f7420656e6f7567682062616c616e63650000000000000000000000000000604082015260600190565b6020808252600d908201527f696e76616c6964206e6f6e636500000000000000000000000000000000000000604082015260600190565b6020808252600f908201527f416c726561647920506173736564200000000000000000000000000000000000604082015260600190565b6020808252600a908201527f4d696e7420416d74203000000000000000000000000000000000000000000000604082015260600190565b6020808252600a908201527f6275726e20416d74203000000000000000000000000000000000000000000000604082015260600190565b6020808252600c908201527f756e617574686f72697a65640000000000000000000000000000000000000000604082015260600190565b6020808252600a908201527f76616c546f4269675a5a00000000000000000000000000000000000000000000604082015260600190565b6020808252600f908201527f6469646e277420766f7465207965740000000000000000000000000000000000604082015260600190565b60208082526015908201527f70726f706f73616c20646f65736e742065786973740000000000000000000000604082015260600190565b6020808252601a908201527f6275726e2066726f6d20746865207a65726f2061646472657373000000000000604082015260600190565b60208082526018908201527f6d696e7420746f20746865207a65726f20616464726573730000000000000000604082015260600190565b60208082526011908201527f7369676e61747572652065787069726564000000000000000000000000000000604082015260600190565b60208082526009908201527f616d6f756e743d3d300000000000000000000000000000000000000000000000604082015260600190565b600060e0820190508251825260208301516020830152604083015160408301526060830151151560608301526080830151608083015260a083015160a083015260c083015160c083015292915050565b63ffffffff91909116815260200190565b63ffffffff9290921682526001600160601b0316602082015260400190565b60ff91909116815260200190565b6001600160601b0391909116815260200190565b6001600160601b039283168152911660208201526040019056fe4f776e61626c653a206e6577206f776e657220697320746865207a65726f20616464726573735369676e6564536166654d6174683a206164646974696f6e206f766572666c6f777472616e7366657220616d6f756e74206578636565647320616c6c6f77616e6365207a7a536166654d6174683a206d756c7469706c69636174696f6e206f766572666c6f775369676e6564536166654d6174683a206d756c7469706c69636174696f6e206f766572666c6f775369676e6564536166654d6174683a207375627472616374696f6e206f766572666c6f77a164736f6c6343000706000a5369676e6564536166654d6174683a206164646974696f6e206f766572666c6f775369676e6564536166654d6174683a206d756c7469706c69636174696f6e206f766572666c6f77",
  "linkReferences": {},
  "deployedLinkReferences": {}
}