{
  "_format": "hh-sol-artifact-1",
  "contractName": "AVC20",
  "sourceName": "contracts/AVC20.sol",
  "abi": [
    {
      "inputs": [
        {
          "internalType": "string",
          "name": "name_",
          "type": "string"
        },
        {
          "internalType": "string",
          "name": "symbol_",
          "type": "string"
        }
      ],
      "stateMutability": "nonpayable",
      "type": "constructor"
    },
    {
      "anonymous": false,
      "inputs": [
        {
          "indexed": true,
          "internalType": "address",
          "name": "owner",
          "type": "address"
        },
        {
          "indexed": true,
          "internalType": "address",
          "name": "spender",
          "type": "address"
        },
        {
          "indexed": false,
          "internalType": "uint256",
          "name": "value",
          "type": "uint256"
        }
      ],
      "name": "Approval",
      "type": "event"
    },
    {
      "anonymous": false,
      "inputs": [
        {
          "indexed": true,
          "internalType": "address",
          "name": "delegator",
          "type": "address"
        },
        {
          "indexed": true,
          "internalType": "address",
          "name": "fromDelegate",
          "type": "address"
        },
        {
          "indexed": true,
          "internalType": "address",
          "name": "toDelegate",
          "type": "address"
        }
      ],
      "name": "DelegateChanged",
      "type": "event"
    },
    {
      "anonymous": false,
      "inputs": [
        {
          "indexed": true,
          "internalType": "address",
          "name": "delegate",
          "type": "address"
        },
        {
          "indexed": false,
          "internalType": "uint256",
          "name": "previousBalance",
          "type": "uint256"
        },
        {
          "indexed": false,
          "internalType": "uint256",
          "name": "newBalance",
          "type": "uint256"
        }
      ],
      "name": "DelegateVotesChanged",
      "type": "event"
    },
    {
      "anonymous": false,
      "inputs": [
        {
          "indexed": true,
          "internalType": "address",
          "name": "by",
          "type": "address"
        },
        {
          "indexed": false,
          "internalType": "uint256",
          "name": "dividendsDistributed",
          "type": "uint256"
        }
      ],
      "name": "DividendsDistributed",
      "type": "event"
    },
    {
      "anonymous": false,
      "inputs": [
        {
          "indexed": true,
          "internalType": "address",
          "name": "by",
          "type": "address"
        },
        {
          "indexed": false,
          "internalType": "uint256",
          "name": "fundsWithdrawn",
          "type": "uint256"
        }
      ],
      "name": "DividendsWithdrawn",
      "type": "event"
    },
    {
      "anonymous": false,
      "inputs": [
        {
          "indexed": true,
          "internalType": "address",
          "name": "previousOwner",
          "type": "address"
        },
        {
          "indexed": true,
          "internalType": "address",
          "name": "newOwner",
          "type": "address"
        }
      ],
      "name": "OwnershipTransferred",
      "type": "event"
    },
    {
      "anonymous": false,
      "inputs": [
        {
          "indexed": true,
          "internalType": "address",
          "name": "from",
          "type": "address"
        },
        {
          "indexed": true,
          "internalType": "address",
          "name": "to",
          "type": "address"
        },
        {
          "indexed": false,
          "internalType": "uint256",
          "name": "value",
          "type": "uint256"
        }
      ],
      "name": "Transfer",
      "type": "event"
    },
    {
      "inputs": [],
      "name": "DELEGATION_TYPEHASH",
      "outputs": [
        {
          "internalType": "bytes32",
          "name": "",
          "type": "bytes32"
        }
      ],
      "stateMutability": "view",
      "type": "function"
    },
    {
      "inputs": [],
      "name": "DOMAIN_TYPEHASH",
      "outputs": [
        {
          "internalType": "bytes32",
          "name": "",
          "type": "bytes32"
        }
      ],
      "stateMutability": "view",
      "type": "function"
    },
    {
      "inputs": [],
      "name": "PERMIT_TYPEHASH",
      "outputs": [
        {
          "internalType": "bytes32",
          "name": "",
          "type": "bytes32"
        }
      ],
      "stateMutability": "view",
      "type": "function"
    },
    {
      "inputs": [
        {
          "internalType": "uint256",
          "name": "percent",
          "type": "uint256"
        }
      ],
      "name": "addProposal",
      "outputs": [],
      "stateMutability": "nonpayable",
      "type": "function"
    },
    {
      "inputs": [
        {
          "internalType": "address",
          "name": "addressToAdd",
          "type": "address"
        }
      ],
      "name": "addToTokenList",
      "outputs": [],
      "stateMutability": "nonpayable",
      "type": "function"
    },
    {
      "inputs": [
        {
          "internalType": "address[]",
          "name": "addresses",
          "type": "address[]"
        }
      ],
      "name": "addToTokensListArray",
      "outputs": [],
      "stateMutability": "nonpayable",
      "type": "function"
    },
    {
      "inputs": [
        {
          "internalType": "address",
          "name": "account",
          "type": "address"
        },
        {
          "internalType": "address",
          "name": "spender",
          "type": "address"
        }
      ],
      "name": "allowance",
      "outputs": [
        {
          "internalType": "uint256",
          "name": "",
          "type": "uint256"
        }
      ],
      "stateMutability": "view",
      "type": "function"
    },
    {
      "inputs": [
        {
          "internalType": "address",
          "name": "spender",
          "type": "address"
        },
        {
          "internalType": "uint256",
          "name": "rawAmount",
          "type": "uint256"
        }
      ],
      "name": "approve",
      "outputs": [
        {
          "internalType": "bool",
          "name": "",
          "type": "bool"
        }
      ],
      "stateMutability": "nonpayable",
      "type": "function"
    },
    {
      "inputs": [
        {
          "internalType": "address",
          "name": "account",
          "type": "address"
        }
      ],
      "name": "balanceOf",
      "outputs": [
        {
          "internalType": "uint256",
          "name": "",
          "type": "uint256"
        }
      ],
      "stateMutability": "view",
      "type": "function"
    },
    {
      "inputs": [
        {
          "internalType": "uint256",
          "name": "amount",
          "type": "uint256"
        }
      ],
      "name": "burn",
      "outputs": [
        {
          "internalType": "uint256",
          "name": "",
          "type": "uint256"
        }
      ],
      "stateMutability": "nonpayable",
      "type": "function"
    },
    {
      "inputs": [
        {
          "internalType": "address",
          "name": "",
          "type": "address"
        },
        {
          "internalType": "uint32",
          "name": "",
          "type": "uint32"
        }
      ],
      "name": "checkpoints",
      "outputs": [
        {
          "internalType": "uint32",
          "name": "fromBlock",
          "type": "uint32"
        },
        {
          "internalType": "uint96",
          "name": "votes",
          "type": "uint96"
        }
      ],
      "stateMutability": "view",
      "type": "function"
    },
    {
      "inputs": [],
      "name": "collect",
      "outputs": [],
      "stateMutability": "nonpayable",
      "type": "function"
    },
    {
      "inputs": [
        {
          "internalType": "address",
          "name": "account",
          "type": "address"
        }
      ],
      "name": "cumulativeDividendsOf",
      "outputs": [
        {
          "internalType": "uint256",
          "name": "",
          "type": "uint256"
        }
      ],
      "stateMutability": "view",
      "type": "function"
    },
    {
      "inputs": [
        {
          "internalType": "uint256",
          "name": "i",
          "type": "uint256"
        },
        {
          "internalType": "address",
          "name": "account",
          "type": "address"
        }
      ],
      "name": "cumulativeDividendsOf",
      "outputs": [
        {
          "internalType": "uint256",
          "name": "",
          "type": "uint256"
        }
      ],
      "stateMutability": "view",
      "type": "function"
    },
    {
      "inputs": [],
      "name": "decimals",
      "outputs": [
        {
          "internalType": "uint8",
          "name": "",
          "type": "uint8"
        }
      ],
      "stateMutability": "view",
      "type": "function"
    },
    {
      "inputs": [
        {
          "internalType": "address",
          "name": "delegatee",
          "type": "address"
        }
      ],
      "name": "delegate",
      "outputs": [],
      "stateMutability": "nonpayable",
      "type": "function"
    },
    {
      "inputs": [
        {
          "internalType": "address",
          "name": "delegatee",
          "type": "address"
        },
        {
          "internalType": "uint256",
          "name": "nonce",
          "type": "uint256"
        },
        {
          "internalType": "uint256",
          "name": "expiry",
          "type": "uint256"
        },
        {
          "internalType": "uint8",
          "name": "v",
          "type": "uint8"
        },
        {
          "internalType": "bytes32",
          "name": "r",
          "type": "bytes32"
        },
        {
          "internalType": "bytes32",
          "name": "s",
          "type": "bytes32"
        }
      ],
      "name": "delegateBySig",
      "outputs": [],
      "stateMutability": "nonpayable",
      "type": "function"
    },
    {
      "inputs": [
        {
          "internalType": "address",
          "name": "",
          "type": "address"
        }
      ],
      "name": "delegates",
      "outputs": [
        {
          "internalType": "address",
          "name": "",
          "type": "address"
        }
      ],
      "stateMutability": "view",
      "type": "function"
    },
    {
      "inputs": [],
      "name": "distributionRound",
      "outputs": [
        {
          "internalType": "uint256",
          "name": "",
          "type": "uint256"
        }
      ],
      "stateMutability": "view",
      "type": "function"
    },
    {
      "inputs": [],
      "name": "domainSeparator",
      "outputs": [
        {
          "internalType": "bytes32",
          "name": "",
          "type": "bytes32"
        }
      ],
      "stateMutability": "view",
      "type": "function"
    },
    {
      "inputs": [
        {
          "internalType": "address",
          "name": "account",
          "type": "address"
        }
      ],
      "name": "getCurrentVotes",
      "outputs": [
        {
          "internalType": "uint96",
          "name": "",
          "type": "uint96"
        }
      ],
      "stateMutability": "view",
      "type": "function"
    },
    {
      "inputs": [
        {
          "internalType": "uint256",
          "name": "i",
          "type": "uint256"
        }
      ],
      "name": "getMyVote",
      "outputs": [
        {
          "internalType": "uint256",
          "name": "",
          "type": "uint256"
        }
      ],
      "stateMutability": "view",
      "type": "function"
    },
    {
      "inputs": [],
      "name": "getNumProposals",
      "outputs": [
        {
          "internalType": "uint256",
          "name": "",
          "type": "uint256"
        }
      ],
      "stateMutability": "view",
      "type": "function"
    },
    {
      "inputs": [
        {
          "internalType": "address",
          "name": "account",
          "type": "address"
        },
        {
          "internalType": "uint256",
          "name": "blockNumber",
          "type": "uint256"
        }
      ],
      "name": "getPriorVotes",
      "outputs": [
        {
          "internalType": "uint96",
          "name": "",
          "type": "uint96"
        }
      ],
      "stateMutability": "view",
      "type": "function"
    },
    {
      "inputs": [
        {
          "internalType": "uint256",
          "name": "i",
          "type": "uint256"
        }
      ],
      "name": "getProposal",
      "outputs": [
        {
          "components": [
            {
              "internalType": "uint256",
              "name": "totalVotesForDist",
              "type": "uint256"
            },
            {
              "internalType": "uint256",
              "name": "proposalNumber",
              "type": "uint256"
            },
            {
              "internalType": "uint256",
              "name": "timestamp",
              "type": "uint256"
            },
            {
              "internalType": "bool",
              "name": "hasDeployed",
              "type": "bool"
            },
            {
              "internalType": "uint256",
              "name": "id",
              "type": "uint256"
            },
            {
              "internalType": "uint256",
              "name": "percentToDistribute",
              "type": "uint256"
            }
          ],
          "internalType": "struct ERC20VotesComp.votingProposalView",
          "name": "",
          "type": "tuple"
        }
      ],
      "stateMutability": "view",
      "type": "function"
    },
    {
      "inputs": [],
      "name": "getTokenDivLength",
      "outputs": [
        {
          "internalType": "uint256",
          "name": "",
          "type": "uint256"
        }
      ],
      "stateMutability": "view",
      "type": "function"
    },
    {
      "inputs": [
        {
          "internalType": "uint256",
          "name": "amount",
          "type": "uint256"
        }
      ],
      "name": "mintToSelf",
      "outputs": [
        {
          "internalType": "uint256",
          "name": "",
          "type": "uint256"
        }
      ],
      "stateMutability": "nonpayable",
      "type": "function"
    },
    {
      "inputs": [],
      "name": "name",
      "outputs": [
        {
          "internalType": "string",
          "name": "",
          "type": "string"
        }
      ],
      "stateMutability": "view",
      "type": "function"
    },
    {
      "inputs": [
        {
          "internalType": "address",
          "name": "",
          "type": "address"
        }
      ],
      "name": "nonces",
      "outputs": [
        {
          "internalType": "uint256",
          "name": "",
          "type": "uint256"
        }
      ],
      "stateMutability": "view",
      "type": "function"
    },
    {
      "inputs": [
        {
          "internalType": "address",
          "name": "",
          "type": "address"
        }
      ],
      "name": "numCheckpoints",
      "outputs": [
        {
          "internalType": "uint32",
          "name": "",
          "type": "uint32"
        }
      ],
      "stateMutability": "view",
      "type": "function"
    },
    {
      "inputs": [],
      "name": "owner",
      "outputs": [
        {
          "internalType": "address",
          "name": "",
          "type": "address"
        }
      ],
      "stateMutability": "view",
      "type": "function"
    },
    {
      "inputs": [
        {
          "internalType": "address",
          "name": "owner",
          "type": "address"
        },
        {
          "internalType": "address",
          "name": "spender",
          "type": "address"
        },
        {
          "internalType": "uint256",
          "name": "rawAmount",
          "type": "uint256"
        },
        {
          "internalType": "uint256",
          "name": "deadline",
          "type": "uint256"
        },
        {
          "internalType": "uint8",
          "name": "v",
          "type": "uint8"
        },
        {
          "internalType": "bytes32",
          "name": "r",
          "type": "bytes32"
        },
        {
          "internalType": "bytes32",
          "name": "s",
          "type": "bytes32"
        }
      ],
      "name": "permit",
      "outputs": [],
      "stateMutability": "nonpayable",
      "type": "function"
    },
    {
      "inputs": [
        {
          "internalType": "uint256",
          "name": "i",
          "type": "uint256"
        }
      ],
      "name": "placeVoteForDist",
      "outputs": [],
      "stateMutability": "nonpayable",
      "type": "function"
    },
    {
      "inputs": [],
      "name": "pointsPerShare",
      "outputs": [
        {
          "internalType": "uint256",
          "name": "",
          "type": "uint256"
        }
      ],
      "stateMutability": "view",
      "type": "function"
    },
    {
      "inputs": [
        {
          "internalType": "uint96",
          "name": "amount",
          "type": "uint96"
        }
      ],
      "name": "redeem",
      "outputs": [],
      "stateMutability": "nonpayable",
      "type": "function"
    },
    {
      "inputs": [
        {
          "internalType": "uint256",
          "name": "i",
          "type": "uint256"
        }
      ],
      "name": "removeVoteForDist",
      "outputs": [],
      "stateMutability": "nonpayable",
      "type": "function"
    },
    {
      "inputs": [],
      "name": "renounceOwnership",
      "outputs": [],
      "stateMutability": "nonpayable",
      "type": "function"
    },
    {
      "inputs": [],
      "name": "selfdestruct",
      "outputs": [],
      "stateMutability": "nonpayable",
      "type": "function"
    },
    {
      "inputs": [],
      "name": "symbol",
      "outputs": [
        {
          "internalType": "string",
          "name": "",
          "type": "string"
        }
      ],
      "stateMutability": "view",
      "type": "function"
    },
    {
      "inputs": [],
      "name": "totalSupply",
      "outputs": [
        {
          "internalType": "uint256",
          "name": "",
          "type": "uint256"
        }
      ],
      "stateMutability": "view",
      "type": "function"
    },
    {
      "inputs": [],
      "name": "totalVotesForDist",
      "outputs": [
        {
          "internalType": "uint256",
          "name": "",
          "type": "uint256"
        }
      ],
      "stateMutability": "view",
      "type": "function"
    },
    {
      "inputs": [
        {
          "internalType": "address",
          "name": "dst",
          "type": "address"
        },
        {
          "internalType": "uint256",
          "name": "rawAmount",
          "type": "uint256"
        }
      ],
      "name": "transfer",
      "outputs": [
        {
          "internalType": "bool",
          "name": "",
          "type": "bool"
        }
      ],
      "stateMutability": "nonpayable",
      "type": "function"
    },
    {
      "inputs": [
        {
          "internalType": "address",
          "name": "src",
          "type": "address"
        },
        {
          "internalType": "address",
          "name": "dst",
          "type": "address"
        },
        {
          "internalType": "uint256",
          "name": "rawAmount",
          "type": "uint256"
        }
      ],
      "name": "transferFrom",
      "outputs": [
        {
          "internalType": "bool",
          "name": "",
          "type": "bool"
        }
      ],
      "stateMutability": "nonpayable",
      "type": "function"
    },
    {
      "inputs": [
        {
          "internalType": "address",
          "name": "newOwner",
          "type": "address"
        }
      ],
      "name": "transferOwnership",
      "outputs": [],
      "stateMutability": "nonpayable",
      "type": "function"
    },
    {
      "inputs": [
        {
          "internalType": "address",
          "name": "account",
          "type": "address"
        }
      ],
      "name": "withdrawableDividendsOf",
      "outputs": [
        {
          "internalType": "uint256",
          "name": "",
          "type": "uint256"
        }
      ],
      "stateMutability": "view",
      "type": "function"
    },
    {
      "inputs": [
        {
          "internalType": "uint256",
          "name": "i",
          "type": "uint256"
        },
        {
          "internalType": "address",
          "name": "account",
          "type": "address"
        }
      ],
      "name": "withdrawableDividendsOf",
      "outputs": [
        {
          "internalType": "uint256",
          "name": "",
          "type": "uint256"
        }
      ],
      "stateMutability": "view",
      "type": "function"
    },
    {
      "inputs": [
        {
          "internalType": "uint256",
          "name": "i",
          "type": "uint256"
        },
        {
          "internalType": "address",
          "name": "account",
          "type": "address"
        }
      ],
      "name": "withdrawableDividendsOf2",
      "outputs": [
        {
          "internalType": "uint256",
          "name": "",
          "type": "uint256"
        }
      ],
      "stateMutability": "view",
      "type": "function"
    },
    {
      "inputs": [
        {
          "internalType": "uint256",
          "name": "i",
          "type": "uint256"
        },
        {
          "internalType": "address",
          "name": "account",
          "type": "address"
        }
      ],
      "name": "withdrawnDividendsOf",
      "outputs": [
        {
          "internalType": "uint256",
          "name": "",
          "type": "uint256"
        }
      ],
      "stateMutability": "view",
      "type": "function"
    },
    {
      "inputs": [
        {
          "internalType": "address",
          "name": "account",
          "type": "address"
        }
      ],
      "name": "withdrawnDividendsOf",
      "outputs": [
        {
          "internalType": "uint256",
          "name": "",
          "type": "uint256"
        }
      ],
      "stateMutability": "view",
      "type": "function"
    }
  ],
  "bytecode": "0x60e0604052600180553480156200001557600080fd5b5060405162004faf38038062004faf833981016040819052620000389162000bb6565b8181620001b760201b62000dab17620001db60201b620007d217838381600490805190602001906200006c92919062000a9b565b5080516200008290600590602084019062000a9b565b50815160208301207f8cad95687ba82c2ce50e74f7b754645e5117c3a5bec8151c0726d5857980a86690620000b6620001ea565b30604051602001620000cc949392919062000c1d565b60408051601f19818403018152919052805160209091012060805250506001600160c01b031960c092831b811660a05290821b169052506000905062000111620001ee565b601380546001600160a01b0319166001600160a01b038316908117909155604051919250906000907f8be0079c531659141344cd1fd0a4f28419497f9722a3daafe3b4186f6b6457e0908290a350620001753369d3c21bcecceda1000000620001f2565b62000180306200021d565b600380546001018082556000828152606492916200019a57fe5b906000526020600020906007020160050181905550505062000d45565b6001600160a01b03166000908152600860205260409020546001600160601b031690565b6006546001600160601b031690565b4690565b3390565b6200020982826200031660201b620022001760201c565b620002198260008390036200045a565b5050565b6001600160a01b03811662000264576040805162461bcd60e51b8152602060048201526008602482015267041646472657373360c41b604482015290519081900360640190fd5b6000805b601054811015620002ba57826001600160a01b0316601082815481106200028b57fe5b60009182526020909120600790910201546001600160a01b03161415620002b157600191505b60010162000268565b5080620002ce576010805460010181556000525b601080548391906000198101908110620002e457fe5b6000918252602090912060079091020180546001600160a01b0319166001600160a01b03929092169190911790555050565b6001600160a01b038216620003485760405162461bcd60e51b81526004016200033f9062000cad565b60405180910390fd5b60006200035582620004c7565b60065460408051808201909152601581527f6d696e7420616d6f756e74206f766572666c6f777300000000000000000000006020820152919250620003a8916001600160601b03909116908390620004fc565b600680546001600160601b039283166001600160601b0319918216179091556001600160a01b03851660008181526008602052604080822080548087168801909616959094169490941790925591517fddf252ad1be2c89b69c2b068fc378daa952ba7f163c4a11628f55a4df523b3ef906200042690859062000ce4565b60405180910390a36001600160a01b03808416600090815260096020526040812054620004559216836200053b565b505050565b620004a76200047a600d54836200072d60201b620023351790919060201c565b6001600160a01b0384166000908152600e60209081526040909120549190620023de620007e7821b17901c565b6001600160a01b039092166000908152600e602052604090209190915550565b60006c010000000000000000000000008210620004f85760405162461bcd60e51b81526004016200033f9062000c76565b5090565b6000838301826001600160601b038087169083161015620005325760405162461bcd60e51b81526004016200033f919062000c41565b50949350505050565b816001600160a01b0316836001600160a01b0316141580156200056757506000816001600160601b0316115b1562000455576001600160a01b038316156200064b576001600160a01b0383166000908152600b602052604081205463ffffffff169081620005ab576000620005eb565b6001600160a01b0385166000908152600a60209081526040808320600019860163ffffffff16845290915290205464010000000090046001600160601b03165b905060006200063782856040518060400160405280601681526020017f766f746520616d6f756e7420756e646572666c6f7773000000000000000000008152506200085160201b60201c565b9050620006478684848462000893565b5050505b6001600160a01b0382161562000455576001600160a01b0382166000908152600b602052604081205463ffffffff16908162000689576000620006c9565b6001600160a01b0384166000908152600a60209081526040808320600019860163ffffffff16845290915290205464010000000090046001600160601b03165b905060006200071582856040518060400160405280601581526020017f766f746520616d6f756e74206f766572666c6f77730000000000000000000000815250620004fc60201b60201c565b9050620007258584848462000893565b505050505050565b6000826200073e57506000620007e1565b82600019148015620007535750600160ff1b82145b15620007915760405162461bcd60e51b815260040180806020018281038252602781526020018062004f886027913960400191505060405180910390fd5b828202828482816200079f57fe5b0514620007de5760405162461bcd60e51b815260040180806020018281038252602781526020018062004f886027913960400191505060405180910390fd5b90505b92915050565b6000828201818312801590620007fd5750838112155b806200081457506000831280156200081457508381125b620007de5760405162461bcd60e51b815260040180806020018281038252602181526020018062004f676021913960400191505060405180910390fd5b6000836001600160601b0316836001600160601b0316111582906200088b5760405162461bcd60e51b81526004016200033f919062000c41565b505050900390565b6000620008dc436040518060400160405280601c81526020017f626c6f636b206e756d626572206578636565647320333220626974730000000081525062000a6860201b60201c565b905060008463ffffffff161180156200092657506001600160a01b0385166000908152600a6020908152604080832063ffffffff6000198901811685529252909120548282169116145b1562000982576001600160a01b0385166000908152600a60209081526040808320600019880163ffffffff16845290915290208054600160201b600160801b0319166401000000006001600160601b0385160217905562000a1c565b60408051808201825263ffffffff80841682526001600160601b0380861660208085019182526001600160a01b038b166000818152600a83528781208c87168252835287812096518754945190951664010000000002600160201b600160801b031995871663ffffffff19958616179590951694909417909555938252600b90935292909220805460018801909316929091169190911790555b846001600160a01b03167fdec2bacdd2f05b59de34da9b523dff8be42e5e38e818c82fdb0bae774387a724848460405162000a5992919062000cf8565b60405180910390a25050505050565b600081640100000000841062000a935760405162461bcd60e51b81526004016200033f919062000c41565b509192915050565b828054600181600116156101000203166002900490600052602060002090601f01602090048101928262000ad3576000855562000b1e565b82601f1062000aee57805160ff191683800117855562000b1e565b8280016001018555821562000b1e579182015b8281111562000b1e57825182559160200191906001019062000b01565b50620004f89291505b80821115620004f8576000815560010162000b27565b600082601f83011262000b4e578081fd5b81516001600160401b038082111562000b6357fe5b604051601f8301601f19168101602001828111828210171562000b8257fe5b60405282815284830160200186101562000b9a578384fd5b62000bad83602083016020880162000d12565b95945050505050565b6000806040838503121562000bc9578182fd5b82516001600160401b038082111562000be0578384fd5b62000bee8683870162000b3d565b9350602085015191508082111562000c04578283fd5b5062000c138582860162000b3d565b9150509250929050565b938452602084019290925260408301526001600160a01b0316606082015260800190565b600060208252825180602084015262000c6281604085016020870162000d12565b601f01601f19169190910160400192915050565b60208082526016908201527f616d6f756e742065786365656473203936206269747300000000000000000000604082015260600190565b60208082526018908201527f6d696e7420746f20746865207a65726f20616464726573730000000000000000604082015260600190565b6001600160601b0391909116815260200190565b6001600160601b0392831681529116602082015260400190565b60005b8381101562000d2f57818101518382015260200162000d15565b8381111562000d3f576000848401525b50505050565b60805160a05160c01c60c05160c01c6141ea62000d7d60003950806108255250806117235280611a5f528061218752506141ea6000f3fe608060405234801561001057600080fd5b506004361061032b5760003560e01c80637ecebe00116101b2578063c3cda520116100f9578063e5225381116100a2578063f1127ed81161007c578063f1127ed81461064a578063f2fde38b1461066b578063f698da251461067e578063f76b4049146106865761032b565b8063e522538114610627578063e7a324dc1461062f578063ed2f23bd146106375761032b565b8063d505accf116100d3578063d505accf146105ee578063dd62ed3e14610601578063dec20964146106145761032b565b8063c3cda520146105a8578063c7f758a8146105bb578063c9017b1e146105db5761032b565b806397d839f81161015b578063b1cde24411610135578063b1cde2441461057a578063b4b5ea5714610582578063bb6d5e3b146105955761032b565b806397d839f814610541578063a9059cbb14610554578063b131e610146105675761032b565b80638da5cb5b1161018c5780638da5cb5b1461051e5780639308c6f21461052657806395d89b41146105395761032b565b80637ecebe00146104f05780638ae7f4b0146105035780638bd62406146105165761032b565b806353f83ad71161027657806370a082311161021f578063782d6fe1116101f9578063782d6fe1146104c0578063798974dd146104e05780637e245d79146104e85761032b565b806370a0823114610492578063715018a6146104a55780637630c4a8146104ad5761032b565b80635c19a95c116102505780635c19a95c14610457578063679d38e01461046a5780636fcfff45146104725761032b565b806353f83ad714610411578063587cde1e146104245780635a9ed1e5146104445761032b565b806330adf81f116102d85780633fec91a4116102b25780633fec91a4146103e157806342966c68146103f657806349ad80bf146104095761032b565b806330adf81f146103b1578063313ce567146103b95780633dbb287c146103ce5761032b565b80631a60b63d116103095780631a60b63d1461038357806320606b701461039657806323b872dd1461039e5761032b565b806306fdde0314610330578063095ea7b31461034e57806318160ddd1461036e575b600080fd5b610338610699565b6040516103459190613c5a565b60405180910390f35b61036161035c366004613971565b610727565b6040516103459190613bd0565b6103766107d2565b6040516103459190613bdb565b610376610391366004613881565b6107e1565b610376610870565b6103616103ac3660046138cd565b610894565b6103766109bf565b6103c16109e3565b60405161034591906140ca565b6103766103dc366004613b34565b6109e8565b6103f46103ef366004613b04565b610a28565b005b610376610404366004613b04565b610abd565b610376610b8e565b61037661041f366004613881565b610b94565b610437610432366004613881565b610baf565b6040516103459190613b98565b610376610452366004613b34565b610bca565b6103f4610465366004613881565b610cfb565b6103f4610d08565b610485610480366004613881565b610d93565b604051610345919061409a565b6103766104a0366004613881565b610dab565b6103f4610dcf565b6103f46104bb366004613b56565b610e8d565b6104d36104ce366004613971565b611126565b60405161034591906140d8565b610376611332565b610376611338565b6103766104fe366004613881565b61133e565b6103f4610511366004613881565b611350565b6103766113cd565b6104376113d3565b6103f4610534366004613a2f565b6113e2565b610338611486565b61037661054f366004613b34565b6114e1565b610361610562366004613971565b6114f4565b610376610575366004613881565b611517565b6103766115b7565b6104d3610590366004613881565b6115bd565b6103766105a3366004613b04565b61162e565b6103f46105b636600461399a565b6116ce565b6105ce6105c9366004613b04565b61185b565b6040516103459190614054565b6103766105e9366004613b34565b61197c565b6103f46105fc366004613908565b6119c7565b61037661060f36600461389b565b611bfe565b6103f4610622366004613b04565b611c32565b6103f4611e70565b610376611f3b565b6103f4610645366004613b04565b611f5f565b61065d6106583660046139f1565b61203a565b6040516103459291906140ab565b6103f4610679366004613881565b612070565b610376612185565b610376610694366004613b04565b6121a9565b6004805460408051602060026001851615610100026000190190941693909304601f8101849004840282018401909252818152929183018282801561071f5780601f106106f45761010080835404028352916020019161071f565b820191906000526020600020905b81548152906001019060200180831161070257829003601f168201915b505050505081565b60008060001983141561073d5750600019610749565b61074683612443565b90505b3360008181526007602090815260408083206001600160a01b03891680855292529182902080546bffffffffffffffffffffffff19166001600160601b03861617905590519091907f8c5be1e5ebec7d5bd14f71427d1e84f3dd0314c0f7b2291e5b200ac8c7c3b925906107be9085906140d8565b60405180910390a360019150505b92915050565b6006546001600160601b031690565b6001600160a01b0381166000908152600e60205260408120546fffffffffffffffffffffffffffffffff906108609061085b906108556108506108478863ffffffff7f000000000000000000000000000000000000000000000000000000000000000016565b600d5490612475565b612499565b906123de565b6124ab565b8161086757fe5b0490505b919050565b7f8cad95687ba82c2ce50e74f7b754645e5117c3a5bec8151c0726d5857980a86681565b6001600160a01b03831660009081526007602090815260408083203380855292528220546001600160601b0316826108cb85612443565b9050866001600160a01b0316836001600160a01b0316141580156108f857506001600160601b0382811614155b156109a7576000610922838360405180606001604052806024815260200161414e602491396124ba565b6001600160a01b038981166000818152600760209081526040808320948a16808452949091529081902080546bffffffffffffffffffffffff19166001600160601b0386161790555192935090917f8c5be1e5ebec7d5bd14f71427d1e84f3dd0314c0f7b2291e5b200ac8c7c3b9259061099d9085906140d8565b60405180910390a3505b6109b28787836124f9565b5060019695505050505050565b7f6e71edae12b1b97f4d1f60370fef10105fa2faae0126114a169c64845d6126c981565b601281565b6000601083815481106109f757fe5b600091825260208083206001600160a01b038616845260046007909302019190910190526040902054905092915050565b6003805460018101808355600083905290919082908110610a4557fe5b6000918252602090912060046007909202010155600380546000198101919082908110610a6e57fe5b9060005260206000209060070201600101819055506064811115610a90575060645b600380548291906000198101908110610aa557fe5b90600052602060002090600702016005018190555050565b6000610ac7612548565b6001600160a01b0316610ad86113d3565b6001600160a01b031614610b33576040805162461bcd60e51b815260206004820181905260248201527f4f776e61626c653a2063616c6c6572206973206e6f7420746865206f776e6572604482015290519081900360640190fd5b60008211610b5c5760405162461bcd60e51b8152600401610b5390613ed3565b60405180910390fd5b81610b6633610dab565b1015610b845760405162461bcd60e51b8152600401610b5390613d52565b61086b338361254c565b60105490565b6001600160a01b03166000908152600f602052604090205490565b6009602052600090815260409020546001600160a01b031681565b60006fffffffffffffffffffffffffffffffff8016610cec61085b60108681548110610bf257fe5b90600052602060002090600702016003016000866001600160a01b03166001600160a01b031681526020019081526020016000205461085561085060108981548110610c3a57fe5b600091825260209182902060079091020154604080516370a0823160e01b81526001600160a01b038c81166004830152915191909216926370a082319260248082019391829003018186803b158015610c9257600080fd5b505afa158015610ca6573d6000803e3d6000fd5b505050506040513d6020811015610cbc57600080fd5b5051601080548b908110610ccc57fe5b90600052602060002090600702016001015461247590919063ffffffff16565b81610cf357fe5b049392505050565b610d053382612560565b50565b610d10612548565b6001600160a01b0316610d216113d3565b6001600160a01b031614610d7c576040805162461bcd60e51b815260206004820181905260248201527f4f776e61626c653a2063616c6c6572206973206e6f7420746865206f776e6572604482015290519081900360640190fd5b73e640a1777a9943ecd1ee89e9a3e039cb962d37afff5b600b6020526000908152604090205463ffffffff1681565b6001600160a01b03166000908152600860205260409020546001600160601b031690565b610dd7612548565b6001600160a01b0316610de86113d3565b6001600160a01b031614610e43576040805162461bcd60e51b815260206004820181905260248201527f4f776e61626c653a2063616c6c6572206973206e6f7420746865206f776e6572604482015290519081900360640190fd5b6013546040516000916001600160a01b0316907f8be0079c531659141344cd1fd0a4f28419497f9722a3daafe3b4186f6b6457e0908390a3601380546001600160a01b0319169055565b6000306001600160a01b03166318160ddd6040518163ffffffff1660e01b815260040160206040518083038186803b158015610ec857600080fd5b505afa158015610edc573d6000803e3d6000fd5b505050506040513d601f19601f82011682018060405250810190610f009190613b1c565b905060005b601054811015611116576000610f7c6fffffffffffffffffffffffffffffffff8016610f7660108581548110610f3757fe5b90600052602060002090600702016002015460108681548110610f5657fe5b9060005260206000209060070201600101546125e490919063ffffffff16565b9061263d565b9050600060108381548110610f8d57fe5b60009182526020909120600790910201546040516370a0823160e01b81526001600160a01b03909116906370a0823190610fcb903090600401613b98565b60206040518083038186803b158015610fe357600080fd5b505afa158015610ff7573d6000803e3d6000fd5b505050506040513d601f19601f8201168201806040525081019061101b9190613b1c565b905060006010848154811061102c57fe5b6000918252602082206005600790920201015484840301915061105c86610f76846001600160601b038b166125e4565b90508015611107576010858154811061107157fe5b60009182526020909120600790910201546040516323b872dd60e01b81526001600160a01b03909116906323b872dd906110b390309033908690600401613bac565b602060405180830381600087803b1580156110cd57600080fd5b505af11580156110e1573d6000803e3d6000fd5b505050506040513d601f19601f820116820180604052508101906111059190613ae4565b505b50505050806001019050610f05565b506111223330846124f9565b5050565b60004382106111475760405162461bcd60e51b8152600401610b5390613df7565b6001600160a01b0383166000908152600b602052604090205463ffffffff16806111755760009150506107cc565b6001600160a01b0384166000908152600a6020908152604080832063ffffffff6000198601811685529252909120541683106111f2576001600160a01b0384166000908152600a602090815260408083206000199490940163ffffffff168352929052205464010000000090046001600160601b031690506107cc565b6001600160a01b0384166000908152600a6020908152604080832083805290915290205463ffffffff1683101561122d5760009150506107cc565b600060001982015b8163ffffffff168163ffffffff1611156112ec576000600263ffffffff848403166001600160a01b0389166000908152600a6020908152604080832094909304860363ffffffff8181168452948252918390208351808501909452549384168084526401000000009094046001600160601b0316908301529250908714156112c7576020015194506107cc9350505050565b805163ffffffff168711156112de578193506112e5565b6001820392505b5050611235565b506001600160a01b0385166000908152600a6020908152604080832063ffffffff909416835292905220546001600160601b036401000000009091041691505092915050565b60035490565b600d5481565b600c6020526000908152604090205481565b611358612548565b6001600160a01b03166113696113d3565b6001600160a01b0316146113c4576040805162461bcd60e51b815260206004820181905260248201527f4f776e61626c653a2063616c6c6572206973206e6f7420746865206f776e6572604482015290519081900360640190fd5b610d058161269c565b60005481565b6013546001600160a01b031690565b6113ea612548565b6001600160a01b03166113fb6113d3565b6001600160a01b031614611456576040805162461bcd60e51b815260206004820181905260248201527f4f776e61626c653a2063616c6c6572206973206e6f7420746865206f776e6572604482015290519081900360640190fd5b60005b81518110156111225761147e82828151811061147157fe5b602002602001015161269c565b600101611459565b6005805460408051602060026001851615610100026000190190941693909304601f8101849004840282018401909252818152929183018282801561071f5780601f106106f45761010080835404028352916020019161071f565b60006114ed838361197c565b9392505050565b60008061150083612443565b905061150d3385836124f9565b5060019392505050565b6000611522826107e1565b6001600160a01b0383166000908152600f6020526040902054111561158e576040805162461bcd60e51b815260206004820152600960248201527f77726f6e672076616c0000000000000000000000000000000000000000000000604482015290519081900360640190fd5b6001600160a01b0382166000908152600f60205260409020546115b0836107e1565b0392915050565b60015481565b6001600160a01b0381166000908152600b602052604081205463ffffffff16806115e85760006114ed565b6001600160a01b0383166000908152600a60209081526040808320600019850163ffffffff16845290915290205464010000000090046001600160601b03169392505050565b6000611638612548565b6001600160a01b03166116496113d3565b6001600160a01b0316146116a4576040805162461bcd60e51b815260206004820181905260248201527f4f776e61626c653a2063616c6c6572206973206e6f7420746865206f776e6572604482015290519081900360640190fd5b600082116116c45760405162461bcd60e51b8152600401610b5390613e9c565b61086b33836127a3565b60007fe48329057bfd03d55e49b547132e39cffd9c1820ad7b9d4c5307691425d15adf8787876040516020016117079493929190613c18565b60405160208183030381529060405280519060200120905060007f000000000000000000000000000000000000000000000000000000000000000082604051602001611754929190613b7d565b6040516020818303038152906040528051906020012090506000600182878787604051600081526020016040526040516117919493929190613c3c565b6020604051602081039080840390855afa1580156117b3573d6000803e3d6000fd5b5050604051601f1901519150506001600160a01b0381166117e65760405162461bcd60e51b8152600401610b5390613cad565b6001600160a01b0381166000908152600c6020526040902080546001810190915588146118255760405162461bcd60e51b8152600401610b5390613e2e565b864211156118455760405162461bcd60e51b8152600401610b539061401d565b61184f818a612560565b5050505b505050505050565b611863613821565b60035482106118845760405162461bcd60e51b8152600401610b5390613f78565b61188c613821565b6003838154811061189957fe5b6000918252602090912060079091020154815260038054849081106118ba57fe5b906000526020600020906007020160010154816020018181525050600383815481106118e257fe5b9060005260206000209060070201600201548160400181815250506003838154811061190a57fe5b60009182526020909120600360079092020181015460ff161515606083015280548490811061193557fe5b9060005260206000209060070201600401548160800181815250506003838154811061195d57fe5b600091825260209091206007909102016005015460a082015292915050565b60006114ed6010848154811061198e57fe5b600091825260208083206001600160a01b0387168452600460079093020191909101905260409020546119c18585610bca565b906127ba565b60006000198614156119dc57506000196119e8565b6119e586612443565b90505b6001600160a01b0388166000908152600c602090815260408083208054600181019091559051611a43927f6e71edae12b1b97f4d1f60370fef10105fa2faae0126114a169c64845d6126c9928d928d928d92918d9101613be4565b60405160208183030381529060405280519060200120905060007f000000000000000000000000000000000000000000000000000000000000000082604051602001611a90929190613b7d565b604051602081830303815290604052805190602001209050600060018288888860405160008152602001604052604051611acd9493929190613c3c565b6020604051602081039080840390855afa158015611aef573d6000803e3d6000fd5b5050604051601f1901519150506001600160a01b038116611b225760405162461bcd60e51b8152600401610b5390613cad565b8a6001600160a01b0316816001600160a01b031614611b535760405162461bcd60e51b8152600401610b5390613f0a565b87421115611b735760405162461bcd60e51b8152600401610b539061401d565b6001600160a01b038b81166000818152600760209081526040808320948f16808452949091529081902080546bffffffffffffffffffffffff19166001600160601b038916179055517f8c5be1e5ebec7d5bd14f71427d1e84f3dd0314c0f7b2291e5b200ac8c7c3b92590611be99088906140d8565b60405180910390a35050505050505050505050565b6001600160a01b0391821660009081526007602090815260408083209390941682529190915220546001600160601b031690565b6003548110611c535760405162461bcd60e51b8152600401610b5390613f78565b60038181548110611c6057fe5b600091825260208083203384526006600790930201919091019052604090205415611c9d5760405162461bcd60e51b8152600401610b5390613ce4565b60038181548110611caa57fe5b600091825260209091206003600790920201015460ff1615611cde5760405162461bcd60e51b8152600401610b5390613e65565b611d0e611cea33610dab565b60038381548110611cf757fe5b6000918252602090912060079091020154906127ca565b60038281548110611d1b57fe5b6000918252602090912060079091020155611d3533610dab565b60038281548110611d4257fe5b6000918252602080832033845260066007909302019190910190526040902055611d816002610f76611d7330610dab565b611d7b6107d2565b90612824565b60038281548110611d8e57fe5b9060005260206000209060070201600001541115610d0557611dae612881565b600160038281548110611dbd57fe5b906000526020600020906007020160030160006101000a81548160ff0219169083151502179055504260038281548110611df357fe5b600091825260208220600260079092020101919091556003805460018101808355928290529182908110611e2357fe5b6000918252602090912060016007909202010155600380546000198101919082908110611e4c57fe5b906000526020600020906007020160040181905550606460038281548110610aa557fe5b6000805b60105481101561112257611e888133612a7a565b91508115611f335760108181548110611e9d57fe5b60009182526020909120600790910201546040516323b872dd60e01b81526001600160a01b03909116906323b872dd90611edf90309033908790600401613bac565b602060405180830381600087803b158015611ef957600080fd5b505af1158015611f0d573d6000803e3d6000fd5b505050506040513d601f19601f82011682018060405250810190611f319190613ae4565b505b600101611e74565b7fe48329057bfd03d55e49b547132e39cffd9c1820ad7b9d4c5307691425d15adf81565b6003548110611f805760405162461bcd60e51b8152600401610b5390613f78565b600060038281548110611f8f57fe5b600091825260208083203384526006600790930201919091019052604090205411611fcc5760405162461bcd60e51b8152600401610b5390613f41565b336000908152600260205260409020546003805461200792919084908110611ff057fe5b600091825260209091206007909102015490612824565b6003828154811061201457fe5b600091825260208083206007909202909101929092553381526002909152604081205550565b600a60209081526000928352604080842090915290825290205463ffffffff81169064010000000090046001600160601b031682565b612078612548565b6001600160a01b03166120896113d3565b6001600160a01b0316146120e4576040805162461bcd60e51b815260206004820181905260248201527f4f776e61626c653a2063616c6c6572206973206e6f7420746865206f776e6572604482015290519081900360640190fd5b6001600160a01b0381166121295760405162461bcd60e51b81526004018080602001828103825260268152602001806141076026913960400191505060405180910390fd5b6013546040516001600160a01b038084169216907f8be0079c531659141344cd1fd0a4f28419497f9722a3daafe3b4186f6b6457e090600090a3601380546001600160a01b0319166001600160a01b0392909216919091179055565b7f000000000000000000000000000000000000000000000000000000000000000081565b60035460009082106121cd5760405162461bcd60e51b8152600401610b5390613f78565b600382815481106121da57fe5b600091825260208083203384526007929092029091016006019052604090205492915050565b6001600160a01b0382166122265760405162461bcd60e51b8152600401610b5390613fe6565b600061223182612443565b60065460408051808201909152601581527f6d696e7420616d6f756e74206f766572666c6f777300000000000000000000006020820152919250612282916001600160601b03909116908390612b3f565b600680546001600160601b039283166bffffffffffffffffffffffff19918216179091556001600160a01b03851660008181526008602052604080822080548087168801909616959094169490941790925591517fddf252ad1be2c89b69c2b068fc378daa952ba7f163c4a11628f55a4df523b3ef906123039085906140d8565b60405180910390a36001600160a01b03808416600090815260096020526040812054612330921683612b7b565b505050565b600082612344575060006107cc565b826000191480156123585750600160ff1b82145b156123945760405162461bcd60e51b81526004018080602001828103825260278152602001806141936027913960400191505060405180910390fd5b828202828482816123a157fe5b05146114ed5760405162461bcd60e51b81526004018080602001828103825260278152602001806141936027913960400191505060405180910390fd5b60008282018183128015906123f35750838112155b80612408575060008312801561240857508381125b6114ed5760405162461bcd60e51b815260040180806020018281038252602181526020018061412d6021913960400191505060405180910390fd5b60006c0100000000000000000000000082106124715760405162461bcd60e51b8152600401610b5390613d1b565b5090565b60008215806124905750508181028183828161248d57fe5b04145b6107cc57600080fd5b6000600160ff1b821061247157600080fd5b60008082121561247157600080fd5b6000836001600160601b0316836001600160601b0316111582906124f15760405162461bcd60e51b8152600401610b539190613c5a565b505050900390565b612504838383612d49565b6125188383836001600160601b03166130d3565b60005b6010548110156125425761253a818585856001600160601b0316613164565b60010161251b565b50505050565b3390565b6125568282613281565b61112282826133c7565b6001600160a01b03808316600081815260096020818152604080842080546008845282862054949093528787166001600160a01b031984168117909155905191909516946001600160601b039092169391928592917f3134e8a2e6d97e929a7e54011ea5485d7d196dd5f0ba4d4ef95803e8e3fc257f9190a4612542828483612b7b565b6000826125f3575060006107cc565b8282028284828161260057fe5b04146114ed5760405162461bcd60e51b81526004018080602001828103825260218152602001806141726021913960400191505060405180910390fd5b6000808211612693576040805162461bcd60e51b815260206004820152601a60248201527f536166654d6174683a206469766973696f6e206279207a65726f000000000000604482015290519081900360640190fd5b818381610cf357fe5b6001600160a01b0381166126f7576040805162461bcd60e51b815260206004820152600860248201527f4164647265737330000000000000000000000000000000000000000000000000604482015290519081900360640190fd5b6000805b60105481101561274957826001600160a01b03166010828154811061271c57fe5b60009182526020909120600790910201546001600160a01b0316141561274157600191505b6001016126fb565b508061275c576010805460010181556000525b60108054839190600019810190811061277157fe5b6000918252602090912060079091020180546001600160a01b0319166001600160a01b03929092169190911790555050565b6127ad8282612200565b61112282826000036133c7565b808203828111156107cc57600080fd5b6000828201838110156114ed576040805162461bcd60e51b815260206004820152601b60248201527f536166654d6174683a206164646974696f6e206f766572666c6f770000000000604482015290519081900360640190fd5b60008282111561287b576040805162461bcd60e51b815260206004820152601e60248201527f536166654d6174683a207375627472616374696f6e206f766572666c6f770000604482015290519081900360640190fd5b50900390565b6040516370a0823160e01b81526129929030906370a08231906128a8908390600401613b98565b60206040518083038186803b1580156128c057600080fd5b505afa1580156128d4573d6000803e3d6000fd5b505050506040513d601f19601f820116820180604052508101906128f89190613b1c565b611d7b601060008154811061290957fe5b906000526020600020906007020160060154306001600160a01b03166318160ddd6040518163ffffffff1660e01b815260040160206040518083038186803b15801561295457600080fd5b505afa158015612968573d6000803e3d6000fd5b505050506040513d601f19601f8201168201806040525081019061298c9190613b1c565b906127ca565b60115560005b601054811015610d05576000601082815481106129b157fe5b906000526020600020906007020160060154601083815481106129d057fe5b60009182526020909120600790910201546040516370a0823160e01b81526001600160a01b03909116906370a0823190612a0e903090600401613b98565b60206040518083038186803b158015612a2657600080fd5b505afa158015612a3a573d6000803e3d6000fd5b505050506040513d601f19601f82011682018060405250810190612a5e9190613b1c565b0390508015612a7157612a71828261341e565b50600101612998565b600080612a87848461197c565b90508015612b0657612acf8160108681548110612aa057fe5b600091825260208083206001600160a01b038916845260046007909302019190910190526040902054906135a8565b60108581548110612adc57fe5b600091825260208083206001600160a01b0388168452600460079093020191909101905260409020555b612b378160108681548110612b1757fe5b9060005260206000209060070201600501546135a890919063ffffffff16565b509392505050565b6000838301826001600160601b038087169083161015612b725760405162461bcd60e51b8152600401610b539190613c5a565b50949350505050565b816001600160a01b0316836001600160a01b031614158015612ba657506000816001600160601b0316115b15612330576001600160a01b03831615612c7c576001600160a01b0383166000908152600b602052604081205463ffffffff169081612be6576000612c26565b6001600160a01b0385166000908152600a60209081526040808320600019860163ffffffff16845290915290205464010000000090046001600160601b03165b90506000612c6a82856040518060400160405280601681526020017f766f746520616d6f756e7420756e646572666c6f7773000000000000000000008152506124ba565b9050612c78868484846135b8565b5050505b6001600160a01b03821615612330576001600160a01b0382166000908152600b602052604081205463ffffffff169081612cb7576000612cf7565b6001600160a01b0384166000908152600a60209081526040808320600019860163ffffffff16845290915290205464010000000090046001600160601b03165b90506000612d3b82856040518060400160405280601581526020017f766f746520616d6f756e74206f766572666c6f77730000000000000000000000815250612b3f565b9050611853858484846135b8565b6001600160a01b038316612d6f5760405162461bcd60e51b8152600401610b5390613d89565b6001600160a01b038216612d955760405162461bcd60e51b8152600401610b5390613dc0565b6001600160a01b038316600090815260086020908152604091829020548251808401909352601f83527f7472616e7366657220616d6f756e7420657863656564732062616c616e63650091830191909152612dfd916001600160601b039091169083906124ba565b6001600160a01b03848116600090815260086020908152604080832080546bffffffffffffffffffffffff19166001600160601b03968716179055928616825290829020548251808401909352601983527f7472616e7366657220616d6f756e74206f766572666c6f77730000000000000091830191909152612e839216908390612b3f565b6001600160a01b038381166000818152600860205260409081902080546bffffffffffffffffffffffff19166001600160601b0395909516949094179093559151908516907fddf252ad1be2c89b69c2b068fc378daa952ba7f163c4a11628f55a4df523b3ef90612ef59085906140d8565b60405180910390a36001600160a01b03808416600090815260096020526040808220548584168352912054612f2f92918216911683612b7b565b600354600090600a1115612f44576000612f4c565b600354600919015b90506000815b60035481101561185357600060038281548110612f6b57fe5b600091825260208083206001600160a01b038b16845260066007909302019190910190526040902054118015612fc2575060038181548110612fa957fe5b600091825260209091206003600790920201015460ff16155b156130cb5760038181548110612fd457fe5b600091825260208083206001600160a01b038a168452600660079093020191909101905260409020546001600160601b03851610613047576003818154811061301957fe5b600091825260208083206001600160a01b038a16845260066007909302019190910190526040902054613052565b836001600160601b03165b9150613094826003838154811061306557fe5b600091825260208083206001600160a01b038c1684526006600790930201919091019052604090205490612824565b600382815481106130a157fe5b600091825260208083206001600160a01b038b168452600660079093020191909101905260409020555b600101612f52565b60006130ed61085083600d5461247590919063ffffffff16565b6001600160a01b0385166000908152600e602052604090205490915061311390826123de565b6001600160a01b038086166000908152600e60205260408082209390935590851681522054613142908261378c565b6001600160a01b039093166000908152600e6020526040902092909255505050565b600061317a6108508360108881548110610ccc57fe5b90506131bc816010878154811061318d57fe5b600091825260208083206001600160a01b038a16845260036007909302019190910190526040902054906123de565b601086815481106131c957fe5b600091825260208083206001600160a01b038916845260036007909302019190910190526040902055601080546132359183918890811061320657fe5b600091825260208083206001600160a01b0389168452600360079093020191909101905260409020549061378c565b6010868154811061324257fe5b90600052602060002090600702016003016000856001600160a01b03166001600160a01b03168152602001908152602001600020819055505050505050565b6001600160a01b0382166132a75760405162461bcd60e51b8152600401610b5390613faf565b60006132b282612443565b6001600160a01b038416600090815260086020908152604091829020548251808401909352601b83527f6275726e20616d6f756e7420657863656564732062616c616e636500000000009183019190915291925061331b916001600160601b03169083906124ba565b6001600160a01b03841660008181526008602052604080822080546bffffffffffffffffffffffff199081166001600160601b0396871617909155600680549182169186168790039095161790935591517fddf252ad1be2c89b69c2b068fc378daa952ba7f163c4a11628f55a4df523b3ef906133999085906140d8565b60405180910390a36001600160a01b0380841660009081526009602052604081205461233092169083612b7b565b6133fe6133df600d548361233590919063ffffffff16565b6001600160a01b0384166000908152600e6020526040902054906123de565b6001600160a01b039092166000908152600e602052604090209190915550565b600061346f6010848154811061343057fe5b9060005260206000209060070201600101546010858154811061344f57fe5b90600052602060002090600702016002015461247590919063ffffffff16565b9050600061347d82846135a8565b905060006010858154811061348e57fe5b600091825260208083203084526003600790930201919091019052604090205413156134e357601084815481106134c157fe5b6000918252602080832030845260036007909302019190910190526040902054015b601154613500826fffffffffffffffffffffffffffffffff612475565b8161350757fe5b046010858154811061351557fe5b9060005260206000209060070201600101819055506011546010858154811061353a57fe5b906000526020600020906007020160020181905550613580836010868154811061356057fe5b9060005260206000209060070201600601546135a890919063ffffffff16565b6010858154811061358d57fe5b90600052602060002090600702016006018190555050505050565b808201828110156107cc57600080fd5b60006135f9436040518060400160405280601c81526020017f626c6f636b206e756d62657220657863656564732033322062697473000000008152506137f1565b905060008463ffffffff1611801561364257506001600160a01b0385166000908152600a6020908152604080832063ffffffff6000198901811685529252909120548282169116145b156136a2576001600160a01b0385166000908152600a60209081526040808320600019880163ffffffff168452909152902080546fffffffffffffffffffffffff0000000019166401000000006001600160601b03851602179055613742565b60408051808201825263ffffffff80841682526001600160601b0380861660208085019182526001600160a01b038b166000818152600a83528781208c871682528352878120965187549451909516640100000000026fffffffffffffffffffffffff000000001995871663ffffffff19958616179590951694909417909555938252600b90935292909220805460018801909316929091169190911790555b846001600160a01b03167fdec2bacdd2f05b59de34da9b523dff8be42e5e38e818c82fdb0bae774387a724848460405161377d9291906140ec565b60405180910390a25050505050565b60008183038183128015906137a15750838113155b806137b657506000831280156137b657508381135b6114ed5760405162461bcd60e51b81526004018080602001828103825260248152602001806141ba6024913960400191505060405180910390fd5b60008164010000000084106138195760405162461bcd60e51b8152600401610b539190613c5a565b509192915050565b6040518060c0016040528060008152602001600081526020016000815260200160001515815260200160008152602001600081525090565b80356001600160a01b038116811461086b57600080fd5b803560ff8116811461086b57600080fd5b600060208284031215613892578081fd5b6114ed82613859565b600080604083850312156138ad578081fd5b6138b683613859565b91506138c460208401613859565b90509250929050565b6000806000606084860312156138e1578081fd5b6138ea84613859565b92506138f860208501613859565b9150604084013590509250925092565b600080600080600080600060e0888a031215613922578283fd5b61392b88613859565b965061393960208901613859565b9550604088013594506060880135935061395560808901613870565b925060a0880135915060c0880135905092959891949750929550565b60008060408385031215613983578182fd5b61398c83613859565b946020939093013593505050565b60008060008060008060c087890312156139b2578182fd5b6139bb87613859565b955060208701359450604087013593506139d760608801613870565b92506080870135915060a087013590509295509295509295565b60008060408385031215613a03578182fd5b613a0c83613859565b9150602083013563ffffffff81168114613a24578182fd5b809150509250929050565b60006020808385031215613a41578182fd5b823567ffffffffffffffff80821115613a58578384fd5b818501915085601f830112613a6b578384fd5b813581811115613a7757fe5b83810260405185828201018181108582111715613a9057fe5b604052828152858101935084860182860187018a1015613aae578788fd5b8795505b83861015613ad757613ac381613859565b855260019590950194938601938601613ab2565b5098975050505050505050565b600060208284031215613af5578081fd5b815180151581146114ed578182fd5b600060208284031215613b15578081fd5b5035919050565b600060208284031215613b2d578081fd5b5051919050565b60008060408385031215613b46578182fd5b823591506138c460208401613859565b600060208284031215613b67578081fd5b81356001600160601b03811681146114ed578182fd5b61190160f01b81526002810192909252602282015260420190565b6001600160a01b0391909116815260200190565b6001600160a01b039384168152919092166020820152604081019190915260600190565b901515815260200190565b90815260200190565b9586526001600160a01b0394851660208701529290931660408501526060840152608083019190915260a082015260c00190565b9384526001600160a01b039290921660208401526040830152606082015260800190565b93845260ff9290921660208401526040830152606082015260800190565b6000602080835283518082850152825b81811015613c8657858101830151858201604001528201613c6a565b81811115613c975783604083870101525b50601f01601f1916929092016040019392505050565b60208082526011908201527f696e76616c6964207369676e6174757265000000000000000000000000000000604082015260600190565b6020808252600d908201527f416c726561647920566f74656400000000000000000000000000000000000000604082015260600190565b60208082526016908201527f616d6f756e742065786365656473203936206269747300000000000000000000604082015260600190565b6020808252600c908201527f6275726e42616c546f4c6f770000000000000000000000000000000000000000604082015260600190565b6020808252601e908201527f7472616e736665722066726f6d20746865207a65726f20616464726573730000604082015260600190565b6020808252601c908201527f7472616e7366657220746f20746865207a65726f206164647265737300000000604082015260600190565b60208082526012908201527f6e6f74207965742064657465726d696e65640000000000000000000000000000604082015260600190565b6020808252600d908201527f696e76616c6964206e6f6e636500000000000000000000000000000000000000604082015260600190565b6020808252600f908201527f416c726561647920506173736564200000000000000000000000000000000000604082015260600190565b6020808252600a908201527f4d696e7420416d74203000000000000000000000000000000000000000000000604082015260600190565b6020808252600a908201527f6275726e20416d74203000000000000000000000000000000000000000000000604082015260600190565b6020808252600c908201527f756e617574686f72697a65640000000000000000000000000000000000000000604082015260600190565b6020808252600f908201527f6469646e277420766f7465207965740000000000000000000000000000000000604082015260600190565b60208082526015908201527f70726f706f73616c20646f65736e742065786973740000000000000000000000604082015260600190565b6020808252601a908201527f6275726e2066726f6d20746865207a65726f2061646472657373000000000000604082015260600190565b60208082526018908201527f6d696e7420746f20746865207a65726f20616464726573730000000000000000604082015260600190565b60208082526011908201527f7369676e61747572652065787069726564000000000000000000000000000000604082015260600190565b600060c0820190508251825260208301516020830152604083015160408301526060830151151560608301526080830151608083015260a083015160a083015292915050565b63ffffffff91909116815260200190565b63ffffffff9290921682526001600160601b0316602082015260400190565b60ff91909116815260200190565b6001600160601b0391909116815260200190565b6001600160601b039283168152911660208201526040019056fe4f776e61626c653a206e6577206f776e657220697320746865207a65726f20616464726573735369676e6564536166654d6174683a206164646974696f6e206f766572666c6f777472616e7366657220616d6f756e74206578636565647320616c6c6f77616e6365207a7a536166654d6174683a206d756c7469706c69636174696f6e206f766572666c6f775369676e6564536166654d6174683a206d756c7469706c69636174696f6e206f766572666c6f775369676e6564536166654d6174683a207375627472616374696f6e206f766572666c6f77a164736f6c6343000706000a5369676e6564536166654d6174683a206164646974696f6e206f766572666c6f775369676e6564536166654d6174683a206d756c7469706c69636174696f6e206f766572666c6f77",
  "linkReferences": {},
  "deployedLinkReferences": {}
}