{
  "_format": "hh-sol-artifact-1",
  "contractName": "AVC20",
  "sourceName": "contracts/AVC20.sol",
  "abi": [
    {
      "inputs": [
        {
          "internalType": "string",
          "name": "name_",
          "type": "string"
        },
        {
          "internalType": "string",
          "name": "symbol_",
          "type": "string"
        }
      ],
      "stateMutability": "nonpayable",
      "type": "constructor"
    },
    {
      "anonymous": false,
      "inputs": [
        {
          "indexed": true,
          "internalType": "address",
          "name": "owner",
          "type": "address"
        },
        {
          "indexed": true,
          "internalType": "address",
          "name": "spender",
          "type": "address"
        },
        {
          "indexed": false,
          "internalType": "uint256",
          "name": "value",
          "type": "uint256"
        }
      ],
      "name": "Approval",
      "type": "event"
    },
    {
      "anonymous": false,
      "inputs": [
        {
          "indexed": true,
          "internalType": "address",
          "name": "delegator",
          "type": "address"
        },
        {
          "indexed": true,
          "internalType": "address",
          "name": "fromDelegate",
          "type": "address"
        },
        {
          "indexed": true,
          "internalType": "address",
          "name": "toDelegate",
          "type": "address"
        }
      ],
      "name": "DelegateChanged",
      "type": "event"
    },
    {
      "anonymous": false,
      "inputs": [
        {
          "indexed": true,
          "internalType": "address",
          "name": "delegate",
          "type": "address"
        },
        {
          "indexed": false,
          "internalType": "uint256",
          "name": "previousBalance",
          "type": "uint256"
        },
        {
          "indexed": false,
          "internalType": "uint256",
          "name": "newBalance",
          "type": "uint256"
        }
      ],
      "name": "DelegateVotesChanged",
      "type": "event"
    },
    {
      "anonymous": false,
      "inputs": [
        {
          "indexed": true,
          "internalType": "address",
          "name": "by",
          "type": "address"
        },
        {
          "indexed": false,
          "internalType": "uint256",
          "name": "dividendsDistributed",
          "type": "uint256"
        }
      ],
      "name": "DividendsDistributed",
      "type": "event"
    },
    {
      "anonymous": false,
      "inputs": [
        {
          "indexed": true,
          "internalType": "address",
          "name": "by",
          "type": "address"
        },
        {
          "indexed": false,
          "internalType": "uint256",
          "name": "fundsWithdrawn",
          "type": "uint256"
        }
      ],
      "name": "DividendsWithdrawn",
      "type": "event"
    },
    {
      "anonymous": false,
      "inputs": [
        {
          "indexed": true,
          "internalType": "address",
          "name": "previousOwner",
          "type": "address"
        },
        {
          "indexed": true,
          "internalType": "address",
          "name": "newOwner",
          "type": "address"
        }
      ],
      "name": "OwnershipTransferred",
      "type": "event"
    },
    {
      "anonymous": false,
      "inputs": [
        {
          "indexed": true,
          "internalType": "address",
          "name": "from",
          "type": "address"
        },
        {
          "indexed": true,
          "internalType": "address",
          "name": "to",
          "type": "address"
        },
        {
          "indexed": false,
          "internalType": "uint256",
          "name": "value",
          "type": "uint256"
        }
      ],
      "name": "Transfer",
      "type": "event"
    },
    {
      "inputs": [],
      "name": "DELEGATION_TYPEHASH",
      "outputs": [
        {
          "internalType": "bytes32",
          "name": "",
          "type": "bytes32"
        }
      ],
      "stateMutability": "view",
      "type": "function"
    },
    {
      "inputs": [],
      "name": "DOMAIN_TYPEHASH",
      "outputs": [
        {
          "internalType": "bytes32",
          "name": "",
          "type": "bytes32"
        }
      ],
      "stateMutability": "view",
      "type": "function"
    },
    {
      "inputs": [],
      "name": "PERMIT_TYPEHASH",
      "outputs": [
        {
          "internalType": "bytes32",
          "name": "",
          "type": "bytes32"
        }
      ],
      "stateMutability": "view",
      "type": "function"
    },
    {
      "inputs": [
        {
          "internalType": "address",
          "name": "addressToAdd",
          "type": "address"
        }
      ],
      "name": "addToTokenList",
      "outputs": [],
      "stateMutability": "nonpayable",
      "type": "function"
    },
    {
      "inputs": [
        {
          "internalType": "address[]",
          "name": "addresses",
          "type": "address[]"
        }
      ],
      "name": "addToTokensListArray",
      "outputs": [],
      "stateMutability": "nonpayable",
      "type": "function"
    },
    {
      "inputs": [
        {
          "internalType": "address",
          "name": "account",
          "type": "address"
        },
        {
          "internalType": "address",
          "name": "spender",
          "type": "address"
        }
      ],
      "name": "allowance",
      "outputs": [
        {
          "internalType": "uint256",
          "name": "",
          "type": "uint256"
        }
      ],
      "stateMutability": "view",
      "type": "function"
    },
    {
      "inputs": [
        {
          "internalType": "address",
          "name": "spender",
          "type": "address"
        },
        {
          "internalType": "uint256",
          "name": "rawAmount",
          "type": "uint256"
        }
      ],
      "name": "approve",
      "outputs": [
        {
          "internalType": "bool",
          "name": "",
          "type": "bool"
        }
      ],
      "stateMutability": "nonpayable",
      "type": "function"
    },
    {
      "inputs": [
        {
          "internalType": "address",
          "name": "account",
          "type": "address"
        }
      ],
      "name": "balanceOf",
      "outputs": [
        {
          "internalType": "uint256",
          "name": "",
          "type": "uint256"
        }
      ],
      "stateMutability": "view",
      "type": "function"
    },
    {
      "inputs": [
        {
          "internalType": "address",
          "name": "",
          "type": "address"
        },
        {
          "internalType": "uint32",
          "name": "",
          "type": "uint32"
        }
      ],
      "name": "checkpoints",
      "outputs": [
        {
          "internalType": "uint32",
          "name": "fromBlock",
          "type": "uint32"
        },
        {
          "internalType": "uint96",
          "name": "votes",
          "type": "uint96"
        }
      ],
      "stateMutability": "view",
      "type": "function"
    },
    {
      "inputs": [],
      "name": "collect",
      "outputs": [],
      "stateMutability": "nonpayable",
      "type": "function"
    },
    {
      "inputs": [
        {
          "internalType": "address",
          "name": "account",
          "type": "address"
        }
      ],
      "name": "cumulativeDividendsOf",
      "outputs": [
        {
          "internalType": "uint256",
          "name": "",
          "type": "uint256"
        }
      ],
      "stateMutability": "view",
      "type": "function"
    },
    {
      "inputs": [
        {
          "internalType": "uint256",
          "name": "i",
          "type": "uint256"
        },
        {
          "internalType": "address",
          "name": "account",
          "type": "address"
        }
      ],
      "name": "cumulativeDividendsOf",
      "outputs": [
        {
          "internalType": "uint256",
          "name": "",
          "type": "uint256"
        }
      ],
      "stateMutability": "view",
      "type": "function"
    },
    {
      "inputs": [],
      "name": "decimals",
      "outputs": [
        {
          "internalType": "uint8",
          "name": "",
          "type": "uint8"
        }
      ],
      "stateMutability": "view",
      "type": "function"
    },
    {
      "inputs": [
        {
          "internalType": "address",
          "name": "delegatee",
          "type": "address"
        }
      ],
      "name": "delegate",
      "outputs": [],
      "stateMutability": "nonpayable",
      "type": "function"
    },
    {
      "inputs": [
        {
          "internalType": "address",
          "name": "delegatee",
          "type": "address"
        },
        {
          "internalType": "uint256",
          "name": "nonce",
          "type": "uint256"
        },
        {
          "internalType": "uint256",
          "name": "expiry",
          "type": "uint256"
        },
        {
          "internalType": "uint8",
          "name": "v",
          "type": "uint8"
        },
        {
          "internalType": "bytes32",
          "name": "r",
          "type": "bytes32"
        },
        {
          "internalType": "bytes32",
          "name": "s",
          "type": "bytes32"
        }
      ],
      "name": "delegateBySig",
      "outputs": [],
      "stateMutability": "nonpayable",
      "type": "function"
    },
    {
      "inputs": [
        {
          "internalType": "address",
          "name": "",
          "type": "address"
        }
      ],
      "name": "delegates",
      "outputs": [
        {
          "internalType": "address",
          "name": "",
          "type": "address"
        }
      ],
      "stateMutability": "view",
      "type": "function"
    },
    {
      "inputs": [],
      "name": "distribute",
      "outputs": [],
      "stateMutability": "nonpayable",
      "type": "function"
    },
    {
      "inputs": [],
      "name": "domainSeparator",
      "outputs": [
        {
          "internalType": "bytes32",
          "name": "",
          "type": "bytes32"
        }
      ],
      "stateMutability": "view",
      "type": "function"
    },
    {
      "inputs": [
        {
          "internalType": "address",
          "name": "account",
          "type": "address"
        }
      ],
      "name": "getCurrentVotes",
      "outputs": [
        {
          "internalType": "uint96",
          "name": "",
          "type": "uint96"
        }
      ],
      "stateMutability": "view",
      "type": "function"
    },
    {
      "inputs": [
        {
          "internalType": "address",
          "name": "account",
          "type": "address"
        },
        {
          "internalType": "uint256",
          "name": "blockNumber",
          "type": "uint256"
        }
      ],
      "name": "getPriorVotes",
      "outputs": [
        {
          "internalType": "uint96",
          "name": "",
          "type": "uint96"
        }
      ],
      "stateMutability": "view",
      "type": "function"
    },
    {
      "inputs": [],
      "name": "getTokenDivLength",
      "outputs": [
        {
          "internalType": "uint256",
          "name": "",
          "type": "uint256"
        }
      ],
      "stateMutability": "view",
      "type": "function"
    },
    {
      "inputs": [],
      "name": "name",
      "outputs": [
        {
          "internalType": "string",
          "name": "",
          "type": "string"
        }
      ],
      "stateMutability": "view",
      "type": "function"
    },
    {
      "inputs": [
        {
          "internalType": "address",
          "name": "",
          "type": "address"
        }
      ],
      "name": "nonces",
      "outputs": [
        {
          "internalType": "uint256",
          "name": "",
          "type": "uint256"
        }
      ],
      "stateMutability": "view",
      "type": "function"
    },
    {
      "inputs": [
        {
          "internalType": "address",
          "name": "",
          "type": "address"
        }
      ],
      "name": "numCheckpoints",
      "outputs": [
        {
          "internalType": "uint32",
          "name": "",
          "type": "uint32"
        }
      ],
      "stateMutability": "view",
      "type": "function"
    },
    {
      "inputs": [],
      "name": "owner",
      "outputs": [
        {
          "internalType": "address",
          "name": "",
          "type": "address"
        }
      ],
      "stateMutability": "view",
      "type": "function"
    },
    {
      "inputs": [
        {
          "internalType": "address",
          "name": "owner",
          "type": "address"
        },
        {
          "internalType": "address",
          "name": "spender",
          "type": "address"
        },
        {
          "internalType": "uint256",
          "name": "rawAmount",
          "type": "uint256"
        },
        {
          "internalType": "uint256",
          "name": "deadline",
          "type": "uint256"
        },
        {
          "internalType": "uint8",
          "name": "v",
          "type": "uint8"
        },
        {
          "internalType": "bytes32",
          "name": "r",
          "type": "bytes32"
        },
        {
          "internalType": "bytes32",
          "name": "s",
          "type": "bytes32"
        }
      ],
      "name": "permit",
      "outputs": [],
      "stateMutability": "nonpayable",
      "type": "function"
    },
    {
      "inputs": [],
      "name": "pointsPerShare",
      "outputs": [
        {
          "internalType": "uint256",
          "name": "",
          "type": "uint256"
        }
      ],
      "stateMutability": "view",
      "type": "function"
    },
    {
      "inputs": [
        {
          "internalType": "uint96",
          "name": "amount",
          "type": "uint96"
        }
      ],
      "name": "redeem",
      "outputs": [],
      "stateMutability": "nonpayable",
      "type": "function"
    },
    {
      "inputs": [],
      "name": "renounceOwnership",
      "outputs": [],
      "stateMutability": "nonpayable",
      "type": "function"
    },
    {
      "inputs": [],
      "name": "symbol",
      "outputs": [
        {
          "internalType": "string",
          "name": "",
          "type": "string"
        }
      ],
      "stateMutability": "view",
      "type": "function"
    },
    {
      "inputs": [],
      "name": "totalSupply",
      "outputs": [
        {
          "internalType": "uint256",
          "name": "",
          "type": "uint256"
        }
      ],
      "stateMutability": "view",
      "type": "function"
    },
    {
      "inputs": [
        {
          "internalType": "address",
          "name": "dst",
          "type": "address"
        },
        {
          "internalType": "uint256",
          "name": "rawAmount",
          "type": "uint256"
        }
      ],
      "name": "transfer",
      "outputs": [
        {
          "internalType": "bool",
          "name": "",
          "type": "bool"
        }
      ],
      "stateMutability": "nonpayable",
      "type": "function"
    },
    {
      "inputs": [
        {
          "internalType": "address",
          "name": "src",
          "type": "address"
        },
        {
          "internalType": "address",
          "name": "dst",
          "type": "address"
        },
        {
          "internalType": "uint256",
          "name": "rawAmount",
          "type": "uint256"
        }
      ],
      "name": "transferFrom",
      "outputs": [
        {
          "internalType": "bool",
          "name": "",
          "type": "bool"
        }
      ],
      "stateMutability": "nonpayable",
      "type": "function"
    },
    {
      "inputs": [
        {
          "internalType": "address",
          "name": "newOwner",
          "type": "address"
        }
      ],
      "name": "transferOwnership",
      "outputs": [],
      "stateMutability": "nonpayable",
      "type": "function"
    },
    {
      "inputs": [
        {
          "internalType": "address",
          "name": "account",
          "type": "address"
        }
      ],
      "name": "withdrawableDividendsOf",
      "outputs": [
        {
          "internalType": "uint256",
          "name": "",
          "type": "uint256"
        }
      ],
      "stateMutability": "view",
      "type": "function"
    },
    {
      "inputs": [
        {
          "internalType": "uint256",
          "name": "i",
          "type": "uint256"
        },
        {
          "internalType": "address",
          "name": "account",
          "type": "address"
        }
      ],
      "name": "withdrawableDividendsOf",
      "outputs": [
        {
          "internalType": "uint256",
          "name": "",
          "type": "uint256"
        }
      ],
      "stateMutability": "view",
      "type": "function"
    },
    {
      "inputs": [
        {
          "internalType": "uint256",
          "name": "i",
          "type": "uint256"
        },
        {
          "internalType": "address",
          "name": "account",
          "type": "address"
        }
      ],
      "name": "withdrawableDividendsOf2",
      "outputs": [
        {
          "internalType": "uint256",
          "name": "",
          "type": "uint256"
        }
      ],
      "stateMutability": "view",
      "type": "function"
    },
    {
      "inputs": [
        {
          "internalType": "uint256",
          "name": "i",
          "type": "uint256"
        },
        {
          "internalType": "address",
          "name": "account",
          "type": "address"
        }
      ],
      "name": "withdrawnDividendsOf",
      "outputs": [
        {
          "internalType": "uint256",
          "name": "",
          "type": "uint256"
        }
      ],
      "stateMutability": "view",
      "type": "function"
    },
    {
      "inputs": [
        {
          "internalType": "address",
          "name": "account",
          "type": "address"
        }
      ],
      "name": "withdrawnDividendsOf",
      "outputs": [
        {
          "internalType": "uint256",
          "name": "",
          "type": "uint256"
        }
      ],
      "stateMutability": "view",
      "type": "function"
    }
  ],
  "bytecode": "0x60e06040523480156200001157600080fd5b5060405162003f3738038062003f37833981810160405260408110156200003757600080fd5b81019080805160405193929190846401000000008211156200005857600080fd5b9083019060208201858111156200006e57600080fd5b82516401000000008111828201881017156200008957600080fd5b82525081516020918201929091019080838360005b83811015620000b85781810151838201526020016200009e565b50505050905090810190601f168015620000e65780820380516001836020036101000a031916815260200191505b50604052602001805160405193929190846401000000008211156200010a57600080fd5b9083019060208201858111156200012057600080fd5b82516401000000008111828201881017156200013b57600080fd5b82525081516020918201929091019080838360005b838110156200016a57818101518382015260200162000150565b50505050905090810190601f168015620001985780820380516001836020036101000a031916815260200191505b506040525050508181620002e460201b62000e3a176200030860201b62000a541783838160009080519060200190620001d392919062000acf565b508051620001e990600190602084019062000acf565b50815160208301207f8cad95687ba82c2ce50e74f7b754645e5117c3a5bec8151c0726d5857980a866906200021d62000317565b3060405160200162000233949392919062000b71565b60408051601f19818403018152919052805160209091012060805250506001600160c01b031960c092831b811660a05290821b1690525060009050620002786200031b565b600d80546001600160a01b0319166001600160a01b038316908117909155604051919250906000907f8be0079c531659141344cd1fd0a4f28419497f9722a3daafe3b4186f6b6457e0908290a350620002dc3369d3c21bcecceda10000006200031f565b505062000c87565b6001600160a01b03166000908152600460205260409020546001600160601b031690565b6002546001600160601b031690565b4690565b3390565b6200033682826200034a60201b62001f1e1760201c565b620003468260008390036200048e565b5050565b6001600160a01b0382166200037c5760405162461bcd60e51b8152600401620003739062000c22565b60405180910390fd5b60006200038982620004fb565b60025460408051808201909152601581527f6d696e7420616d6f756e74206f766572666c6f777300000000000000000000006020820152919250620003dc916001600160601b0390911690839062000530565b600280546001600160601b039283166001600160601b0319918216179091556001600160a01b03851660008181526004602052604080822080548087168801909616959094169490941790925591517fddf252ad1be2c89b69c2b068fc378daa952ba7f163c4a11628f55a4df523b3ef906200045a90859062000c59565b60405180910390a36001600160a01b03808416600090815260056020526040812054620004899216836200056f565b505050565b620004db620004ae600954836200076160201b620020531790919060201c565b6001600160a01b0384166000908152600a60209081526040909120549190620020fc6200081b821b17901c565b6001600160a01b039092166000908152600a602052604090209190915550565b60006c0100000000000000000000000082106200052c5760405162461bcd60e51b8152600401620003739062000beb565b5090565b6000838301826001600160601b038087169083161015620005665760405162461bcd60e51b815260040162000373919062000b95565b50949350505050565b816001600160a01b0316836001600160a01b0316141580156200059b57506000816001600160601b0316115b1562000489576001600160a01b038316156200067f576001600160a01b03831660009081526007602052604081205463ffffffff169081620005df5760006200061f565b6001600160a01b0385166000908152600660209081526040808320600019860163ffffffff16845290915290205464010000000090046001600160601b03165b905060006200066b82856040518060400160405280601681526020017f766f746520616d6f756e7420756e646572666c6f7773000000000000000000008152506200088560201b60201c565b90506200067b86848484620008c7565b5050505b6001600160a01b0382161562000489576001600160a01b03821660009081526007602052604081205463ffffffff169081620006bd576000620006fd565b6001600160a01b0384166000908152600660209081526040808320600019860163ffffffff16845290915290205464010000000090046001600160601b03165b905060006200074982856040518060400160405280601581526020017f766f746520616d6f756e74206f766572666c6f777300000000000000000000008152506200053060201b60201c565b90506200075985848484620008c7565b505050505050565b600082620007725750600062000815565b82600019148015620007875750600160ff1b82145b15620007c55760405162461bcd60e51b815260040180806020018281038252602781526020018062003f106027913960400191505060405180910390fd5b82820282848281620007d357fe5b0514620008125760405162461bcd60e51b815260040180806020018281038252602781526020018062003f106027913960400191505060405180910390fd5b90505b92915050565b6000828201818312801590620008315750838112155b806200084857506000831280156200084857508381125b620008125760405162461bcd60e51b815260040180806020018281038252602181526020018062003eef6021913960400191505060405180910390fd5b6000836001600160601b0316836001600160601b031611158290620008bf5760405162461bcd60e51b815260040162000373919062000b95565b505050900390565b600062000910436040518060400160405280601c81526020017f626c6f636b206e756d626572206578636565647320333220626974730000000081525062000a9c60201b60201c565b905060008463ffffffff161180156200095a57506001600160a01b038516600090815260066020908152604080832063ffffffff6000198901811685529252909120548282169116145b15620009b6576001600160a01b0385166000908152600660209081526040808320600019880163ffffffff16845290915290208054600160201b600160801b0319166401000000006001600160601b0385160217905562000a50565b60408051808201825263ffffffff80841682526001600160601b0380861660208085019182526001600160a01b038b166000818152600683528781208c87168252835287812096518754945190951664010000000002600160201b600160801b031995871663ffffffff19958616179590951694909417909555938252600790935292909220805460018801909316929091169190911790555b846001600160a01b03167fdec2bacdd2f05b59de34da9b523dff8be42e5e38e818c82fdb0bae774387a724848460405162000a8d92919062000c6d565b60405180910390a25050505050565b600081640100000000841062000ac75760405162461bcd60e51b815260040162000373919062000b95565b509192915050565b828054600181600116156101000203166002900490600052602060002090601f01602090048101928262000b07576000855562000b52565b82601f1062000b2257805160ff191683800117855562000b52565b8280016001018555821562000b52579182015b8281111562000b5257825182559160200191906001019062000b35565b506200052c9291505b808211156200052c576000815560010162000b5b565b938452602084019290925260408301526001600160a01b0316606082015260800190565b6000602080835283518082850152825b8181101562000bc35785810183015185820160400152820162000ba5565b8181111562000bd55783604083870101525b50601f01601f1916929092016040019392505050565b60208082526016908201527f616d6f756e742065786365656473203936206269747300000000000000000000604082015260600190565b60208082526018908201527f6d696e7420746f20746865207a65726f20616464726573730000000000000000604082015260600190565b6001600160601b0391909116815260200190565b6001600160601b0392831681529116602082015260400190565b60805160a05160c01c60c05160c01c61323062000cbf6000395080610aa752508061167d52806118925280611efc52506132306000f3fe608060405234801561001057600080fd5b50600436106102ad5760003560e01c80637e245d791161017b578063c3cda520116100d8578063e52253811161008c578063f1127ed811610071578063f1127ed814610893578063f2fde38b146108ed578063f698da2514610913576102ad565b8063e522538114610883578063e7a324dc1461088b576102ad565b8063d505accf116100bd578063d505accf146107fc578063dd62ed3e1461084d578063e4fc6b6d1461087b576102ad565b8063c3cda52014610789578063c9017b1e146107d0576102ad565b806395d89b411161012f578063a9059cbb11610114578063a9059cbb14610711578063b131e6101461073d578063b4b5ea5714610763576102ad565b806395d89b41146106dd57806397d839f8146106e5576102ad565b80638ae7f4b0116101605780638ae7f4b01461060c5780638da5cb5b146106325780639308c6f21461063a576102ad565b80637e245d79146105de5780637ecebe00146105e6576102ad565b806349ad80bf116102295780636fcfff45116101dd578063715018a6116101c2578063715018a6146105685780637630c4a814610570578063782d6fe114610596576102ad565b80636fcfff451461050357806370a0823114610542576102ad565b8063587cde1e1161020e578063587cde1e1461046d5780635a9ed1e5146104af5780635c19a95c146104db576102ad565b806349ad80bf1461043f57806353f83ad714610447576102ad565b806320606b701161028057806330adf81f1161026557806330adf81f146103ed578063313ce567146103f55780633dbb287c14610413576102ad565b806320606b70146103af57806323b872dd146103b7576102ad565b806306fdde03146102b2578063095ea7b31461032f57806318160ddd1461036f5780631a60b63d14610389575b600080fd5b6102ba61091b565b6040805160208082528351818301528351919283929083019185019080838360005b838110156102f45781810151838201526020016102dc565b50505050905090810190601f1680156103215780820380516001836020036101000a031916815260200191505b509250505060405180910390f35b61035b6004803603604081101561034557600080fd5b506001600160a01b0381351690602001356109a9565b604080519115158252519081900360200190f35b610377610a54565b60408051918252519081900360200190f35b6103776004803603602081101561039f57600080fd5b50356001600160a01b0316610a63565b610377610af0565b61035b600480360360608110156103cd57600080fd5b506001600160a01b03813581169160208101359091169060400135610b14565b610377610c3f565b6103fd610c63565b6040805160ff9092168252519081900360200190f35b6103776004803603604081101561042957600080fd5b50803590602001356001600160a01b0316610c68565b610377610ca8565b6103776004803603602081101561045d57600080fd5b50356001600160a01b0316610cae565b6104936004803603602081101561048357600080fd5b50356001600160a01b0316610cc9565b604080516001600160a01b039092168252519081900360200190f35b610377600480360360408110156104c557600080fd5b50803590602001356001600160a01b0316610ce4565b610501600480360360208110156104f157600080fd5b50356001600160a01b0316610e15565b005b6105296004803603602081101561051957600080fd5b50356001600160a01b0316610e22565b6040805163ffffffff9092168252519081900360200190f35b6103776004803603602081101561055857600080fd5b50356001600160a01b0316610e3a565b610501610e5e565b6105016004803603602081101561058657600080fd5b50356001600160601b0316610f1c565b6105c2600480360360408110156105ac57600080fd5b506001600160a01b03813516906020013561119e565b604080516001600160601b039092168252519081900360200190f35b6103776113b3565b610377600480360360208110156105fc57600080fd5b50356001600160a01b03166113b9565b6105016004803603602081101561062257600080fd5b50356001600160a01b03166113cb565b610493611448565b6105016004803603602081101561065057600080fd5b81019060208101813564010000000081111561066b57600080fd5b82018360208201111561067d57600080fd5b8035906020019184602083028401116401000000008311171561069f57600080fd5b919080806020026020016040519081016040528093929190818152602001838360200280828437600092019190915250929550611457945050505050565b6102ba6114fb565b610377600480360360408110156106fb57600080fd5b50803590602001356001600160a01b0316611555565b61035b6004803603604081101561072757600080fd5b506001600160a01b038135169060200135611568565b6103776004803603602081101561075357600080fd5b50356001600160a01b031661158b565b6105c26004803603602081101561077957600080fd5b50356001600160a01b03166115b7565b610501600480360360c081101561079f57600080fd5b506001600160a01b038135169060208101359060408101359060ff6060820135169060808101359060a00135611628565b610377600480360360408110156107e657600080fd5b50803590602001356001600160a01b03166117b5565b610501600480360360e081101561081257600080fd5b506001600160a01b03813581169160208101359091169060408101359060608101359060ff6080820135169060a08101359060c001356117fa565b6103776004803603604081101561086357600080fd5b506001600160a01b0381358116916020013516611a31565b610501611a65565b610501611cc0565b610377611d8b565b6108c5600480360360408110156108a957600080fd5b5080356001600160a01b0316906020013563ffffffff16611daf565b6040805163ffffffff90931683526001600160601b0390911660208301528051918290030190f35b6105016004803603602081101561090357600080fd5b50356001600160a01b0316611de5565b610377611efa565b6000805460408051602060026001851615610100026000190190941693909304601f810184900484028201840190925281815292918301828280156109a15780601f10610976576101008083540402835291602001916109a1565b820191906000526020600020905b81548152906001019060200180831161098457829003601f168201915b505050505081565b6000806000198314156109bf57506000196109cb565b6109c883612161565b90505b3360008181526003602090815260408083206001600160a01b03891680855292529182902080546bffffffffffffffffffffffff19166001600160601b03861617905590519091907f8c5be1e5ebec7d5bd14f71427d1e84f3dd0314c0f7b2291e5b200ac8c7c3b92590610a4090859061311e565b60405180910390a360019150505b92915050565b6002546001600160601b031690565b6001600160a01b0381166000908152600a60205260408120546fffffffffffffffffffffffffffffffff90610ae290610add90610ad7610ad2610ac98863ffffffff7f000000000000000000000000000000000000000000000000000000000000000016565b60095490612193565b6121b7565b906120fc565b6121c9565b81610ae957fe5b0492915050565b7f8cad95687ba82c2ce50e74f7b754645e5117c3a5bec8151c0726d5857980a86681565b6001600160a01b03831660009081526003602090815260408083203380855292528220546001600160601b031682610b4b85612161565b9050866001600160a01b0316836001600160a01b031614158015610b7857506001600160601b0382811614155b15610c27576000610ba28383604051806060016040528060248152602001613194602491396121d8565b6001600160a01b038981166000818152600360209081526040808320948a16808452949091529081902080546bffffffffffffffffffffffff19166001600160601b0386161790555192935090917f8c5be1e5ebec7d5bd14f71427d1e84f3dd0314c0f7b2291e5b200ac8c7c3b92590610c1d90859061311e565b60405180910390a3505b610c32878783612217565b5060019695505050505050565b7f6e71edae12b1b97f4d1f60370fef10105fa2faae0126114a169c64845d6126c981565b601281565b6000600c8381548110610c7757fe5b600091825260208083206001600160a01b038616845260046006909302019190910190526040902054905092915050565b600c5490565b6001600160a01b03166000908152600b602052604090205490565b6005602052600090815260409020546001600160a01b031681565b60006fffffffffffffffffffffffffffffffff8016610e06610add600c8681548110610d0c57fe5b90600052602060002090600602016003016000866001600160a01b03166001600160a01b0316815260200190815260200160002054610ad7610ad2600c8981548110610d5457fe5b600091825260209182902060069091020154604080516370a0823160e01b81526001600160a01b038c81166004830152915191909216926370a082319260248082019391829003018186803b158015610dac57600080fd5b505afa158015610dc0573d6000803e3d6000fd5b505050506040513d6020811015610dd657600080fd5b5051600c80548b908110610de657fe5b90600052602060002090600602016001015461219390919063ffffffff16565b81610e0d57fe5b049392505050565b610e1f3382612236565b50565b60076020526000908152604090205463ffffffff1681565b6001600160a01b03166000908152600460205260409020546001600160601b031690565b610e666122c0565b6001600160a01b0316610e77611448565b6001600160a01b031614610ed2576040805162461bcd60e51b815260206004820181905260248201527f4f776e61626c653a2063616c6c6572206973206e6f7420746865206f776e6572604482015290519081900360640190fd5b600d546040516000916001600160a01b0316907f8be0079c531659141344cd1fd0a4f28419497f9722a3daafe3b4186f6b6457e0908390a3600d80546001600160a01b0319169055565b6000306001600160a01b03166318160ddd6040518163ffffffff1660e01b815260040160206040518083038186803b158015610f5757600080fd5b505afa158015610f6b573d6000803e3d6000fd5b505050506040513d6020811015610f8157600080fd5b5051905060005b600c5481101561118e576000610fff6fffffffffffffffffffffffffffffffff8016610ff9600c8581548110610fba57fe5b906000526020600020906006020160020154600c8681548110610fd957fe5b9060005260206000209060060201600101546122c490919063ffffffff16565b9061231d565b90506000600c838154811061101057fe5b600091825260209182902060069091020154604080516370a0823160e01b815230600482015290516001600160a01b03909216926370a0823192602480840193829003018186803b15801561106457600080fd5b505afa158015611078573d6000803e3d6000fd5b505050506040513d602081101561108e57600080fd5b5051600c8054919250600091859081106110a457fe5b600091825260208220600560069092020101548484030191506110d486610ff9846001600160601b038b166122c4565b9050801561117f57600c85815481106110e957fe5b60009182526020808320600690920290910154604080516323b872dd60e01b81523060048201523360248201526044810186905290516001600160a01b03909216936323b872dd9360648084019491939192918390030190829087803b15801561115257600080fd5b505af1158015611166573d6000803e3d6000fd5b505050506040513d602081101561117c57600080fd5b50505b50505050806001019050610f88565b5061119a333084612217565b5050565b60004382106111c85760405162461bcd60e51b81526004016111bf9061300b565b60405180910390fd5b6001600160a01b03831660009081526007602052604090205463ffffffff16806111f6576000915050610a4e565b6001600160a01b038416600090815260066020908152604080832063ffffffff600019860181168552925290912054168310611273576001600160a01b03841660009081526006602090815260408083206000199490940163ffffffff168352929052205464010000000090046001600160601b03169050610a4e565b6001600160a01b038416600090815260066020908152604080832083805290915290205463ffffffff168310156112ae576000915050610a4e565b600060001982015b8163ffffffff168163ffffffff16111561136d576000600263ffffffff848403166001600160a01b038916600090815260066020908152604080832094909304860363ffffffff8181168452948252918390208351808501909452549384168084526401000000009094046001600160601b03169083015292509087141561134857602001519450610a4e9350505050565b805163ffffffff1687111561135f57819350611366565b6001820392505b50506112b6565b506001600160a01b038516600090815260066020908152604080832063ffffffff909416835292905220546001600160601b036401000000009091041691505092915050565b60095481565b60086020526000908152604090205481565b6113d36122c0565b6001600160a01b03166113e4611448565b6001600160a01b03161461143f576040805162461bcd60e51b815260206004820181905260248201527f4f776e61626c653a2063616c6c6572206973206e6f7420746865206f776e6572604482015290519081900360640190fd5b610e1f8161237c565b600d546001600160a01b031690565b61145f6122c0565b6001600160a01b0316611470611448565b6001600160a01b0316146114cb576040805162461bcd60e51b815260206004820181905260248201527f4f776e61626c653a2063616c6c6572206973206e6f7420746865206f776e6572604482015290519081900360640190fd5b60005b815181101561119a576114f38282815181106114e657fe5b602002602001015161237c565b6001016114ce565b60018054604080516020600284861615610100026000190190941693909304601f810184900484028201840190925281815292918301828280156109a15780601f10610976576101008083540402835291602001916109a1565b600061156183836117b5565b9392505050565b60008061157483612161565b9050611581338583612217565b5060019392505050565b6001600160a01b0381166000908152600b6020526040812054610a4e906115b184610a63565b90612483565b6001600160a01b03811660009081526007602052604081205463ffffffff16806115e2576000611561565b6001600160a01b0383166000908152600660209081526040808320600019850163ffffffff16845290915290205464010000000090046001600160601b03169392505050565b60007fe48329057bfd03d55e49b547132e39cffd9c1820ad7b9d4c5307691425d15adf8787876040516020016116619493929190612e9a565b60405160208183030381529060405280519060200120905060007f0000000000000000000000000000000000000000000000000000000000000000826040516020016116ae929190612e4b565b6040516020818303038152906040528051906020012090506000600182878787604051600081526020016040526040516116eb9493929190612ebe565b6020604051602081039080840390855afa15801561170d573d6000803e3d6000fd5b5050604051601f1901519150506001600160a01b0381166117405760405162461bcd60e51b81526004016111bf90612f2f565b6001600160a01b0381166000908152600860205260409020805460018101909155881461177f5760405162461bcd60e51b81526004016111bf90613042565b8642111561179f5760405162461bcd60e51b81526004016111bf906130e7565b6117a9818a612236565b5050505b505050505050565b6000611561600c84815481106117c757fe5b600091825260208083206001600160a01b0387168452600460069093020191909101905260409020546115b18585610ce4565b600060001986141561180f575060001961181b565b61181886612161565b90505b6001600160a01b03881660009081526008602090815260408083208054600181019091559051611876927f6e71edae12b1b97f4d1f60370fef10105fa2faae0126114a169c64845d6126c9928d928d928d92918d9101612e66565b60405160208183030381529060405280519060200120905060007f0000000000000000000000000000000000000000000000000000000000000000826040516020016118c3929190612e4b565b6040516020818303038152906040528051906020012090506000600182888888604051600081526020016040526040516119009493929190612ebe565b6020604051602081039080840390855afa158015611922573d6000803e3d6000fd5b5050604051601f1901519150506001600160a01b0381166119555760405162461bcd60e51b81526004016111bf90612f2f565b8a6001600160a01b0316816001600160a01b0316146119865760405162461bcd60e51b81526004016111bf90613079565b874211156119a65760405162461bcd60e51b81526004016111bf906130e7565b6001600160a01b038b81166000818152600360209081526040808320948f16808452949091529081902080546bffffffffffffffffffffffff19166001600160601b038916179055517f8c5be1e5ebec7d5bd14f71427d1e84f3dd0314c0f7b2291e5b200ac8c7c3b92590611a1c90889061311e565b60405180910390a35050505050505050505050565b6001600160a01b0391821660009081526003602090815260408083209390941682529190915220546001600160601b031690565b611a6d6122c0565b6001600160a01b0316611a7e611448565b6001600160a01b031614611ad9576040805162461bcd60e51b815260206004820181905260248201527f4f776e61626c653a2063616c6c6572206973206e6f7420746865206f776e6572604482015290519081900360640190fd5b604080516370a0823160e01b815230600482018190529151600092916370a08231916024808301926020929190829003018186803b158015611b1a57600080fd5b505afa158015611b2e573d6000803e3d6000fd5b505050506040513d6020811015611b4457600080fd5b5051604080516318160ddd60e01b8152905130916318160ddd916004808301926020929190829003018186803b158015611b7d57600080fd5b505afa158015611b91573d6000803e3d6000fd5b505050506040513d6020811015611ba757600080fd5b505103905060005b600c5481101561119a576000611be26fffffffffffffffffffffffffffffffff8016610ff985600c8681548110610fd957fe5b90506000600c8381548110611bf357fe5b600091825260209182902060069091020154604080516370a0823160e01b815230600482015290516001600160a01b03909216926370a0823192602480840193829003018186803b158015611c4757600080fd5b505afa158015611c5b573d6000803e3d6000fd5b505050506040513d6020811015611c7157600080fd5b5051600c805491925060009185908110611c8757fe5b9060005260206000209060060201600501548383030190506000811115611cb257611cb28482612493565b505050806001019050611baf565b6000805b600c5481101561119a57611cd8813361268c565b91508115611d8357600c8181548110611ced57fe5b60009182526020808320600690920290910154604080516323b872dd60e01b81523060048201523360248201526044810187905290516001600160a01b03909216936323b872dd9360648084019491939192918390030190829087803b158015611d5657600080fd5b505af1158015611d6a573d6000803e3d6000fd5b505050506040513d6020811015611d8057600080fd5b50505b600101611cc4565b7fe48329057bfd03d55e49b547132e39cffd9c1820ad7b9d4c5307691425d15adf81565b600660209081526000928352604080842090915290825290205463ffffffff81169064010000000090046001600160601b031682565b611ded6122c0565b6001600160a01b0316611dfe611448565b6001600160a01b031614611e59576040805162461bcd60e51b815260206004820181905260248201527f4f776e61626c653a2063616c6c6572206973206e6f7420746865206f776e6572604482015290519081900360640190fd5b6001600160a01b038116611e9e5760405162461bcd60e51b815260040180806020018281038252602681526020018061314d6026913960400191505060405180910390fd5b600d546040516001600160a01b038084169216907f8be0079c531659141344cd1fd0a4f28419497f9722a3daafe3b4186f6b6457e090600090a3600d80546001600160a01b0319166001600160a01b0392909216919091179055565b7f000000000000000000000000000000000000000000000000000000000000000081565b6001600160a01b038216611f445760405162461bcd60e51b81526004016111bf906130b0565b6000611f4f82612161565b60025460408051808201909152601581527f6d696e7420616d6f756e74206f766572666c6f777300000000000000000000006020820152919250611fa0916001600160601b03909116908390612751565b600280546001600160601b039283166bffffffffffffffffffffffff19918216179091556001600160a01b03851660008181526004602052604080822080548087168801909616959094169490941790925591517fddf252ad1be2c89b69c2b068fc378daa952ba7f163c4a11628f55a4df523b3ef9061202190859061311e565b60405180910390a36001600160a01b0380841660009081526005602052604081205461204e92168361278d565b505050565b60008261206257506000610a4e565b826000191480156120765750600160ff1b82145b156120b25760405162461bcd60e51b81526004018080602001828103825260278152602001806131d96027913960400191505060405180910390fd5b828202828482816120bf57fe5b05146115615760405162461bcd60e51b81526004018080602001828103825260278152602001806131d96027913960400191505060405180910390fd5b60008282018183128015906121115750838112155b80612126575060008312801561212657508381125b6115615760405162461bcd60e51b81526004018080602001828103825260218152602001806131736021913960400191505060405180910390fd5b60006c01000000000000000000000000821061218f5760405162461bcd60e51b81526004016111bf90612f66565b5090565b60008215806121ae575050818102818382816121ab57fe5b04145b610a4e57600080fd5b6000600160ff1b821061218f57600080fd5b60008082121561218f57600080fd5b6000836001600160601b0316836001600160601b03161115829061220f5760405162461bcd60e51b81526004016111bf9190612edc565b505050900390565b61222283838361295b565b61204e8383836001600160601b0316612b41565b6001600160a01b03808316600081815260056020818152604080842080546004845282862054949093528787166001600160a01b031984168117909155905191909516946001600160601b039092169391928592917f3134e8a2e6d97e929a7e54011ea5485d7d196dd5f0ba4d4ef95803e8e3fc257f9190a46122ba82848361278d565b50505050565b3390565b6000826122d357506000610a4e565b828202828482816122e057fe5b04146115615760405162461bcd60e51b81526004018080602001828103825260218152602001806131b86021913960400191505060405180910390fd5b6000808211612373576040805162461bcd60e51b815260206004820152601a60248201527f536166654d6174683a206469766973696f6e206279207a65726f000000000000604482015290519081900360640190fd5b818381610e0d57fe5b6001600160a01b0381166123d7576040805162461bcd60e51b815260206004820152600860248201527f4164647265737330000000000000000000000000000000000000000000000000604482015290519081900360640190fd5b6000805b600c5481101561242957826001600160a01b0316600c82815481106123fc57fe5b60009182526020909120600690910201546001600160a01b0316141561242157600191505b6001016123db565b508061243c57600c805460010181556000525b600c8054839190600019810190811061245157fe5b6000918252602090912060069091020180546001600160a01b0319166001600160a01b03929092169190911790555050565b80820382811115610a4e57600080fd5b60006125b3600c84815481106124a557fe5b600091825260209182902060069091020154604080516370a0823160e01b815230600482015290516001600160a01b03909216926370a0823192602480840193829003018186803b1580156124f957600080fd5b505afa15801561250d573d6000803e3d6000fd5b505050506040513d602081101561252357600080fd5b5051600c80548690811061253357fe5b600091825260209182902060069091020154604080516318160ddd60e01b815290516001600160a01b03909216926318160ddd92600480840193829003018186803b15801561258157600080fd5b505afa158015612595573d6000803e3d6000fd5b505050506040513d60208110156125ab57600080fd5b505190612483565b90506000612606600c85815481106125c757fe5b906000526020600020906006020160010154600c86815481106125e657fe5b90600052602060002090600602016002015461219390919063ffffffff16565b905060006126148285612bd2565b905082156126855782612637826fffffffffffffffffffffffffffffffff612193565b8161263e57fe5b04600c868154811061264c57fe5b90600052602060002090600602016001018190555082600c868154811061266f57fe5b9060005260206000209060060201600201819055505b5050505050565b60008061269984846117b5565b90508015612718576126e181600c86815481106126b257fe5b600091825260208083206001600160a01b03891684526004600690930201919091019052604090205490612bd2565b600c85815481106126ee57fe5b600091825260208083206001600160a01b0388168452600460069093020191909101905260409020555b61274981600c868154811061272957fe5b906000526020600020906006020160050154612bd290919063ffffffff16565b509392505050565b6000838301826001600160601b0380871690831610156127845760405162461bcd60e51b81526004016111bf9190612edc565b50949350505050565b816001600160a01b0316836001600160a01b0316141580156127b857506000816001600160601b0316115b1561204e576001600160a01b0383161561288e576001600160a01b03831660009081526007602052604081205463ffffffff1690816127f8576000612838565b6001600160a01b0385166000908152600660209081526040808320600019860163ffffffff16845290915290205464010000000090046001600160601b03165b9050600061287c82856040518060400160405280601681526020017f766f746520616d6f756e7420756e646572666c6f7773000000000000000000008152506121d8565b905061288a86848484612be2565b5050505b6001600160a01b0382161561204e576001600160a01b03821660009081526007602052604081205463ffffffff1690816128c9576000612909565b6001600160a01b0384166000908152600660209081526040808320600019860163ffffffff16845290915290205464010000000090046001600160601b03165b9050600061294d82856040518060400160405280601581526020017f766f746520616d6f756e74206f766572666c6f77730000000000000000000000815250612751565b90506117ad85848484612be2565b6001600160a01b0383166129815760405162461bcd60e51b81526004016111bf90612f9d565b6001600160a01b0382166129a75760405162461bcd60e51b81526004016111bf90612fd4565b6001600160a01b038316600090815260046020908152604091829020548251808401909352601f83527f7472616e7366657220616d6f756e7420657863656564732062616c616e63650091830191909152612a0f916001600160601b039091169083906121d8565b6001600160a01b03848116600090815260046020908152604080832080546bffffffffffffffffffffffff19166001600160601b03968716179055928616825290829020548251808401909352601983527f7472616e7366657220616d6f756e74206f766572666c6f77730000000000000091830191909152612a959216908390612751565b6001600160a01b038381166000818152600460205260409081902080546bffffffffffffffffffffffff19166001600160601b0395909516949094179093559151908516907fddf252ad1be2c89b69c2b068fc378daa952ba7f163c4a11628f55a4df523b3ef90612b0790859061311e565b60405180910390a36001600160a01b0380841660009081526005602052604080822054858416835291205461204e9291821691168361278d565b6000612b5b610ad28360095461219390919063ffffffff16565b6001600160a01b0385166000908152600a6020526040902054909150612b8190826120fc565b6001600160a01b038086166000908152600a60205260408082209390935590851681522054612bb09082612db6565b6001600160a01b039093166000908152600a6020526040902092909255505050565b80820182811015610a4e57600080fd5b6000612c23436040518060400160405280601c81526020017f626c6f636b206e756d6265722065786365656473203332206269747300000000815250612e1b565b905060008463ffffffff16118015612c6c57506001600160a01b038516600090815260066020908152604080832063ffffffff6000198901811685529252909120548282169116145b15612ccc576001600160a01b0385166000908152600660209081526040808320600019880163ffffffff168452909152902080546fffffffffffffffffffffffff0000000019166401000000006001600160601b03851602179055612d6c565b60408051808201825263ffffffff80841682526001600160601b0380861660208085019182526001600160a01b038b166000818152600683528781208c871682528352878120965187549451909516640100000000026fffffffffffffffffffffffff000000001995871663ffffffff19958616179590951694909417909555938252600790935292909220805460018801909316929091169190911790555b846001600160a01b03167fdec2bacdd2f05b59de34da9b523dff8be42e5e38e818c82fdb0bae774387a7248484604051612da7929190613132565b60405180910390a25050505050565b6000818303818312801590612dcb5750838113155b80612de05750600083128015612de057508381135b6115615760405162461bcd60e51b81526004018080602001828103825260248152602001806132006024913960400191505060405180910390fd5b6000816401000000008410612e435760405162461bcd60e51b81526004016111bf9190612edc565b509192915050565b61190160f01b81526002810192909252602282015260420190565b9586526001600160a01b0394851660208701529290931660408501526060840152608083019190915260a082015260c00190565b9384526001600160a01b039290921660208401526040830152606082015260800190565b93845260ff9290921660208401526040830152606082015260800190565b6000602080835283518082850152825b81811015612f0857858101830151858201604001528201612eec565b81811115612f195783604083870101525b50601f01601f1916929092016040019392505050565b60208082526011908201527f696e76616c6964207369676e6174757265000000000000000000000000000000604082015260600190565b60208082526016908201527f616d6f756e742065786365656473203936206269747300000000000000000000604082015260600190565b6020808252601e908201527f7472616e736665722066726f6d20746865207a65726f20616464726573730000604082015260600190565b6020808252601c908201527f7472616e7366657220746f20746865207a65726f206164647265737300000000604082015260600190565b60208082526012908201527f6e6f74207965742064657465726d696e65640000000000000000000000000000604082015260600190565b6020808252600d908201527f696e76616c6964206e6f6e636500000000000000000000000000000000000000604082015260600190565b6020808252600c908201527f756e617574686f72697a65640000000000000000000000000000000000000000604082015260600190565b60208082526018908201527f6d696e7420746f20746865207a65726f20616464726573730000000000000000604082015260600190565b60208082526011908201527f7369676e61747572652065787069726564000000000000000000000000000000604082015260600190565b6001600160601b0391909116815260200190565b6001600160601b039283168152911660208201526040019056fe4f776e61626c653a206e6577206f776e657220697320746865207a65726f20616464726573735369676e6564536166654d6174683a206164646974696f6e206f766572666c6f777472616e7366657220616d6f756e74206578636565647320616c6c6f77616e6365207a7a536166654d6174683a206d756c7469706c69636174696f6e206f766572666c6f775369676e6564536166654d6174683a206d756c7469706c69636174696f6e206f766572666c6f775369676e6564536166654d6174683a207375627472616374696f6e206f766572666c6f77a164736f6c6343000706000a5369676e6564536166654d6174683a206164646974696f6e206f766572666c6f775369676e6564536166654d6174683a206d756c7469706c69636174696f6e206f766572666c6f77",
  "linkReferences": {},
  "deployedLinkReferences": {}
}