{
  "_format": "hh-sol-artifact-1",
  "contractName": "AVC20",
  "sourceName": "contracts/AVC20.sol",
  "abi": [
    {
      "inputs": [
        {
          "internalType": "string",
          "name": "name_",
          "type": "string"
        },
        {
          "internalType": "string",
          "name": "symbol_",
          "type": "string"
        }
      ],
      "stateMutability": "nonpayable",
      "type": "constructor"
    },
    {
      "anonymous": false,
      "inputs": [
        {
          "indexed": true,
          "internalType": "address",
          "name": "owner",
          "type": "address"
        },
        {
          "indexed": true,
          "internalType": "address",
          "name": "spender",
          "type": "address"
        },
        {
          "indexed": false,
          "internalType": "uint256",
          "name": "value",
          "type": "uint256"
        }
      ],
      "name": "Approval",
      "type": "event"
    },
    {
      "anonymous": false,
      "inputs": [
        {
          "indexed": true,
          "internalType": "address",
          "name": "delegator",
          "type": "address"
        },
        {
          "indexed": true,
          "internalType": "address",
          "name": "fromDelegate",
          "type": "address"
        },
        {
          "indexed": true,
          "internalType": "address",
          "name": "toDelegate",
          "type": "address"
        }
      ],
      "name": "DelegateChanged",
      "type": "event"
    },
    {
      "anonymous": false,
      "inputs": [
        {
          "indexed": true,
          "internalType": "address",
          "name": "delegate",
          "type": "address"
        },
        {
          "indexed": false,
          "internalType": "uint256",
          "name": "previousBalance",
          "type": "uint256"
        },
        {
          "indexed": false,
          "internalType": "uint256",
          "name": "newBalance",
          "type": "uint256"
        }
      ],
      "name": "DelegateVotesChanged",
      "type": "event"
    },
    {
      "anonymous": false,
      "inputs": [
        {
          "indexed": true,
          "internalType": "address",
          "name": "by",
          "type": "address"
        },
        {
          "indexed": false,
          "internalType": "uint256",
          "name": "dividendsDistributed",
          "type": "uint256"
        }
      ],
      "name": "DividendsDistributed",
      "type": "event"
    },
    {
      "anonymous": false,
      "inputs": [
        {
          "indexed": true,
          "internalType": "address",
          "name": "by",
          "type": "address"
        },
        {
          "indexed": false,
          "internalType": "uint256",
          "name": "fundsWithdrawn",
          "type": "uint256"
        }
      ],
      "name": "DividendsWithdrawn",
      "type": "event"
    },
    {
      "anonymous": false,
      "inputs": [
        {
          "indexed": true,
          "internalType": "address",
          "name": "previousOwner",
          "type": "address"
        },
        {
          "indexed": true,
          "internalType": "address",
          "name": "newOwner",
          "type": "address"
        }
      ],
      "name": "OwnershipTransferred",
      "type": "event"
    },
    {
      "anonymous": false,
      "inputs": [
        {
          "indexed": true,
          "internalType": "address",
          "name": "from",
          "type": "address"
        },
        {
          "indexed": true,
          "internalType": "address",
          "name": "to",
          "type": "address"
        },
        {
          "indexed": false,
          "internalType": "uint256",
          "name": "value",
          "type": "uint256"
        }
      ],
      "name": "Transfer",
      "type": "event"
    },
    {
      "inputs": [],
      "name": "DELEGATION_TYPEHASH",
      "outputs": [
        {
          "internalType": "bytes32",
          "name": "",
          "type": "bytes32"
        }
      ],
      "stateMutability": "view",
      "type": "function"
    },
    {
      "inputs": [],
      "name": "DOMAIN_TYPEHASH",
      "outputs": [
        {
          "internalType": "bytes32",
          "name": "",
          "type": "bytes32"
        }
      ],
      "stateMutability": "view",
      "type": "function"
    },
    {
      "inputs": [],
      "name": "PERMIT_TYPEHASH",
      "outputs": [
        {
          "internalType": "bytes32",
          "name": "",
          "type": "bytes32"
        }
      ],
      "stateMutability": "view",
      "type": "function"
    },
    {
      "inputs": [
        {
          "internalType": "address",
          "name": "addressToAdd",
          "type": "address"
        }
      ],
      "name": "addToTokenList",
      "outputs": [],
      "stateMutability": "nonpayable",
      "type": "function"
    },
    {
      "inputs": [
        {
          "internalType": "address[]",
          "name": "addresses",
          "type": "address[]"
        }
      ],
      "name": "addToTokensListArray",
      "outputs": [],
      "stateMutability": "nonpayable",
      "type": "function"
    },
    {
      "inputs": [
        {
          "internalType": "address",
          "name": "account",
          "type": "address"
        },
        {
          "internalType": "address",
          "name": "spender",
          "type": "address"
        }
      ],
      "name": "allowance",
      "outputs": [
        {
          "internalType": "uint256",
          "name": "",
          "type": "uint256"
        }
      ],
      "stateMutability": "view",
      "type": "function"
    },
    {
      "inputs": [
        {
          "internalType": "address",
          "name": "spender",
          "type": "address"
        },
        {
          "internalType": "uint256",
          "name": "rawAmount",
          "type": "uint256"
        }
      ],
      "name": "approve",
      "outputs": [
        {
          "internalType": "bool",
          "name": "",
          "type": "bool"
        }
      ],
      "stateMutability": "nonpayable",
      "type": "function"
    },
    {
      "inputs": [
        {
          "internalType": "address",
          "name": "account",
          "type": "address"
        }
      ],
      "name": "balanceOf",
      "outputs": [
        {
          "internalType": "uint256",
          "name": "",
          "type": "uint256"
        }
      ],
      "stateMutability": "view",
      "type": "function"
    },
    {
      "inputs": [
        {
          "internalType": "address",
          "name": "",
          "type": "address"
        },
        {
          "internalType": "uint32",
          "name": "",
          "type": "uint32"
        }
      ],
      "name": "checkpoints",
      "outputs": [
        {
          "internalType": "uint32",
          "name": "fromBlock",
          "type": "uint32"
        },
        {
          "internalType": "uint96",
          "name": "votes",
          "type": "uint96"
        }
      ],
      "stateMutability": "view",
      "type": "function"
    },
    {
      "inputs": [],
      "name": "collect",
      "outputs": [],
      "stateMutability": "nonpayable",
      "type": "function"
    },
    {
      "inputs": [
        {
          "internalType": "address",
          "name": "account",
          "type": "address"
        }
      ],
      "name": "cumulativeDividendsOf",
      "outputs": [
        {
          "internalType": "uint256",
          "name": "",
          "type": "uint256"
        }
      ],
      "stateMutability": "view",
      "type": "function"
    },
    {
      "inputs": [
        {
          "internalType": "uint256",
          "name": "i",
          "type": "uint256"
        },
        {
          "internalType": "address",
          "name": "account",
          "type": "address"
        }
      ],
      "name": "cumulativeDividendsOf",
      "outputs": [
        {
          "internalType": "uint256",
          "name": "",
          "type": "uint256"
        }
      ],
      "stateMutability": "view",
      "type": "function"
    },
    {
      "inputs": [],
      "name": "decimals",
      "outputs": [
        {
          "internalType": "uint8",
          "name": "",
          "type": "uint8"
        }
      ],
      "stateMutability": "view",
      "type": "function"
    },
    {
      "inputs": [
        {
          "internalType": "address",
          "name": "delegatee",
          "type": "address"
        }
      ],
      "name": "delegate",
      "outputs": [],
      "stateMutability": "nonpayable",
      "type": "function"
    },
    {
      "inputs": [
        {
          "internalType": "address",
          "name": "delegatee",
          "type": "address"
        },
        {
          "internalType": "uint256",
          "name": "nonce",
          "type": "uint256"
        },
        {
          "internalType": "uint256",
          "name": "expiry",
          "type": "uint256"
        },
        {
          "internalType": "uint8",
          "name": "v",
          "type": "uint8"
        },
        {
          "internalType": "bytes32",
          "name": "r",
          "type": "bytes32"
        },
        {
          "internalType": "bytes32",
          "name": "s",
          "type": "bytes32"
        }
      ],
      "name": "delegateBySig",
      "outputs": [],
      "stateMutability": "nonpayable",
      "type": "function"
    },
    {
      "inputs": [
        {
          "internalType": "address",
          "name": "",
          "type": "address"
        }
      ],
      "name": "delegates",
      "outputs": [
        {
          "internalType": "address",
          "name": "",
          "type": "address"
        }
      ],
      "stateMutability": "view",
      "type": "function"
    },
    {
      "inputs": [],
      "name": "distributionRound",
      "outputs": [
        {
          "internalType": "uint256",
          "name": "",
          "type": "uint256"
        }
      ],
      "stateMutability": "view",
      "type": "function"
    },
    {
      "inputs": [],
      "name": "domainSeparator",
      "outputs": [
        {
          "internalType": "bytes32",
          "name": "",
          "type": "bytes32"
        }
      ],
      "stateMutability": "view",
      "type": "function"
    },
    {
      "inputs": [
        {
          "internalType": "address",
          "name": "account",
          "type": "address"
        }
      ],
      "name": "getCurrentVotes",
      "outputs": [
        {
          "internalType": "uint96",
          "name": "",
          "type": "uint96"
        }
      ],
      "stateMutability": "view",
      "type": "function"
    },
    {
      "inputs": [
        {
          "internalType": "uint256",
          "name": "i",
          "type": "uint256"
        }
      ],
      "name": "getMyVote",
      "outputs": [
        {
          "internalType": "uint256",
          "name": "",
          "type": "uint256"
        }
      ],
      "stateMutability": "view",
      "type": "function"
    },
    {
      "inputs": [],
      "name": "getNumProposals",
      "outputs": [
        {
          "internalType": "uint256",
          "name": "",
          "type": "uint256"
        }
      ],
      "stateMutability": "view",
      "type": "function"
    },
    {
      "inputs": [
        {
          "internalType": "address",
          "name": "account",
          "type": "address"
        },
        {
          "internalType": "uint256",
          "name": "blockNumber",
          "type": "uint256"
        }
      ],
      "name": "getPriorVotes",
      "outputs": [
        {
          "internalType": "uint96",
          "name": "",
          "type": "uint96"
        }
      ],
      "stateMutability": "view",
      "type": "function"
    },
    {
      "inputs": [
        {
          "internalType": "uint256",
          "name": "i",
          "type": "uint256"
        }
      ],
      "name": "getProposal",
      "outputs": [
        {
          "components": [
            {
              "internalType": "uint256",
              "name": "totalVotesForDist",
              "type": "uint256"
            },
            {
              "internalType": "uint256",
              "name": "proposalNumber",
              "type": "uint256"
            },
            {
              "internalType": "uint256",
              "name": "timestamp",
              "type": "uint256"
            },
            {
              "internalType": "bool",
              "name": "hasDeployed",
              "type": "bool"
            },
            {
              "internalType": "uint256",
              "name": "id",
              "type": "uint256"
            }
          ],
          "internalType": "struct ERC20VotesComp.votingProposalView",
          "name": "",
          "type": "tuple"
        }
      ],
      "stateMutability": "view",
      "type": "function"
    },
    {
      "inputs": [],
      "name": "getTokenDivLength",
      "outputs": [
        {
          "internalType": "uint256",
          "name": "",
          "type": "uint256"
        }
      ],
      "stateMutability": "view",
      "type": "function"
    },
    {
      "inputs": [],
      "name": "name",
      "outputs": [
        {
          "internalType": "string",
          "name": "",
          "type": "string"
        }
      ],
      "stateMutability": "view",
      "type": "function"
    },
    {
      "inputs": [
        {
          "internalType": "address",
          "name": "",
          "type": "address"
        }
      ],
      "name": "nonces",
      "outputs": [
        {
          "internalType": "uint256",
          "name": "",
          "type": "uint256"
        }
      ],
      "stateMutability": "view",
      "type": "function"
    },
    {
      "inputs": [
        {
          "internalType": "address",
          "name": "",
          "type": "address"
        }
      ],
      "name": "numCheckpoints",
      "outputs": [
        {
          "internalType": "uint32",
          "name": "",
          "type": "uint32"
        }
      ],
      "stateMutability": "view",
      "type": "function"
    },
    {
      "inputs": [],
      "name": "owner",
      "outputs": [
        {
          "internalType": "address",
          "name": "",
          "type": "address"
        }
      ],
      "stateMutability": "view",
      "type": "function"
    },
    {
      "inputs": [
        {
          "internalType": "address",
          "name": "owner",
          "type": "address"
        },
        {
          "internalType": "address",
          "name": "spender",
          "type": "address"
        },
        {
          "internalType": "uint256",
          "name": "rawAmount",
          "type": "uint256"
        },
        {
          "internalType": "uint256",
          "name": "deadline",
          "type": "uint256"
        },
        {
          "internalType": "uint8",
          "name": "v",
          "type": "uint8"
        },
        {
          "internalType": "bytes32",
          "name": "r",
          "type": "bytes32"
        },
        {
          "internalType": "bytes32",
          "name": "s",
          "type": "bytes32"
        }
      ],
      "name": "permit",
      "outputs": [],
      "stateMutability": "nonpayable",
      "type": "function"
    },
    {
      "inputs": [
        {
          "internalType": "uint256",
          "name": "i",
          "type": "uint256"
        }
      ],
      "name": "placeVoteForDist",
      "outputs": [],
      "stateMutability": "nonpayable",
      "type": "function"
    },
    {
      "inputs": [],
      "name": "pointsPerShare",
      "outputs": [
        {
          "internalType": "uint256",
          "name": "",
          "type": "uint256"
        }
      ],
      "stateMutability": "view",
      "type": "function"
    },
    {
      "inputs": [
        {
          "internalType": "uint96",
          "name": "amount",
          "type": "uint96"
        }
      ],
      "name": "redeem",
      "outputs": [],
      "stateMutability": "nonpayable",
      "type": "function"
    },
    {
      "inputs": [
        {
          "internalType": "uint256",
          "name": "i",
          "type": "uint256"
        }
      ],
      "name": "removeVoteForDist",
      "outputs": [],
      "stateMutability": "nonpayable",
      "type": "function"
    },
    {
      "inputs": [],
      "name": "renounceOwnership",
      "outputs": [],
      "stateMutability": "nonpayable",
      "type": "function"
    },
    {
      "inputs": [],
      "name": "selfdestruct",
      "outputs": [],
      "stateMutability": "nonpayable",
      "type": "function"
    },
    {
      "inputs": [],
      "name": "symbol",
      "outputs": [
        {
          "internalType": "string",
          "name": "",
          "type": "string"
        }
      ],
      "stateMutability": "view",
      "type": "function"
    },
    {
      "inputs": [],
      "name": "totalSupply",
      "outputs": [
        {
          "internalType": "uint256",
          "name": "",
          "type": "uint256"
        }
      ],
      "stateMutability": "view",
      "type": "function"
    },
    {
      "inputs": [],
      "name": "totalVotesForDist",
      "outputs": [
        {
          "internalType": "uint256",
          "name": "",
          "type": "uint256"
        }
      ],
      "stateMutability": "view",
      "type": "function"
    },
    {
      "inputs": [
        {
          "internalType": "address",
          "name": "dst",
          "type": "address"
        },
        {
          "internalType": "uint256",
          "name": "rawAmount",
          "type": "uint256"
        }
      ],
      "name": "transfer",
      "outputs": [
        {
          "internalType": "bool",
          "name": "",
          "type": "bool"
        }
      ],
      "stateMutability": "nonpayable",
      "type": "function"
    },
    {
      "inputs": [
        {
          "internalType": "address",
          "name": "src",
          "type": "address"
        },
        {
          "internalType": "address",
          "name": "dst",
          "type": "address"
        },
        {
          "internalType": "uint256",
          "name": "rawAmount",
          "type": "uint256"
        }
      ],
      "name": "transferFrom",
      "outputs": [
        {
          "internalType": "bool",
          "name": "",
          "type": "bool"
        }
      ],
      "stateMutability": "nonpayable",
      "type": "function"
    },
    {
      "inputs": [
        {
          "internalType": "address",
          "name": "newOwner",
          "type": "address"
        }
      ],
      "name": "transferOwnership",
      "outputs": [],
      "stateMutability": "nonpayable",
      "type": "function"
    },
    {
      "inputs": [
        {
          "internalType": "address",
          "name": "account",
          "type": "address"
        }
      ],
      "name": "withdrawableDividendsOf",
      "outputs": [
        {
          "internalType": "uint256",
          "name": "",
          "type": "uint256"
        }
      ],
      "stateMutability": "view",
      "type": "function"
    },
    {
      "inputs": [
        {
          "internalType": "uint256",
          "name": "i",
          "type": "uint256"
        },
        {
          "internalType": "address",
          "name": "account",
          "type": "address"
        }
      ],
      "name": "withdrawableDividendsOf",
      "outputs": [
        {
          "internalType": "uint256",
          "name": "",
          "type": "uint256"
        }
      ],
      "stateMutability": "view",
      "type": "function"
    },
    {
      "inputs": [
        {
          "internalType": "uint256",
          "name": "i",
          "type": "uint256"
        },
        {
          "internalType": "address",
          "name": "account",
          "type": "address"
        }
      ],
      "name": "withdrawableDividendsOf2",
      "outputs": [
        {
          "internalType": "uint256",
          "name": "",
          "type": "uint256"
        }
      ],
      "stateMutability": "view",
      "type": "function"
    },
    {
      "inputs": [
        {
          "internalType": "uint256",
          "name": "i",
          "type": "uint256"
        },
        {
          "internalType": "address",
          "name": "account",
          "type": "address"
        }
      ],
      "name": "withdrawnDividendsOf",
      "outputs": [
        {
          "internalType": "uint256",
          "name": "",
          "type": "uint256"
        }
      ],
      "stateMutability": "view",
      "type": "function"
    },
    {
      "inputs": [
        {
          "internalType": "address",
          "name": "account",
          "type": "address"
        }
      ],
      "name": "withdrawnDividendsOf",
      "outputs": [
        {
          "internalType": "uint256",
          "name": "",
          "type": "uint256"
        }
      ],
      "stateMutability": "view",
      "type": "function"
    }
  ],
  "bytecode": "0x60e0604052600180553480156200001557600080fd5b506040516200488c3803806200488c833981016040819052620000389162000b93565b81816200019460201b62000beb17620001b860201b6200077817838381600490805190602001906200006c92919062000a78565b5080516200008290600590602084019062000a78565b50815160208301207f8cad95687ba82c2ce50e74f7b754645e5117c3a5bec8151c0726d5857980a86690620000b6620001c7565b30604051602001620000cc949392919062000bfa565b60408051601f19818403018152919052805160209091012060805250506001600160c01b031960c092831b811660a05290821b169052506000905062000111620001cb565b601380546001600160a01b0319166001600160a01b038316908117909155604051919250906000907f8be0079c531659141344cd1fd0a4f28419497f9722a3daafe3b4186f6b6457e0908290a350620001753369d3c21bcecceda1000000620001cf565b6200018030620001fa565b505060038054600101815560005262000d22565b6001600160a01b03166000908152600860205260409020546001600160601b031690565b6006546001600160601b031690565b4690565b3390565b620001e68282620002f360201b62001eb21760201c565b620001f682600083900362000437565b5050565b6001600160a01b03811662000241576040805162461bcd60e51b8152602060048201526008602482015267041646472657373360c41b604482015290519081900360640190fd5b6000805b6010548110156200029757826001600160a01b0316601082815481106200026857fe5b60009182526020909120600790910201546001600160a01b031614156200028e57600191505b60010162000245565b5080620002ab576010805460010181556000525b601080548391906000198101908110620002c157fe5b6000918252602090912060079091020180546001600160a01b0319166001600160a01b03929092169190911790555050565b6001600160a01b038216620003255760405162461bcd60e51b81526004016200031c9062000c8a565b60405180910390fd5b60006200033282620004a4565b60065460408051808201909152601581527f6d696e7420616d6f756e74206f766572666c6f77730000000000000000000000602082015291925062000385916001600160601b03909116908390620004d9565b600680546001600160601b039283166001600160601b0319918216179091556001600160a01b03851660008181526008602052604080822080548087168801909616959094169490941790925591517fddf252ad1be2c89b69c2b068fc378daa952ba7f163c4a11628f55a4df523b3ef906200040390859062000cc1565b60405180910390a36001600160a01b038084166000908152600960205260408120546200043292168362000518565b505050565b6200048462000457600d54836200070a60201b62001fe71790919060201c565b6001600160a01b0384166000908152600e6020908152604090912054919062002090620007c4821b17901c565b6001600160a01b039092166000908152600e602052604090209190915550565b60006c010000000000000000000000008210620004d55760405162461bcd60e51b81526004016200031c9062000c53565b5090565b6000838301826001600160601b0380871690831610156200050f5760405162461bcd60e51b81526004016200031c919062000c1e565b50949350505050565b816001600160a01b0316836001600160a01b0316141580156200054457506000816001600160601b0316115b1562000432576001600160a01b0383161562000628576001600160a01b0383166000908152600b602052604081205463ffffffff16908162000588576000620005c8565b6001600160a01b0385166000908152600a60209081526040808320600019860163ffffffff16845290915290205464010000000090046001600160601b03165b905060006200061482856040518060400160405280601681526020017f766f746520616d6f756e7420756e646572666c6f7773000000000000000000008152506200082e60201b60201c565b9050620006248684848462000870565b5050505b6001600160a01b0382161562000432576001600160a01b0382166000908152600b602052604081205463ffffffff16908162000666576000620006a6565b6001600160a01b0384166000908152600a60209081526040808320600019860163ffffffff16845290915290205464010000000090046001600160601b03165b90506000620006f282856040518060400160405280601581526020017f766f746520616d6f756e74206f766572666c6f77730000000000000000000000815250620004d960201b60201c565b9050620007028584848462000870565b505050505050565b6000826200071b57506000620007be565b82600019148015620007305750600160ff1b82145b156200076e5760405162461bcd60e51b8152600401808060200182810382526027815260200180620048656027913960400191505060405180910390fd5b828202828482816200077c57fe5b0514620007bb5760405162461bcd60e51b8152600401808060200182810382526027815260200180620048656027913960400191505060405180910390fd5b90505b92915050565b6000828201818312801590620007da5750838112155b80620007f15750600083128015620007f157508381125b620007bb5760405162461bcd60e51b8152600401808060200182810382526021815260200180620048446021913960400191505060405180910390fd5b6000836001600160601b0316836001600160601b031611158290620008685760405162461bcd60e51b81526004016200031c919062000c1e565b505050900390565b6000620008b9436040518060400160405280601c81526020017f626c6f636b206e756d626572206578636565647320333220626974730000000081525062000a4560201b60201c565b905060008463ffffffff161180156200090357506001600160a01b0385166000908152600a6020908152604080832063ffffffff6000198901811685529252909120548282169116145b156200095f576001600160a01b0385166000908152600a60209081526040808320600019880163ffffffff16845290915290208054600160201b600160801b0319166401000000006001600160601b03851602179055620009f9565b60408051808201825263ffffffff80841682526001600160601b0380861660208085019182526001600160a01b038b166000818152600a83528781208c87168252835287812096518754945190951664010000000002600160201b600160801b031995871663ffffffff19958616179590951694909417909555938252600b90935292909220805460018801909316929091169190911790555b846001600160a01b03167fdec2bacdd2f05b59de34da9b523dff8be42e5e38e818c82fdb0bae774387a724848460405162000a3692919062000cd5565b60405180910390a25050505050565b600081640100000000841062000a705760405162461bcd60e51b81526004016200031c919062000c1e565b509192915050565b828054600181600116156101000203166002900490600052602060002090601f01602090048101928262000ab0576000855562000afb565b82601f1062000acb57805160ff191683800117855562000afb565b8280016001018555821562000afb579182015b8281111562000afb57825182559160200191906001019062000ade565b50620004d59291505b80821115620004d5576000815560010162000b04565b600082601f83011262000b2b578081fd5b81516001600160401b038082111562000b4057fe5b604051601f8301601f19168101602001828111828210171562000b5f57fe5b60405282815284830160200186101562000b77578384fd5b62000b8a83602083016020880162000cef565b95945050505050565b6000806040838503121562000ba6578182fd5b82516001600160401b038082111562000bbd578384fd5b62000bcb8683870162000b1a565b9350602085015191508082111562000be1578283fd5b5062000bf08582860162000b1a565b9150509250929050565b938452602084019290925260408301526001600160a01b0316606082015260800190565b600060208252825180602084015262000c3f81604085016020870162000cef565b601f01601f19169190910160400192915050565b60208082526016908201527f616d6f756e742065786365656473203936206269747300000000000000000000604082015260600190565b60208082526018908201527f6d696e7420746f20746865207a65726f20616464726573730000000000000000604082015260600190565b6001600160601b0391909116815260200190565b6001600160601b0392831681529116602082015260400190565b60005b8381101562000d0c57818101518382015260200162000cf2565b8381111562000d1c576000848401525b50505050565b60805160a05160c01c60c05160c01c613aea62000d5a60003950806107cb5250806114cc52806117e05280611e395250613aea6000f3fe608060405234801561001057600080fd5b506004361061030a5760003560e01c80638ae7f4b01161019c578063c7f758a8116100ee578063e7a324dc11610097578063f2fde38b11610071578063f2fde38b14610611578063f698da2514610624578063f76b40491461062c5761030a565b8063e7a324dc146105d5578063ed2f23bd146105dd578063f1127ed8146105f05761030a565b8063dd62ed3e116100c8578063dd62ed3e146105a7578063dec20964146105ba578063e5225381146105cd5761030a565b8063c7f758a814610561578063c9017b1e14610581578063d505accf146105945761030a565b806397d839f811610150578063b1cde2441161012a578063b1cde24414610533578063b4b5ea571461053b578063c3cda5201461054e5761030a565b806397d839f8146104fa578063a9059cbb1461050d578063b131e610146105205761030a565b80638da5cb5b116101815780638da5cb5b146104d75780639308c6f2146104df57806395d89b41146104f25761030a565b80638ae7f4b0146104bc5780638bd62406146104cf5761030a565b8063587cde1e11610260578063715018a611610209578063798974dd116101e3578063798974dd146104995780637e245d79146104a15780637ecebe00146104a95761030a565b8063715018a61461045e5780637630c4a814610466578063782d6fe1146104795761030a565b8063679d38e01161023a578063679d38e0146104235780636fcfff451461042b57806370a082311461044b5761030a565b8063587cde1e146103db5780635a9ed1e5146103fb5780635c19a95c1461040e5761030a565b806323b872dd116102c25780633dbb287c1161029c5780633dbb287c146103ad57806349ad80bf146103c057806353f83ad7146103c85761030a565b806323b872dd1461037d57806330adf81f14610390578063313ce567146103985761030a565b806318160ddd116102f357806318160ddd1461034d5780631a60b63d1461036257806320606b70146103755761030a565b806306fdde031461030f578063095ea7b31461032d575b600080fd5b61031761063f565b6040516103249190613640565b60405180910390f35b61034061033b366004613357565b6106cd565b60405161032491906135b6565b610355610778565b60405161032491906135c1565b610355610370366004613267565b610787565b610355610816565b61034061038b3660046132b3565b61083a565b610355610965565b6103a0610989565b60405161032491906139ca565b6103556103bb36600461351a565b61098e565b6103556109ce565b6103556103d6366004613267565b6109d4565b6103ee6103e9366004613267565b6109ef565b604051610324919061357e565b61035561040936600461351a565b610a0a565b61042161041c366004613267565b610b3b565b005b610421610b48565b61043e610439366004613267565b610bd3565b604051610324919061399a565b610355610459366004613267565b610beb565b610421610c0f565b61042161047436600461353c565b610ccd565b61048c610487366004613357565b610f66565b60405161032491906139d8565b61035561117b565b610355611181565b6103556104b7366004613267565b611187565b6104216104ca366004613267565b611199565b610355611216565b6103ee61121c565b6104216104ed366004613415565b61122b565b6103176112cf565b61035561050836600461351a565b61132a565b61034061051b366004613357565b61133d565b61035561052e366004613267565b611360565b610355611400565b61048c610549366004613267565b611406565b61042161055c366004613380565b611477565b61057461056f3660046134ea565b611604565b604051610324919061395e565b61035561058f36600461351a565b6116fd565b6104216105a23660046132ee565b611748565b6103556105b5366004613281565b61197f565b6104216105c83660046134ea565b6119b3565b610421611b22565b610355611bed565b6104216105eb3660046134ea565b611c11565b6106036105fe3660046133d7565b611cec565b6040516103249291906139ab565b61042161061f366004613267565b611d22565b610355611e37565b61035561063a3660046134ea565b611e5b565b6004805460408051602060026001851615610100026000190190941693909304601f810184900484028201840190925281815292918301828280156106c55780601f1061069a576101008083540402835291602001916106c5565b820191906000526020600020905b8154815290600101906020018083116106a857829003601f168201915b505050505081565b6000806000198314156106e357506000196106ef565b6106ec836120f5565b90505b3360008181526007602090815260408083206001600160a01b03891680855292529182902080546bffffffffffffffffffffffff19166001600160601b03861617905590519091907f8c5be1e5ebec7d5bd14f71427d1e84f3dd0314c0f7b2291e5b200ac8c7c3b925906107649085906139d8565b60405180910390a360019150505b92915050565b6006546001600160601b031690565b6001600160a01b0381166000908152600e60205260408120546fffffffffffffffffffffffffffffffff9061080690610801906107fb6107f66107ed8863ffffffff7f000000000000000000000000000000000000000000000000000000000000000016565b600d5490612127565b61214b565b90612090565b61215d565b8161080d57fe5b0490505b919050565b7f8cad95687ba82c2ce50e74f7b754645e5117c3a5bec8151c0726d5857980a86681565b6001600160a01b03831660009081526007602090815260408083203380855292528220546001600160601b031682610871856120f5565b9050866001600160a01b0316836001600160a01b03161415801561089e57506001600160601b0382811614155b1561094d5760006108c88383604051806060016040528060248152602001613a4e6024913961216c565b6001600160a01b038981166000818152600760209081526040808320948a16808452949091529081902080546bffffffffffffffffffffffff19166001600160601b0386161790555192935090917f8c5be1e5ebec7d5bd14f71427d1e84f3dd0314c0f7b2291e5b200ac8c7c3b925906109439085906139d8565b60405180910390a3505b6109588787836121ab565b5060019695505050505050565b7f6e71edae12b1b97f4d1f60370fef10105fa2faae0126114a169c64845d6126c981565b601281565b60006010838154811061099d57fe5b600091825260208083206001600160a01b038616845260046007909302019190910190526040902054905092915050565b60105490565b6001600160a01b03166000908152600f602052604090205490565b6009602052600090815260409020546001600160a01b031681565b60006fffffffffffffffffffffffffffffffff8016610b2c61080160108681548110610a3257fe5b90600052602060002090600702016003016000866001600160a01b03166001600160a01b03168152602001908152602001600020546107fb6107f660108981548110610a7a57fe5b600091825260209182902060079091020154604080516370a0823160e01b81526001600160a01b038c81166004830152915191909216926370a082319260248082019391829003018186803b158015610ad257600080fd5b505afa158015610ae6573d6000803e3d6000fd5b505050506040513d6020811015610afc57600080fd5b5051601080548b908110610b0c57fe5b90600052602060002090600702016001015461212790919063ffffffff16565b81610b3357fe5b049392505050565b610b4533826121fa565b50565b610b5061227e565b6001600160a01b0316610b6161121c565b6001600160a01b031614610bbc576040805162461bcd60e51b815260206004820181905260248201527f4f776e61626c653a2063616c6c6572206973206e6f7420746865206f776e6572604482015290519081900360640190fd5b73e640a1777a9943ecd1ee89e9a3e039cb962d37afff5b600b6020526000908152604090205463ffffffff1681565b6001600160a01b03166000908152600860205260409020546001600160601b031690565b610c1761227e565b6001600160a01b0316610c2861121c565b6001600160a01b031614610c83576040805162461bcd60e51b815260206004820181905260248201527f4f776e61626c653a2063616c6c6572206973206e6f7420746865206f776e6572604482015290519081900360640190fd5b6013546040516000916001600160a01b0316907f8be0079c531659141344cd1fd0a4f28419497f9722a3daafe3b4186f6b6457e0908390a3601380546001600160a01b0319169055565b6000306001600160a01b03166318160ddd6040518163ffffffff1660e01b815260040160206040518083038186803b158015610d0857600080fd5b505afa158015610d1c573d6000803e3d6000fd5b505050506040513d601f19601f82011682018060405250810190610d409190613502565b905060005b601054811015610f56576000610dbc6fffffffffffffffffffffffffffffffff8016610db660108581548110610d7757fe5b90600052602060002090600702016002015460108681548110610d9657fe5b90600052602060002090600702016001015461228290919063ffffffff16565b906122db565b9050600060108381548110610dcd57fe5b60009182526020909120600790910201546040516370a0823160e01b81526001600160a01b03909116906370a0823190610e0b90309060040161357e565b60206040518083038186803b158015610e2357600080fd5b505afa158015610e37573d6000803e3d6000fd5b505050506040513d601f19601f82011682018060405250810190610e5b9190613502565b9050600060108481548110610e6c57fe5b60009182526020822060056007909202010154848403019150610e9c86610db6846001600160601b038b16612282565b90508015610f475760108581548110610eb157fe5b60009182526020909120600790910201546040516323b872dd60e01b81526001600160a01b03909116906323b872dd90610ef390309033908690600401613592565b602060405180830381600087803b158015610f0d57600080fd5b505af1158015610f21573d6000803e3d6000fd5b505050506040513d601f19601f82011682018060405250810190610f4591906134ca565b505b50505050806001019050610d45565b50610f623330846121ab565b5050565b6000438210610f905760405162461bcd60e51b8152600401610f87906137a6565b60405180910390fd5b6001600160a01b0383166000908152600b602052604090205463ffffffff1680610fbe576000915050610772565b6001600160a01b0384166000908152600a6020908152604080832063ffffffff60001986018116855292529091205416831061103b576001600160a01b0384166000908152600a602090815260408083206000199490940163ffffffff168352929052205464010000000090046001600160601b03169050610772565b6001600160a01b0384166000908152600a6020908152604080832083805290915290205463ffffffff16831015611076576000915050610772565b600060001982015b8163ffffffff168163ffffffff161115611135576000600263ffffffff848403166001600160a01b0389166000908152600a6020908152604080832094909304860363ffffffff8181168452948252918390208351808501909452549384168084526401000000009094046001600160601b031690830152925090871415611110576020015194506107729350505050565b805163ffffffff168711156111275781935061112e565b6001820392505b505061107e565b506001600160a01b0385166000908152600a6020908152604080832063ffffffff909416835292905220546001600160601b036401000000009091041691505092915050565b60035490565b600d5481565b600c6020526000908152604090205481565b6111a161227e565b6001600160a01b03166111b261121c565b6001600160a01b03161461120d576040805162461bcd60e51b815260206004820181905260248201527f4f776e61626c653a2063616c6c6572206973206e6f7420746865206f776e6572604482015290519081900360640190fd5b610b458161233a565b60005481565b6013546001600160a01b031690565b61123361227e565b6001600160a01b031661124461121c565b6001600160a01b03161461129f576040805162461bcd60e51b815260206004820181905260248201527f4f776e61626c653a2063616c6c6572206973206e6f7420746865206f776e6572604482015290519081900360640190fd5b60005b8151811015610f62576112c78282815181106112ba57fe5b602002602001015161233a565b6001016112a2565b6005805460408051602060026001851615610100026000190190941693909304601f810184900484028201840190925281815292918301828280156106c55780601f1061069a576101008083540402835291602001916106c5565b600061133683836116fd565b9392505050565b600080611349836120f5565b90506113563385836121ab565b5060019392505050565b600061136b82610787565b6001600160a01b0383166000908152600f602052604090205411156113d7576040805162461bcd60e51b815260206004820152600960248201527f77726f6e672076616c0000000000000000000000000000000000000000000000604482015290519081900360640190fd5b6001600160a01b0382166000908152600f60205260409020546113f983610787565b0392915050565b60015481565b6001600160a01b0381166000908152600b602052604081205463ffffffff1680611431576000611336565b6001600160a01b0383166000908152600a60209081526040808320600019850163ffffffff16845290915290205464010000000090046001600160601b03169392505050565b60007fe48329057bfd03d55e49b547132e39cffd9c1820ad7b9d4c5307691425d15adf8787876040516020016114b094939291906135fe565b60405160208183030381529060405280519060200120905060007f0000000000000000000000000000000000000000000000000000000000000000826040516020016114fd929190613563565b60405160208183030381529060405280519060200120905060006001828787876040516000815260200160405260405161153a9493929190613622565b6020604051602081039080840390855afa15801561155c573d6000803e3d6000fd5b5050604051601f1901519150506001600160a01b03811661158f5760405162461bcd60e51b8152600401610f87906136ca565b6001600160a01b0381166000908152600c6020526040902080546001810190915588146115ce5760405162461bcd60e51b8152600401610f87906137dd565b864211156115ee5760405162461bcd60e51b8152600401610f8790613927565b6115f8818a6121fa565b5050505b505050505050565b61160c61320e565b600354821061162d5760405162461bcd60e51b8152600401610f87906138b9565b61163561320e565b6003838154811061164257fe5b60009182526020909120600690910201548152600380548490811061166357fe5b9060005260206000209060060201600101548160200181815250506003838154811061168b57fe5b906000526020600020906006020160020154816040018181525050600383815481106116b357fe5b60009182526020909120600360069092020181015460ff16151560608301528054849081106116de57fe5b6000918252602090912060069091020160040154608082015292915050565b60006113366010848154811061170f57fe5b600091825260208083206001600160a01b0387168452600460079093020191909101905260409020546117428585610a0a565b90612441565b600060001986141561175d5750600019611769565b611766866120f5565b90505b6001600160a01b0388166000908152600c6020908152604080832080546001810190915590516117c4927f6e71edae12b1b97f4d1f60370fef10105fa2faae0126114a169c64845d6126c9928d928d928d92918d91016135ca565b60405160208183030381529060405280519060200120905060007f000000000000000000000000000000000000000000000000000000000000000082604051602001611811929190613563565b60405160208183030381529060405280519060200120905060006001828888886040516000815260200160405260405161184e9493929190613622565b6020604051602081039080840390855afa158015611870573d6000803e3d6000fd5b5050604051601f1901519150506001600160a01b0381166118a35760405162461bcd60e51b8152600401610f87906136ca565b8a6001600160a01b0316816001600160a01b0316146118d45760405162461bcd60e51b8152600401610f879061384b565b874211156118f45760405162461bcd60e51b8152600401610f8790613927565b6001600160a01b038b81166000818152600760209081526040808320948f16808452949091529081902080546bffffffffffffffffffffffff19166001600160601b038916179055517f8c5be1e5ebec7d5bd14f71427d1e84f3dd0314c0f7b2291e5b200ac8c7c3b9259061196a9088906139d8565b60405180910390a35050505050505050505050565b6001600160a01b0391821660009081526007602090815260408083209390941682529190915220546001600160601b031690565b60035481106119d45760405162461bcd60e51b8152600401610f87906138b9565b600381815481106119e157fe5b600091825260208083203384526005600690930201919091019052604090205415611a1e5760405162461bcd60e51b8152600401610f8790613814565b611a4e611a2a33610beb565b60038381548110611a3757fe5b600091825260209091206006909102015490612451565b60038281548110611a5b57fe5b6000918252602090912060069091020155611a7533610beb565b60038281548110611a8257fe5b6000918252602080832033845260056006909302019190910190526040902055611ac16002610db6611ab330610beb565b611abb610778565b906124ab565b60038281548110611ace57fe5b9060005260206000209060060201600001541115610b4557611aee612508565b600160038281548110611afd57fe5b60009182526020909120600690910201600301805460ff191691151591909117905550565b6000805b601054811015610f6257611b3a8133612701565b91508115611be55760108181548110611b4f57fe5b60009182526020909120600790910201546040516323b872dd60e01b81526001600160a01b03909116906323b872dd90611b9190309033908790600401613592565b602060405180830381600087803b158015611bab57600080fd5b505af1158015611bbf573d6000803e3d6000fd5b505050506040513d601f19601f82011682018060405250810190611be391906134ca565b505b600101611b26565b7fe48329057bfd03d55e49b547132e39cffd9c1820ad7b9d4c5307691425d15adf81565b6003548110611c325760405162461bcd60e51b8152600401610f87906138b9565b600060038281548110611c4157fe5b600091825260208083203384526005600690930201919091019052604090205411611c7e5760405162461bcd60e51b8152600401610f8790613882565b3360009081526002602052604090205460038054611cb992919084908110611ca257fe5b6000918252602090912060069091020154906124ab565b60038281548110611cc657fe5b600091825260208083206006909202909101929092553381526002909152604081205550565b600a60209081526000928352604080842090915290825290205463ffffffff81169064010000000090046001600160601b031682565b611d2a61227e565b6001600160a01b0316611d3b61121c565b6001600160a01b031614611d96576040805162461bcd60e51b815260206004820181905260248201527f4f776e61626c653a2063616c6c6572206973206e6f7420746865206f776e6572604482015290519081900360640190fd5b6001600160a01b038116611ddb5760405162461bcd60e51b8152600401808060200182810382526026815260200180613a076026913960400191505060405180910390fd5b6013546040516001600160a01b038084169216907f8be0079c531659141344cd1fd0a4f28419497f9722a3daafe3b4186f6b6457e090600090a3601380546001600160a01b0319166001600160a01b0392909216919091179055565b7f000000000000000000000000000000000000000000000000000000000000000081565b6003546000908210611e7f5760405162461bcd60e51b8152600401610f87906138b9565b60038281548110611e8c57fe5b600091825260208083203384526006929092029091016005019052604090205492915050565b6001600160a01b038216611ed85760405162461bcd60e51b8152600401610f87906138f0565b6000611ee3826120f5565b60065460408051808201909152601581527f6d696e7420616d6f756e74206f766572666c6f777300000000000000000000006020820152919250611f34916001600160601b039091169083906127c6565b600680546001600160601b039283166bffffffffffffffffffffffff19918216179091556001600160a01b03851660008181526008602052604080822080548087168801909616959094169490941790925591517fddf252ad1be2c89b69c2b068fc378daa952ba7f163c4a11628f55a4df523b3ef90611fb59085906139d8565b60405180910390a36001600160a01b03808416600090815260096020526040812054611fe2921683612802565b505050565b600082611ff657506000610772565b8260001914801561200a5750600160ff1b82145b156120465760405162461bcd60e51b8152600401808060200182810382526027815260200180613a936027913960400191505060405180910390fd5b8282028284828161205357fe5b05146113365760405162461bcd60e51b8152600401808060200182810382526027815260200180613a936027913960400191505060405180910390fd5b60008282018183128015906120a55750838112155b806120ba57506000831280156120ba57508381125b6113365760405162461bcd60e51b8152600401808060200182810382526021815260200180613a2d6021913960400191505060405180910390fd5b60006c0100000000000000000000000082106121235760405162461bcd60e51b8152600401610f8790613701565b5090565b60008215806121425750508181028183828161213f57fe5b04145b61077257600080fd5b6000600160ff1b821061212357600080fd5b60008082121561212357600080fd5b6000836001600160601b0316836001600160601b0316111582906121a35760405162461bcd60e51b8152600401610f879190613640565b505050900390565b6121b68383836129d0565b6121ca8383836001600160601b0316612c5d565b60005b6010548110156121f4576121ec818585856001600160601b0316612cee565b6001016121cd565b50505050565b6001600160a01b03808316600081815260096020818152604080842080546008845282862054949093528787166001600160a01b031984168117909155905191909516946001600160601b039092169391928592917f3134e8a2e6d97e929a7e54011ea5485d7d196dd5f0ba4d4ef95803e8e3fc257f9190a46121f4828483612802565b3390565b60008261229157506000610772565b8282028284828161229e57fe5b04146113365760405162461bcd60e51b8152600401808060200182810382526021815260200180613a726021913960400191505060405180910390fd5b6000808211612331576040805162461bcd60e51b815260206004820152601a60248201527f536166654d6174683a206469766973696f6e206279207a65726f000000000000604482015290519081900360640190fd5b818381610b3357fe5b6001600160a01b038116612395576040805162461bcd60e51b815260206004820152600860248201527f4164647265737330000000000000000000000000000000000000000000000000604482015290519081900360640190fd5b6000805b6010548110156123e757826001600160a01b0316601082815481106123ba57fe5b60009182526020909120600790910201546001600160a01b031614156123df57600191505b600101612399565b50806123fa576010805460010181556000525b60108054839190600019810190811061240f57fe5b6000918252602090912060079091020180546001600160a01b0319166001600160a01b03929092169190911790555050565b8082038281111561077257600080fd5b600082820183811015611336576040805162461bcd60e51b815260206004820152601b60248201527f536166654d6174683a206164646974696f6e206f766572666c6f770000000000604482015290519081900360640190fd5b600082821115612502576040805162461bcd60e51b815260206004820152601e60248201527f536166654d6174683a207375627472616374696f6e206f766572666c6f770000604482015290519081900360640190fd5b50900390565b6040516370a0823160e01b81526126199030906370a082319061252f90839060040161357e565b60206040518083038186803b15801561254757600080fd5b505afa15801561255b573d6000803e3d6000fd5b505050506040513d601f19601f8201168201806040525081019061257f9190613502565b611abb601060008154811061259057fe5b906000526020600020906007020160060154306001600160a01b03166318160ddd6040518163ffffffff1660e01b815260040160206040518083038186803b1580156125db57600080fd5b505afa1580156125ef573d6000803e3d6000fd5b505050506040513d601f19601f820116820180604052508101906126139190613502565b90612451565b60115560005b601054811015610b455760006010828154811061263857fe5b9060005260206000209060070201600601546010838154811061265757fe5b60009182526020909120600790910201546040516370a0823160e01b81526001600160a01b03909116906370a082319061269590309060040161357e565b60206040518083038186803b1580156126ad57600080fd5b505afa1580156126c1573d6000803e3d6000fd5b505050506040513d601f19601f820116820180604052508101906126e59190613502565b03905080156126f8576126f88282612e0b565b5060010161261f565b60008061270e84846116fd565b9050801561278d57612756816010868154811061272757fe5b600091825260208083206001600160a01b03891684526004600790930201919091019052604090205490612f95565b6010858154811061276357fe5b600091825260208083206001600160a01b0388168452600460079093020191909101905260409020555b6127be816010868154811061279e57fe5b906000526020600020906007020160050154612f9590919063ffffffff16565b509392505050565b6000838301826001600160601b0380871690831610156127f95760405162461bcd60e51b8152600401610f879190613640565b50949350505050565b816001600160a01b0316836001600160a01b03161415801561282d57506000816001600160601b0316115b15611fe2576001600160a01b03831615612903576001600160a01b0383166000908152600b602052604081205463ffffffff16908161286d5760006128ad565b6001600160a01b0385166000908152600a60209081526040808320600019860163ffffffff16845290915290205464010000000090046001600160601b03165b905060006128f182856040518060400160405280601681526020017f766f746520616d6f756e7420756e646572666c6f77730000000000000000000081525061216c565b90506128ff86848484612fa5565b5050505b6001600160a01b03821615611fe2576001600160a01b0382166000908152600b602052604081205463ffffffff16908161293e57600061297e565b6001600160a01b0384166000908152600a60209081526040808320600019860163ffffffff16845290915290205464010000000090046001600160601b03165b905060006129c282856040518060400160405280601581526020017f766f746520616d6f756e74206f766572666c6f777300000000000000000000008152506127c6565b90506115fc85848484612fa5565b6001600160a01b0383166129f65760405162461bcd60e51b8152600401610f8790613738565b6001600160a01b038216612a1c5760405162461bcd60e51b8152600401610f879061376f565b6001600160a01b038316600090815260086020908152604091829020548251808401909352601f83527f7472616e7366657220616d6f756e7420657863656564732062616c616e63650091830191909152612a84916001600160601b0390911690839061216c565b6001600160a01b03848116600090815260086020908152604080832080546bffffffffffffffffffffffff19166001600160601b03968716179055928616825290829020548251808401909352601983527f7472616e7366657220616d6f756e74206f766572666c6f77730000000000000091830191909152612b0a92169083906127c6565b6001600160a01b038381166000818152600860205260409081902080546bffffffffffffffffffffffff19166001600160601b0395909516949094179093559151908516907fddf252ad1be2c89b69c2b068fc378daa952ba7f163c4a11628f55a4df523b3ef90612b7c9085906139d8565b60405180910390a36001600160a01b03808416600090815260096020526040808220548584168352912054612bb692918216911683612802565b6001546001600160a01b0384166000908152600260205260409020541415611fe257600054816001600160601b03161115612c035760405162461bcd60e51b8152600401610f8790613693565b600054612c19906001600160601b0383166124ab565b60009081556001600160a01b038416815260026020526040902054612c3f9060016124ab565b6001600160a01b038416600090815260026020526040902055505050565b6000612c776107f683600d5461212790919063ffffffff16565b6001600160a01b0385166000908152600e6020526040902054909150612c9d9082612090565b6001600160a01b038086166000908152600e60205260408082209390935590851681522054612ccc9082613179565b6001600160a01b039093166000908152600e6020526040902092909255505050565b6000612d046107f68360108881548110610b0c57fe5b9050612d468160108781548110612d1757fe5b600091825260208083206001600160a01b038a1684526003600790930201919091019052604090205490612090565b60108681548110612d5357fe5b600091825260208083206001600160a01b03891684526003600790930201919091019052604090205560108054612dbf91839188908110612d9057fe5b600091825260208083206001600160a01b03891684526003600790930201919091019052604090205490613179565b60108681548110612dcc57fe5b90600052602060002090600702016003016000856001600160a01b03166001600160a01b03168152602001908152602001600020819055505050505050565b6000612e5c60108481548110612e1d57fe5b90600052602060002090600702016001015460108581548110612e3c57fe5b90600052602060002090600702016002015461212790919063ffffffff16565b90506000612e6a8284612f95565b9050600060108581548110612e7b57fe5b60009182526020808320308452600360079093020191909101905260409020541315612ed05760108481548110612eae57fe5b6000918252602080832030845260036007909302019190910190526040902054015b601154612eed826fffffffffffffffffffffffffffffffff612127565b81612ef457fe5b0460108581548110612f0257fe5b90600052602060002090600702016001018190555060115460108581548110612f2757fe5b906000526020600020906007020160020181905550612f6d8360108681548110612f4d57fe5b906000526020600020906007020160060154612f9590919063ffffffff16565b60108581548110612f7a57fe5b90600052602060002090600702016006018190555050505050565b8082018281101561077257600080fd5b6000612fe6436040518060400160405280601c81526020017f626c6f636b206e756d62657220657863656564732033322062697473000000008152506131de565b905060008463ffffffff1611801561302f57506001600160a01b0385166000908152600a6020908152604080832063ffffffff6000198901811685529252909120548282169116145b1561308f576001600160a01b0385166000908152600a60209081526040808320600019880163ffffffff168452909152902080546fffffffffffffffffffffffff0000000019166401000000006001600160601b0385160217905561312f565b60408051808201825263ffffffff80841682526001600160601b0380861660208085019182526001600160a01b038b166000818152600a83528781208c871682528352878120965187549451909516640100000000026fffffffffffffffffffffffff000000001995871663ffffffff19958616179590951694909417909555938252600b90935292909220805460018801909316929091169190911790555b846001600160a01b03167fdec2bacdd2f05b59de34da9b523dff8be42e5e38e818c82fdb0bae774387a724848460405161316a9291906139ec565b60405180910390a25050505050565b600081830381831280159061318e5750838113155b806131a357506000831280156131a357508381135b6113365760405162461bcd60e51b8152600401808060200182810382526024815260200180613aba6024913960400191505060405180910390fd5b60008164010000000084106132065760405162461bcd60e51b8152600401610f879190613640565b509192915050565b6040518060a00160405280600081526020016000815260200160008152602001600015158152602001600081525090565b80356001600160a01b038116811461081157600080fd5b803560ff8116811461081157600080fd5b600060208284031215613278578081fd5b6113368261323f565b60008060408385031215613293578081fd5b61329c8361323f565b91506132aa6020840161323f565b90509250929050565b6000806000606084860312156132c7578081fd5b6132d08461323f565b92506132de6020850161323f565b9150604084013590509250925092565b600080600080600080600060e0888a031215613308578283fd5b6133118861323f565b965061331f6020890161323f565b9550604088013594506060880135935061333b60808901613256565b925060a0880135915060c0880135905092959891949750929550565b60008060408385031215613369578182fd5b6133728361323f565b946020939093013593505050565b60008060008060008060c08789031215613398578182fd5b6133a18761323f565b955060208701359450604087013593506133bd60608801613256565b92506080870135915060a087013590509295509295509295565b600080604083850312156133e9578182fd5b6133f28361323f565b9150602083013563ffffffff8116811461340a578182fd5b809150509250929050565b60006020808385031215613427578182fd5b823567ffffffffffffffff8082111561343e578384fd5b818501915085601f830112613451578384fd5b81358181111561345d57fe5b8381026040518582820101818110858211171561347657fe5b604052828152858101935084860182860187018a1015613494578788fd5b8795505b838610156134bd576134a98161323f565b855260019590950194938601938601613498565b5098975050505050505050565b6000602082840312156134db578081fd5b81518015158114611336578182fd5b6000602082840312156134fb578081fd5b5035919050565b600060208284031215613513578081fd5b5051919050565b6000806040838503121561352c578182fd5b823591506132aa6020840161323f565b60006020828403121561354d578081fd5b81356001600160601b0381168114611336578182fd5b61190160f01b81526002810192909252602282015260420190565b6001600160a01b0391909116815260200190565b6001600160a01b039384168152919092166020820152604081019190915260600190565b901515815260200190565b90815260200190565b9586526001600160a01b0394851660208701529290931660408501526060840152608083019190915260a082015260c00190565b9384526001600160a01b039290921660208401526040830152606082015260800190565b93845260ff9290921660208401526040830152606082015260800190565b6000602080835283518082850152825b8181101561366c57858101830151858201604001528201613650565b8181111561367d5783604083870101525b50601f01601f1916929092016040019392505050565b60208082526009908201527f766f74696e674572720000000000000000000000000000000000000000000000604082015260600190565b60208082526011908201527f696e76616c6964207369676e6174757265000000000000000000000000000000604082015260600190565b60208082526016908201527f616d6f756e742065786365656473203936206269747300000000000000000000604082015260600190565b6020808252601e908201527f7472616e736665722066726f6d20746865207a65726f20616464726573730000604082015260600190565b6020808252601c908201527f7472616e7366657220746f20746865207a65726f206164647265737300000000604082015260600190565b60208082526012908201527f6e6f74207965742064657465726d696e65640000000000000000000000000000604082015260600190565b6020808252600d908201527f696e76616c6964206e6f6e636500000000000000000000000000000000000000604082015260600190565b6020808252600d908201527f616c726561647920566f74656400000000000000000000000000000000000000604082015260600190565b6020808252600c908201527f756e617574686f72697a65640000000000000000000000000000000000000000604082015260600190565b6020808252600f908201527f6469646e277420766f7465207965740000000000000000000000000000000000604082015260600190565b60208082526015908201527f70726f706f73616c20646f65736e742065786973740000000000000000000000604082015260600190565b60208082526018908201527f6d696e7420746f20746865207a65726f20616464726573730000000000000000604082015260600190565b60208082526011908201527f7369676e61747572652065787069726564000000000000000000000000000000604082015260600190565b600060a0820190508251825260208301516020830152604083015160408301526060830151151560608301526080830151608083015292915050565b63ffffffff91909116815260200190565b63ffffffff9290921682526001600160601b0316602082015260400190565b60ff91909116815260200190565b6001600160601b0391909116815260200190565b6001600160601b039283168152911660208201526040019056fe4f776e61626c653a206e6577206f776e657220697320746865207a65726f20616464726573735369676e6564536166654d6174683a206164646974696f6e206f766572666c6f777472616e7366657220616d6f756e74206578636565647320616c6c6f77616e6365207a7a536166654d6174683a206d756c7469706c69636174696f6e206f766572666c6f775369676e6564536166654d6174683a206d756c7469706c69636174696f6e206f766572666c6f775369676e6564536166654d6174683a207375627472616374696f6e206f766572666c6f77a164736f6c6343000706000a5369676e6564536166654d6174683a206164646974696f6e206f766572666c6f775369676e6564536166654d6174683a206d756c7469706c69636174696f6e206f766572666c6f77",
  "linkReferences": {},
  "deployedLinkReferences": {}
}