{
  "_format": "hh-sol-artifact-1",
  "contractName": "AVC20",
  "sourceName": "contracts/AVC20.sol",
  "abi": [
    {
      "inputs": [
        {
          "internalType": "string",
          "name": "name_",
          "type": "string"
        },
        {
          "internalType": "string",
          "name": "symbol_",
          "type": "string"
        }
      ],
      "stateMutability": "nonpayable",
      "type": "constructor"
    },
    {
      "anonymous": false,
      "inputs": [
        {
          "indexed": true,
          "internalType": "address",
          "name": "owner",
          "type": "address"
        },
        {
          "indexed": true,
          "internalType": "address",
          "name": "spender",
          "type": "address"
        },
        {
          "indexed": false,
          "internalType": "uint256",
          "name": "value",
          "type": "uint256"
        }
      ],
      "name": "Approval",
      "type": "event"
    },
    {
      "anonymous": false,
      "inputs": [
        {
          "indexed": true,
          "internalType": "address",
          "name": "delegator",
          "type": "address"
        },
        {
          "indexed": true,
          "internalType": "address",
          "name": "fromDelegate",
          "type": "address"
        },
        {
          "indexed": true,
          "internalType": "address",
          "name": "toDelegate",
          "type": "address"
        }
      ],
      "name": "DelegateChanged",
      "type": "event"
    },
    {
      "anonymous": false,
      "inputs": [
        {
          "indexed": true,
          "internalType": "address",
          "name": "delegate",
          "type": "address"
        },
        {
          "indexed": false,
          "internalType": "uint256",
          "name": "previousBalance",
          "type": "uint256"
        },
        {
          "indexed": false,
          "internalType": "uint256",
          "name": "newBalance",
          "type": "uint256"
        }
      ],
      "name": "DelegateVotesChanged",
      "type": "event"
    },
    {
      "anonymous": false,
      "inputs": [
        {
          "indexed": true,
          "internalType": "address",
          "name": "by",
          "type": "address"
        },
        {
          "indexed": false,
          "internalType": "uint256",
          "name": "dividendsDistributed",
          "type": "uint256"
        }
      ],
      "name": "DividendsDistributed",
      "type": "event"
    },
    {
      "anonymous": false,
      "inputs": [
        {
          "indexed": true,
          "internalType": "address",
          "name": "by",
          "type": "address"
        },
        {
          "indexed": false,
          "internalType": "uint256",
          "name": "fundsWithdrawn",
          "type": "uint256"
        }
      ],
      "name": "DividendsWithdrawn",
      "type": "event"
    },
    {
      "anonymous": false,
      "inputs": [
        {
          "indexed": true,
          "internalType": "address",
          "name": "previousOwner",
          "type": "address"
        },
        {
          "indexed": true,
          "internalType": "address",
          "name": "newOwner",
          "type": "address"
        }
      ],
      "name": "OwnershipTransferred",
      "type": "event"
    },
    {
      "anonymous": false,
      "inputs": [
        {
          "indexed": true,
          "internalType": "address",
          "name": "from",
          "type": "address"
        },
        {
          "indexed": true,
          "internalType": "address",
          "name": "to",
          "type": "address"
        },
        {
          "indexed": false,
          "internalType": "uint256",
          "name": "value",
          "type": "uint256"
        }
      ],
      "name": "Transfer",
      "type": "event"
    },
    {
      "inputs": [],
      "name": "DELEGATION_TYPEHASH",
      "outputs": [
        {
          "internalType": "bytes32",
          "name": "",
          "type": "bytes32"
        }
      ],
      "stateMutability": "view",
      "type": "function"
    },
    {
      "inputs": [],
      "name": "DOMAIN_TYPEHASH",
      "outputs": [
        {
          "internalType": "bytes32",
          "name": "",
          "type": "bytes32"
        }
      ],
      "stateMutability": "view",
      "type": "function"
    },
    {
      "inputs": [],
      "name": "PERMIT_TYPEHASH",
      "outputs": [
        {
          "internalType": "bytes32",
          "name": "",
          "type": "bytes32"
        }
      ],
      "stateMutability": "view",
      "type": "function"
    },
    {
      "inputs": [
        {
          "internalType": "uint256",
          "name": "i",
          "type": "uint256"
        },
        {
          "internalType": "address",
          "name": "account",
          "type": "address"
        }
      ],
      "name": "_prepareCollect",
      "outputs": [
        {
          "internalType": "uint256",
          "name": "",
          "type": "uint256"
        }
      ],
      "stateMutability": "nonpayable",
      "type": "function"
    },
    {
      "inputs": [
        {
          "internalType": "uint256",
          "name": "percent",
          "type": "uint256"
        }
      ],
      "name": "addProposal",
      "outputs": [],
      "stateMutability": "nonpayable",
      "type": "function"
    },
    {
      "inputs": [
        {
          "internalType": "uint256",
          "name": "amount",
          "type": "uint256"
        }
      ],
      "name": "addProposalMint",
      "outputs": [],
      "stateMutability": "nonpayable",
      "type": "function"
    },
    {
      "inputs": [
        {
          "internalType": "address",
          "name": "addressToAdd",
          "type": "address"
        }
      ],
      "name": "addToTokenList",
      "outputs": [],
      "stateMutability": "nonpayable",
      "type": "function"
    },
    {
      "inputs": [
        {
          "internalType": "address[]",
          "name": "addresses",
          "type": "address[]"
        }
      ],
      "name": "addToTokensListArray",
      "outputs": [],
      "stateMutability": "nonpayable",
      "type": "function"
    },
    {
      "inputs": [
        {
          "internalType": "address",
          "name": "account",
          "type": "address"
        },
        {
          "internalType": "address",
          "name": "spender",
          "type": "address"
        }
      ],
      "name": "allowance",
      "outputs": [
        {
          "internalType": "uint256",
          "name": "",
          "type": "uint256"
        }
      ],
      "stateMutability": "view",
      "type": "function"
    },
    {
      "inputs": [
        {
          "internalType": "uint256",
          "name": "i",
          "type": "uint256"
        }
      ],
      "name": "amountCollected",
      "outputs": [
        {
          "internalType": "uint256",
          "name": "",
          "type": "uint256"
        }
      ],
      "stateMutability": "view",
      "type": "function"
    },
    {
      "inputs": [
        {
          "internalType": "address",
          "name": "spender",
          "type": "address"
        },
        {
          "internalType": "uint256",
          "name": "rawAmount",
          "type": "uint256"
        }
      ],
      "name": "approve",
      "outputs": [
        {
          "internalType": "bool",
          "name": "",
          "type": "bool"
        }
      ],
      "stateMutability": "nonpayable",
      "type": "function"
    },
    {
      "inputs": [
        {
          "internalType": "address",
          "name": "account",
          "type": "address"
        }
      ],
      "name": "balanceOf",
      "outputs": [
        {
          "internalType": "uint256",
          "name": "",
          "type": "uint256"
        }
      ],
      "stateMutability": "view",
      "type": "function"
    },
    {
      "inputs": [
        {
          "internalType": "uint256",
          "name": "i",
          "type": "uint256"
        }
      ],
      "name": "balanceOf22",
      "outputs": [
        {
          "internalType": "uint256",
          "name": "",
          "type": "uint256"
        }
      ],
      "stateMutability": "view",
      "type": "function"
    },
    {
      "inputs": [
        {
          "internalType": "uint256",
          "name": "amount",
          "type": "uint256"
        }
      ],
      "name": "burn",
      "outputs": [
        {
          "internalType": "uint256",
          "name": "",
          "type": "uint256"
        }
      ],
      "stateMutability": "nonpayable",
      "type": "function"
    },
    {
      "inputs": [
        {
          "internalType": "address",
          "name": "",
          "type": "address"
        },
        {
          "internalType": "uint32",
          "name": "",
          "type": "uint32"
        }
      ],
      "name": "checkpoints",
      "outputs": [
        {
          "internalType": "uint32",
          "name": "fromBlock",
          "type": "uint32"
        },
        {
          "internalType": "uint96",
          "name": "votes",
          "type": "uint96"
        }
      ],
      "stateMutability": "view",
      "type": "function"
    },
    {
      "inputs": [],
      "name": "collect",
      "outputs": [],
      "stateMutability": "nonpayable",
      "type": "function"
    },
    {
      "inputs": [
        {
          "internalType": "uint256",
          "name": "i",
          "type": "uint256"
        }
      ],
      "name": "cumAmountToDistribute",
      "outputs": [
        {
          "internalType": "uint256",
          "name": "",
          "type": "uint256"
        }
      ],
      "stateMutability": "view",
      "type": "function"
    },
    {
      "inputs": [
        {
          "internalType": "address",
          "name": "account",
          "type": "address"
        }
      ],
      "name": "cumulativeDividendsOf",
      "outputs": [
        {
          "internalType": "uint256",
          "name": "",
          "type": "uint256"
        }
      ],
      "stateMutability": "view",
      "type": "function"
    },
    {
      "inputs": [
        {
          "internalType": "uint256",
          "name": "i",
          "type": "uint256"
        },
        {
          "internalType": "address",
          "name": "account",
          "type": "address"
        }
      ],
      "name": "cumulativeDividendsOf",
      "outputs": [
        {
          "internalType": "uint256",
          "name": "",
          "type": "uint256"
        }
      ],
      "stateMutability": "view",
      "type": "function"
    },
    {
      "inputs": [
        {
          "internalType": "uint256",
          "name": "i",
          "type": "uint256"
        },
        {
          "internalType": "address",
          "name": "account",
          "type": "address"
        }
      ],
      "name": "cumulativeDividendsOf2",
      "outputs": [
        {
          "internalType": "uint256",
          "name": "",
          "type": "uint256"
        }
      ],
      "stateMutability": "view",
      "type": "function"
    },
    {
      "inputs": [],
      "name": "decimals",
      "outputs": [
        {
          "internalType": "uint8",
          "name": "",
          "type": "uint8"
        }
      ],
      "stateMutability": "view",
      "type": "function"
    },
    {
      "inputs": [
        {
          "internalType": "address",
          "name": "delegatee",
          "type": "address"
        }
      ],
      "name": "delegate",
      "outputs": [],
      "stateMutability": "nonpayable",
      "type": "function"
    },
    {
      "inputs": [
        {
          "internalType": "address",
          "name": "delegatee",
          "type": "address"
        },
        {
          "internalType": "uint256",
          "name": "nonce",
          "type": "uint256"
        },
        {
          "internalType": "uint256",
          "name": "expiry",
          "type": "uint256"
        },
        {
          "internalType": "uint8",
          "name": "v",
          "type": "uint8"
        },
        {
          "internalType": "bytes32",
          "name": "r",
          "type": "bytes32"
        },
        {
          "internalType": "bytes32",
          "name": "s",
          "type": "bytes32"
        }
      ],
      "name": "delegateBySig",
      "outputs": [],
      "stateMutability": "nonpayable",
      "type": "function"
    },
    {
      "inputs": [
        {
          "internalType": "address",
          "name": "",
          "type": "address"
        }
      ],
      "name": "delegates",
      "outputs": [
        {
          "internalType": "address",
          "name": "",
          "type": "address"
        }
      ],
      "stateMutability": "view",
      "type": "function"
    },
    {
      "inputs": [],
      "name": "distributionRound",
      "outputs": [
        {
          "internalType": "uint256",
          "name": "",
          "type": "uint256"
        }
      ],
      "stateMutability": "view",
      "type": "function"
    },
    {
      "inputs": [],
      "name": "domainSeparator",
      "outputs": [
        {
          "internalType": "bytes32",
          "name": "",
          "type": "bytes32"
        }
      ],
      "stateMutability": "view",
      "type": "function"
    },
    {
      "inputs": [
        {
          "internalType": "uint256",
          "name": "i",
          "type": "uint256"
        },
        {
          "internalType": "address",
          "name": "address1",
          "type": "address"
        }
      ],
      "name": "getCorrection",
      "outputs": [
        {
          "internalType": "int256",
          "name": "",
          "type": "int256"
        }
      ],
      "stateMutability": "view",
      "type": "function"
    },
    {
      "inputs": [
        {
          "internalType": "address",
          "name": "account",
          "type": "address"
        }
      ],
      "name": "getCurrentVotes",
      "outputs": [
        {
          "internalType": "uint96",
          "name": "",
          "type": "uint96"
        }
      ],
      "stateMutability": "view",
      "type": "function"
    },
    {
      "inputs": [
        {
          "internalType": "uint256",
          "name": "i",
          "type": "uint256"
        }
      ],
      "name": "getMyVote",
      "outputs": [
        {
          "internalType": "uint256",
          "name": "",
          "type": "uint256"
        }
      ],
      "stateMutability": "view",
      "type": "function"
    },
    {
      "inputs": [
        {
          "internalType": "uint256",
          "name": "i",
          "type": "uint256"
        }
      ],
      "name": "getMyVoteMint",
      "outputs": [
        {
          "internalType": "uint256",
          "name": "",
          "type": "uint256"
        }
      ],
      "stateMutability": "view",
      "type": "function"
    },
    {
      "inputs": [],
      "name": "getNumProposals",
      "outputs": [
        {
          "internalType": "uint256",
          "name": "",
          "type": "uint256"
        }
      ],
      "stateMutability": "view",
      "type": "function"
    },
    {
      "inputs": [],
      "name": "getNumProposalsMint",
      "outputs": [
        {
          "internalType": "uint256",
          "name": "",
          "type": "uint256"
        }
      ],
      "stateMutability": "view",
      "type": "function"
    },
    {
      "inputs": [
        {
          "internalType": "uint256",
          "name": "i",
          "type": "uint256"
        }
      ],
      "name": "getPPS",
      "outputs": [
        {
          "internalType": "uint256",
          "name": "",
          "type": "uint256"
        }
      ],
      "stateMutability": "view",
      "type": "function"
    },
    {
      "inputs": [
        {
          "internalType": "address",
          "name": "account",
          "type": "address"
        },
        {
          "internalType": "uint256",
          "name": "blockNumber",
          "type": "uint256"
        }
      ],
      "name": "getPriorVotes",
      "outputs": [
        {
          "internalType": "uint96",
          "name": "",
          "type": "uint96"
        }
      ],
      "stateMutability": "view",
      "type": "function"
    },
    {
      "inputs": [
        {
          "internalType": "uint256",
          "name": "i",
          "type": "uint256"
        }
      ],
      "name": "getProjDistribute",
      "outputs": [
        {
          "internalType": "uint256",
          "name": "",
          "type": "uint256"
        }
      ],
      "stateMutability": "view",
      "type": "function"
    },
    {
      "inputs": [
        {
          "internalType": "uint256",
          "name": "i",
          "type": "uint256"
        }
      ],
      "name": "getProposal",
      "outputs": [
        {
          "components": [
            {
              "internalType": "uint256",
              "name": "totalVotesForDist",
              "type": "uint256"
            },
            {
              "internalType": "uint256",
              "name": "proposalNumber",
              "type": "uint256"
            },
            {
              "internalType": "uint256",
              "name": "timestamp",
              "type": "uint256"
            },
            {
              "internalType": "bool",
              "name": "hasDeployed",
              "type": "bool"
            },
            {
              "internalType": "uint256",
              "name": "id",
              "type": "uint256"
            },
            {
              "internalType": "uint256",
              "name": "percentToDistribute",
              "type": "uint256"
            },
            {
              "internalType": "uint256",
              "name": "mintAmount",
              "type": "uint256"
            }
          ],
          "internalType": "struct ERC20VotesComp.votingProposalView",
          "name": "",
          "type": "tuple"
        }
      ],
      "stateMutability": "view",
      "type": "function"
    },
    {
      "inputs": [
        {
          "internalType": "uint256",
          "name": "i",
          "type": "uint256"
        }
      ],
      "name": "getProposalMint",
      "outputs": [
        {
          "components": [
            {
              "internalType": "uint256",
              "name": "totalVotesForDist",
              "type": "uint256"
            },
            {
              "internalType": "uint256",
              "name": "proposalNumber",
              "type": "uint256"
            },
            {
              "internalType": "uint256",
              "name": "timestamp",
              "type": "uint256"
            },
            {
              "internalType": "bool",
              "name": "hasDeployed",
              "type": "bool"
            },
            {
              "internalType": "uint256",
              "name": "id",
              "type": "uint256"
            },
            {
              "internalType": "uint256",
              "name": "percentToDistribute",
              "type": "uint256"
            },
            {
              "internalType": "uint256",
              "name": "mintAmount",
              "type": "uint256"
            }
          ],
          "internalType": "struct ERC20VotesComp.votingProposalView",
          "name": "",
          "type": "tuple"
        }
      ],
      "stateMutability": "view",
      "type": "function"
    },
    {
      "inputs": [],
      "name": "getTokenDivLength",
      "outputs": [
        {
          "internalType": "uint256",
          "name": "",
          "type": "uint256"
        }
      ],
      "stateMutability": "view",
      "type": "function"
    },
    {
      "inputs": [
        {
          "internalType": "uint256",
          "name": "amount",
          "type": "uint256"
        }
      ],
      "name": "mintToSelf",
      "outputs": [
        {
          "internalType": "uint256",
          "name": "",
          "type": "uint256"
        }
      ],
      "stateMutability": "nonpayable",
      "type": "function"
    },
    {
      "inputs": [],
      "name": "name",
      "outputs": [
        {
          "internalType": "string",
          "name": "",
          "type": "string"
        }
      ],
      "stateMutability": "view",
      "type": "function"
    },
    {
      "inputs": [
        {
          "internalType": "address",
          "name": "",
          "type": "address"
        }
      ],
      "name": "nonces",
      "outputs": [
        {
          "internalType": "uint256",
          "name": "",
          "type": "uint256"
        }
      ],
      "stateMutability": "view",
      "type": "function"
    },
    {
      "inputs": [
        {
          "internalType": "address",
          "name": "",
          "type": "address"
        }
      ],
      "name": "numCheckpoints",
      "outputs": [
        {
          "internalType": "uint32",
          "name": "",
          "type": "uint32"
        }
      ],
      "stateMutability": "view",
      "type": "function"
    },
    {
      "inputs": [],
      "name": "owner",
      "outputs": [
        {
          "internalType": "address",
          "name": "",
          "type": "address"
        }
      ],
      "stateMutability": "view",
      "type": "function"
    },
    {
      "inputs": [
        {
          "internalType": "address",
          "name": "owner",
          "type": "address"
        },
        {
          "internalType": "address",
          "name": "spender",
          "type": "address"
        },
        {
          "internalType": "uint256",
          "name": "rawAmount",
          "type": "uint256"
        },
        {
          "internalType": "uint256",
          "name": "deadline",
          "type": "uint256"
        },
        {
          "internalType": "uint8",
          "name": "v",
          "type": "uint8"
        },
        {
          "internalType": "bytes32",
          "name": "r",
          "type": "bytes32"
        },
        {
          "internalType": "bytes32",
          "name": "s",
          "type": "bytes32"
        }
      ],
      "name": "permit",
      "outputs": [],
      "stateMutability": "nonpayable",
      "type": "function"
    },
    {
      "inputs": [
        {
          "internalType": "uint256",
          "name": "i",
          "type": "uint256"
        }
      ],
      "name": "placeVoteForDist",
      "outputs": [],
      "stateMutability": "nonpayable",
      "type": "function"
    },
    {
      "inputs": [
        {
          "internalType": "uint256",
          "name": "i",
          "type": "uint256"
        }
      ],
      "name": "placeVoteForDistMint",
      "outputs": [],
      "stateMutability": "nonpayable",
      "type": "function"
    },
    {
      "inputs": [],
      "name": "pointsPerShare",
      "outputs": [
        {
          "internalType": "uint256",
          "name": "",
          "type": "uint256"
        }
      ],
      "stateMutability": "view",
      "type": "function"
    },
    {
      "inputs": [
        {
          "internalType": "uint96",
          "name": "amount",
          "type": "uint96"
        }
      ],
      "name": "redeem",
      "outputs": [],
      "stateMutability": "nonpayable",
      "type": "function"
    },
    {
      "inputs": [
        {
          "internalType": "uint256",
          "name": "i",
          "type": "uint256"
        }
      ],
      "name": "removeVoteForDist",
      "outputs": [],
      "stateMutability": "nonpayable",
      "type": "function"
    },
    {
      "inputs": [],
      "name": "renounceOwnership",
      "outputs": [],
      "stateMutability": "nonpayable",
      "type": "function"
    },
    {
      "inputs": [],
      "name": "selfdestruct",
      "outputs": [],
      "stateMutability": "nonpayable",
      "type": "function"
    },
    {
      "inputs": [],
      "name": "symbol",
      "outputs": [
        {
          "internalType": "string",
          "name": "",
          "type": "string"
        }
      ],
      "stateMutability": "view",
      "type": "function"
    },
    {
      "inputs": [],
      "name": "totalSupply",
      "outputs": [
        {
          "internalType": "uint256",
          "name": "",
          "type": "uint256"
        }
      ],
      "stateMutability": "view",
      "type": "function"
    },
    {
      "inputs": [],
      "name": "totalVotesForDist",
      "outputs": [
        {
          "internalType": "uint256",
          "name": "",
          "type": "uint256"
        }
      ],
      "stateMutability": "view",
      "type": "function"
    },
    {
      "inputs": [
        {
          "internalType": "address",
          "name": "dst",
          "type": "address"
        },
        {
          "internalType": "uint256",
          "name": "rawAmount",
          "type": "uint256"
        }
      ],
      "name": "transfer",
      "outputs": [
        {
          "internalType": "bool",
          "name": "",
          "type": "bool"
        }
      ],
      "stateMutability": "nonpayable",
      "type": "function"
    },
    {
      "inputs": [
        {
          "internalType": "address",
          "name": "src",
          "type": "address"
        },
        {
          "internalType": "address",
          "name": "dst",
          "type": "address"
        },
        {
          "internalType": "uint256",
          "name": "rawAmount",
          "type": "uint256"
        }
      ],
      "name": "transferFrom",
      "outputs": [
        {
          "internalType": "bool",
          "name": "",
          "type": "bool"
        }
      ],
      "stateMutability": "nonpayable",
      "type": "function"
    },
    {
      "inputs": [
        {
          "internalType": "address",
          "name": "newOwner",
          "type": "address"
        }
      ],
      "name": "transferOwnership",
      "outputs": [],
      "stateMutability": "nonpayable",
      "type": "function"
    },
    {
      "inputs": [
        {
          "internalType": "address",
          "name": "account",
          "type": "address"
        }
      ],
      "name": "withdrawableDividendsOf",
      "outputs": [
        {
          "internalType": "uint256",
          "name": "",
          "type": "uint256"
        }
      ],
      "stateMutability": "view",
      "type": "function"
    },
    {
      "inputs": [
        {
          "internalType": "uint256",
          "name": "i",
          "type": "uint256"
        },
        {
          "internalType": "address",
          "name": "account",
          "type": "address"
        }
      ],
      "name": "withdrawableDividendsOf",
      "outputs": [
        {
          "internalType": "uint256",
          "name": "",
          "type": "uint256"
        }
      ],
      "stateMutability": "view",
      "type": "function"
    },
    {
      "inputs": [
        {
          "internalType": "uint256",
          "name": "i",
          "type": "uint256"
        },
        {
          "internalType": "address",
          "name": "account",
          "type": "address"
        }
      ],
      "name": "withdrawableDividendsOf2",
      "outputs": [
        {
          "internalType": "uint256",
          "name": "",
          "type": "uint256"
        }
      ],
      "stateMutability": "view",
      "type": "function"
    },
    {
      "inputs": [
        {
          "internalType": "uint256",
          "name": "i",
          "type": "uint256"
        },
        {
          "internalType": "address",
          "name": "account",
          "type": "address"
        }
      ],
      "name": "withdrawnDividendsOf",
      "outputs": [
        {
          "internalType": "uint256",
          "name": "",
          "type": "uint256"
        }
      ],
      "stateMutability": "view",
      "type": "function"
    },
    {
      "inputs": [
        {
          "internalType": "address",
          "name": "account",
          "type": "address"
        }
      ],
      "name": "withdrawnDividendsOf",
      "outputs": [
        {
          "internalType": "uint256",
          "name": "",
          "type": "uint256"
        }
      ],
      "stateMutability": "view",
      "type": "function"
    }
  ],
  "bytecode": "0x60e0604052600180553480156200001557600080fd5b5060405162005d6438038062005d64833981016040819052620000389162000bb6565b8181620001b760201b6200149417620001db60201b62000bf217838381600590805190602001906200006c92919062000a9b565b5080516200008290600690602084019062000a9b565b50815160208301207f8cad95687ba82c2ce50e74f7b754645e5117c3a5bec8151c0726d5857980a86690620000b6620001ea565b30604051602001620000cc949392919062000c1d565b60408051601f19818403018152919052805160209091012060805250506001600160c01b031960c092831b811660a05290821b169052506000905062000111620001ee565b601480546001600160a01b0319166001600160a01b038316908117909155604051919250906000907f8be0079c531659141344cd1fd0a4f28419497f9722a3daafe3b4186f6b6457e0908290a350620001753369d3c21bcecceda1000000620001f2565b62000180306200021d565b600380546001018082556000828152606492916200019a57fe5b906000526020600020906008020160050181905550505062000d45565b6001600160a01b03166000908152600960205260409020546001600160601b031690565b6007546001600160601b031690565b4690565b3390565b6200020982826200031660201b62002e391760201c565b620002198260008390036200045a565b5050565b6001600160a01b03811662000264576040805162461bcd60e51b8152602060048201526008602482015267041646472657373360c41b604482015290519081900360640190fd5b6000805b601154811015620002ba57826001600160a01b0316601182815481106200028b57fe5b60009182526020909120600890910201546001600160a01b03161415620002b157600191505b60010162000268565b5080620002ce576011805460010181556000525b601180548391906000198101908110620002e457fe5b6000918252602090912060089091020180546001600160a01b0319166001600160a01b03929092169190911790555050565b6001600160a01b038216620003485760405162461bcd60e51b81526004016200033f9062000cad565b60405180910390fd5b60006200035582620004c7565b60075460408051808201909152601581527f6d696e7420616d6f756e74206f766572666c6f777300000000000000000000006020820152919250620003a8916001600160601b03909116908390620004fc565b600780546001600160601b039283166001600160601b0319918216179091556001600160a01b03851660008181526009602052604080822080548087168801909616959094169490941790925591517fddf252ad1be2c89b69c2b068fc378daa952ba7f163c4a11628f55a4df523b3ef906200042690859062000ce4565b60405180910390a36001600160a01b038084166000908152600a6020526040812054620004559216836200053b565b505050565b620004a76200047a600e54836200072d60201b62002f6e1790919060201c565b6001600160a01b0384166000908152600f6020908152604090912054919062003017620007e7821b17901c565b6001600160a01b039092166000908152600f602052604090209190915550565b60006c010000000000000000000000008210620004f85760405162461bcd60e51b81526004016200033f9062000c76565b5090565b6000838301826001600160601b038087169083161015620005325760405162461bcd60e51b81526004016200033f919062000c41565b50949350505050565b816001600160a01b0316836001600160a01b0316141580156200056757506000816001600160601b0316115b1562000455576001600160a01b038316156200064b576001600160a01b0383166000908152600c602052604081205463ffffffff169081620005ab576000620005eb565b6001600160a01b0385166000908152600b60209081526040808320600019860163ffffffff16845290915290205464010000000090046001600160601b03165b905060006200063782856040518060400160405280601681526020017f766f746520616d6f756e7420756e646572666c6f7773000000000000000000008152506200085160201b60201c565b9050620006478684848462000893565b5050505b6001600160a01b0382161562000455576001600160a01b0382166000908152600c602052604081205463ffffffff16908162000689576000620006c9565b6001600160a01b0384166000908152600b60209081526040808320600019860163ffffffff16845290915290205464010000000090046001600160601b03165b905060006200071582856040518060400160405280601581526020017f766f746520616d6f756e74206f766572666c6f77730000000000000000000000815250620004fc60201b60201c565b9050620007258584848462000893565b505050505050565b6000826200073e57506000620007e1565b82600019148015620007535750600160ff1b82145b15620007915760405162461bcd60e51b815260040180806020018281038252602781526020018062005d3d6027913960400191505060405180910390fd5b828202828482816200079f57fe5b0514620007de5760405162461bcd60e51b815260040180806020018281038252602781526020018062005d3d6027913960400191505060405180910390fd5b90505b92915050565b6000828201818312801590620007fd5750838112155b806200081457506000831280156200081457508381125b620007de5760405162461bcd60e51b815260040180806020018281038252602181526020018062005d1c6021913960400191505060405180910390fd5b6000836001600160601b0316836001600160601b0316111582906200088b5760405162461bcd60e51b81526004016200033f919062000c41565b505050900390565b6000620008dc436040518060400160405280601c81526020017f626c6f636b206e756d626572206578636565647320333220626974730000000081525062000a6860201b60201c565b905060008463ffffffff161180156200092657506001600160a01b0385166000908152600b6020908152604080832063ffffffff6000198901811685529252909120548282169116145b1562000982576001600160a01b0385166000908152600b60209081526040808320600019880163ffffffff16845290915290208054600160201b600160801b0319166401000000006001600160601b0385160217905562000a1c565b60408051808201825263ffffffff80841682526001600160601b0380861660208085019182526001600160a01b038b166000818152600b83528781208c87168252835287812096518754945190951664010000000002600160201b600160801b031995871663ffffffff19958616179590951694909417909555938252600c90935292909220805460018801909316929091169190911790555b846001600160a01b03167fdec2bacdd2f05b59de34da9b523dff8be42e5e38e818c82fdb0bae774387a724848460405162000a5992919062000cf8565b60405180910390a25050505050565b600081640100000000841062000a935760405162461bcd60e51b81526004016200033f919062000c41565b509192915050565b828054600181600116156101000203166002900490600052602060002090601f01602090048101928262000ad3576000855562000b1e565b82601f1062000aee57805160ff191683800117855562000b1e565b8280016001018555821562000b1e579182015b8281111562000b1e57825182559160200191906001019062000b01565b50620004f89291505b80821115620004f8576000815560010162000b27565b600082601f83011262000b4e578081fd5b81516001600160401b038082111562000b6357fe5b604051601f8301601f19168101602001828111828210171562000b8257fe5b60405282815284830160200186101562000b9a578384fd5b62000bad83602083016020880162000d12565b95945050505050565b6000806040838503121562000bc9578182fd5b82516001600160401b038082111562000be0578384fd5b62000bee8683870162000b3d565b9350602085015191508082111562000c04578283fd5b5062000c138582860162000b3d565b9150509250929050565b938452602084019290925260408301526001600160a01b0316606082015260800190565b600060208252825180602084015262000c6281604085016020870162000d12565b601f01601f19169190910160400192915050565b60208082526016908201527f616d6f756e742065786365656473203936206269747300000000000000000000604082015260600190565b60208082526018908201527f6d696e7420746f20746865207a65726f20616464726573730000000000000000604082015260600190565b6001600160601b0391909116815260200190565b6001600160601b0392831681529116602082015260400190565b60005b8381101562000d2f57818101518382015260200162000d15565b8381111562000d3f576000848401525b50505050565b60805160a05160c01c60c05160c01c614f9f62000d7d6000395080610c31525080612184528061255d5280612de05250614f9f6000f3fe608060405234801561001057600080fd5b50600436106103ba5760003560e01c80637e245d79116101f4578063c3cda5201161011a578063e5225381116100ad578063f2fde38b1161007c578063f2fde38b146107de578063f698da25146107f1578063f6c902e4146107f9578063f76b404914610801576103ba565b8063e52253811461079a578063e7a324dc146107a2578063ed2f23bd146107aa578063f1127ed8146107bd576103ba565b8063dbb8a024116100e9578063dbb8a0241461074e578063dd62ed3e14610761578063dec2096414610774578063e00bdabc14610787576103ba565b8063c3cda52014610702578063c7f758a814610715578063c9017b1e14610728578063d505accf1461073b576103ba565b806395d89b4111610192578063b1cde24411610161578063b1cde244146106c1578063b4b5ea57146106c9578063b644ea3a146106dc578063bb6d5e3b146106ef576103ba565b806395d89b411461068057806397d839f814610688578063a9059cbb1461069b578063b131e610146106ae576103ba565b80638bd62406116101ce5780638bd624061461064a5780638da5cb5b1461065257806392f143151461065a5780639308c6f21461066d576103ba565b80637e245d791461061c5780637ecebe00146106245780638ae7f4b014610637576103ba565b80634227a4b3116102e4578063679d38e01161027757806373fff2401161024657806373fff240146105ce5780637630c4a8146105e1578063782d6fe1146105f4578063798974dd14610614576103ba565b8063679d38e01461058b5780636fcfff451461059357806370a08231146105b3578063715018a6146105c6576103ba565b806353f83ad7116102b357806353f83ad714610532578063587cde1e146105455780635a9ed1e5146105655780635c19a95c14610578576103ba565b80634227a4b3146104f157806342966c681461050457806349ad80bf1461051757806349f5e05f1461051f576103ba565b80631a60b63d1161035c578063313ce5671161032b578063313ce567146104945780633d8ccf43146104a95780633dbb287c146104c95780633fec91a4146104dc576103ba565b80631a60b63d1461045e57806320606b701461047157806323b872dd1461047957806330adf81f1461048c576103ba565b8063093031e711610398578063093031e714610410578063095ea7b3146104235780630f9360151461044357806318160ddd14610456576103ba565b806301d07385146103bf578063050fcdf6146103e857806306fdde03146103fb575b600080fd5b6103d26103cd36600461483a565b610814565b6040516103df91906148e1565b60405180910390f35b6103d26103f636600461483a565b6108de565b61040361091e565b6040516103df9190614960565b6103d261041e36600461480a565b6109ac565b610436610431366004614677565b6109d5565b6040516103df91906148d6565b6103d261045136600461483a565b610a7e565b6103d2610bf2565b6103d261046c366004614587565b610c01565b6103d2610cdf565b6104366104873660046145d3565b610d03565b6103d2610e2c565b61049c610e50565b6040516103df9190614e7f565b6104bc6104b736600461480a565b610e55565b6040516103df9190614dff565b6103d26104d736600461483a565b610f9f565b6104ef6104ea36600461480a565b610fdf565b005b6103d26104ff36600461480a565b611074565b6103d261051236600461480a565b6110cb565b6103d2611193565b6103d261052d36600461480a565b611199565b6103d2610540366004614587565b611236565b610558610553366004614587565b611251565b6040516103df919061489e565b6103d261057336600461483a565b61126c565b6104ef610586366004614587565b6113e4565b6104ef6113f1565b6105a66105a1366004614587565b61147c565b6040516103df9190614e4f565b6103d26105c1366004614587565b611494565b6104ef6114b8565b6104ef6105dc36600461480a565b611576565b6104ef6105ef36600461485c565b611775565b610607610602366004614677565b6119ff565b6040516103df9190614e8d565b6103d2611c0b565b6103d2611c11565b6103d2610632366004614587565b611c17565b6104ef610645366004614587565b611c29565b6103d2611ca6565b610558611cac565b6103d261066836600461480a565b611cbb565b6104ef61067b366004614735565b611da0565b610403611e44565b6103d261069636600461483a565b611e9f565b6104366106a9366004614677565b611eab565b6103d26106bc366004614587565b611ece565b6103d2611f6e565b6106076106d7366004614587565b611f74565b6104ef6106ea36600461480a565b611fe6565b6103d26106fd36600461480a565b61208f565b6104ef6107103660046146a0565b61212f565b6104bc61072336600461480a565b6122bc565b6103d261073636600461483a565b6123dd565b6104ef61074936600461460e565b6124c5565b6103d261075c36600461480a565b6126fc565b6103d261076f3660046145a1565b612724565b6104ef61078236600461480a565b612758565b6103d261079536600461480a565b612977565b6104ef61299f565b6103d2612b94565b6104ef6107b836600461480a565b612bb8565b6107d06107cb3660046146f7565b612c93565b6040516103df929190614e60565b6104ef6107ec366004614587565b612cc9565b6103d2612dde565b6103d2612e02565b6103d261080f36600461480a565b612e08565b60008061082184846123dd565b905080156108d557610869816011868154811061083a57fe5b600091825260208083206001600160a01b0389168452600460089093020191909101905260409020549061307c565b6011858154811061087657fe5b600091825260208083206001600160a01b038816845260046008909302019190910190526040902055601180546108d3918391879081106108b357fe5b90600052602060002090600802016005015461307c90919063ffffffff16565b505b90505b92915050565b6000601183815481106108ed57fe5b600091825260208083206001600160a01b038616845260036008909302019190910190526040902054905092915050565b6005805460408051602060026001851615610100026000190190941693909304601f810184900484028201840190925281815292918301828280156109a45780601f10610979576101008083540402835291602001916109a4565b820191906000526020600020905b81548152906001019060200180831161098757829003601f168201915b505050505081565b6000601182815481106109bb57fe5b90600052602060002090600802016005015490505b919050565b6000806000198314156109eb57506000196109f7565b6109f48361308c565b90505b3360008181526008602090815260408083206001600160a01b03891680855292529182902080546bffffffffffffffffffffffff19166001600160601b03861617905590519091907f8c5be1e5ebec7d5bd14f71427d1e84f3dd0314c0f7b2291e5b200ac8c7c3b92590610a6c908590614e8d565b60405180910390a35060019392505050565b600080610aa860118581548110610a9157fe5b9060005260206000209060080201600101546130be565b90506000610b516011600081548110610abd57fe5b60009182526020909120600890910201546040516370a0823160e01b81526001600160a01b03909116906370a0823190610afb90889060040161489e565b60206040518083038186803b158015610b1357600080fd5b505afa158015610b27573d6000803e3d6000fd5b505050506040513d601f19601f82011682018060405250810190610b4b9190614822565b836130d0565b9050600060118681548110610b6257fe5b600091825260208083206001600160a01b03891684526003600890930201919091019052604081205483019150811215610bd257600081810390821215610ba882613129565b90610bcf5760405162461bcd60e51b8152600401610bc69190614960565b60405180910390fd5b50505b806000610be6826001600160801b0361321c565b98975050505050505050565b6007546001600160601b031690565b6001600160a01b0381166000908152600f60205260408120548190610c6790610c61610c5c610c538763ffffffff7f000000000000000000000000000000000000000000000000000000000000000016565b600e549061327b565b6130be565b90613017565b90506000811215610cbf576040805162461bcd60e51b815260206004820152601460248201527f6e6574206e656761746976652062616c616e6365000000000000000000000000604482015290519081900360640190fd5b6001600160801b03610cd08261329f565b81610cd757fe5b049392505050565b7f8cad95687ba82c2ce50e74f7b754645e5117c3a5bec8151c0726d5857980a86681565b6001600160a01b03831660009081526008602090815260408083203380855292528220546001600160601b031682610d3a8561308c565b9050866001600160a01b0316836001600160a01b031614158015610d6757506001600160601b0382811614155b15610e14576000610d918383604051806060016040528060248152602001614f03602491396132ae565b6001600160a01b038981166000818152600860209081526040808320948a168084529482529182902080546bffffffffffffffffffffffff19166001600160601b03871690811790915582519081529151949550929391927f8c5be1e5ebec7d5bd14f71427d1e84f3dd0314c0f7b2291e5b200ac8c7c3b92592918290030190a3505b610e1f8787836132ed565b5060019695505050505050565b7f6e71edae12b1b97f4d1f60370fef10105fa2faae0126114a169c64845d6126c981565b601281565b610e5d614520565b6004548210610e7e5760405162461bcd60e51b8152600401610bc690614cec565b610e86614520565b60048381548110610e9357fe5b600091825260209091206008909102015481526004805484908110610eb457fe5b90600052602060002090600802016001015481602001818152505060048381548110610edc57fe5b90600052602060002090600802016002015481604001818152505060048381548110610f0457fe5b600091825260209091206003600890920201015460ff16151560608201526004805484908110610f3057fe5b90600052602060002090600802016004015481608001818152505060048381548110610f5857fe5b9060005260206000209060080201600501548160a001818152505060048381548110610f8057fe5b600091825260209091206008909102016006015460c082015292915050565b600060118381548110610fae57fe5b600091825260208083206001600160a01b038616845260046008909302019190910190526040902054905092915050565b6003805460018101808355600083905290919082908110610ffc57fe5b600091825260209091206004600890920201015560038054600019810191908290811061102557fe5b9060005260206000209060080201600101819055506064811115611047575060645b60038054829190600019810190811061105c57fe5b90600052602060002090600802016005018190555050565b60045460009082106110985760405162461bcd60e51b8152600401610bc690614cec565b600482815481106110a557fe5b600091825260208083203384526008929092029091016007019052604090205492915050565b60006110d5613328565b6001600160a01b03166110e6611cac565b6001600160a01b031614611141576040805162461bcd60e51b815260206004820181905260248201527f4f776e61626c653a2063616c6c6572206973206e6f7420746865206f776e6572604482015290519081900360640190fd5b600082116111615760405162461bcd60e51b8152600401610bc690614c10565b8161116b33611494565b10156111895760405162461bcd60e51b8152600401610bc690614a58565b6109d0338361332c565b60115490565b6000601182815481106111a857fe5b60009182526020909120600890910201546040516370a0823160e01b81526001600160a01b03909116906370a08231906111e690309060040161489e565b60206040518083038186803b1580156111fe57600080fd5b505afa158015611212573d6000803e3d6000fd5b505050506040513d601f19601f820116820180604052508101906108d89190614822565b6001600160a01b031660009081526010602052604090205490565b600a602052600090815260409020546001600160a01b031681565b60008061127f60118581548110610a9157fe5b90506000611326601160008154811061129457fe5b600091825260209182902060089091020154604080516370a0823160e01b81526001600160a01b038981166004830152915191909216926370a082319260248082019391829003018186803b1580156112ec57600080fd5b505afa158015611300573d6000803e3d6000fd5b505050506040513d602081101561131657600080fd5b50516113218461329f565b6130d0565b9050600061136c6011878154811061133a57fe5b600091825260208083206001600160a01b038a16845260036008909302019190910190526040902054610c61846130be565b905060008112156113c4576040805162461bcd60e51b815260206004820152600960248201527f6e656756616c3333330000000000000000000000000000000000000000000000604482015290519081900360640190fd5b60006113cf8261329f565b90506000610be6826001600160801b0361321c565b6113ee3382613340565b50565b6113f9613328565b6001600160a01b031661140a611cac565b6001600160a01b031614611465576040805162461bcd60e51b815260206004820181905260248201527f4f776e61626c653a2063616c6c6572206973206e6f7420746865206f776e6572604482015290519081900360640190fd5b73e640a1777a9943ecd1ee89e9a3e039cb962d37afff5b600c6020526000908152604090205463ffffffff1681565b6001600160a01b03166000908152600960205260409020546001600160601b031690565b6114c0613328565b6001600160a01b03166114d1611cac565b6001600160a01b03161461152c576040805162461bcd60e51b815260206004820181905260248201527f4f776e61626c653a2063616c6c6572206973206e6f7420746865206f776e6572604482015290519081900360640190fd5b6014546040516000916001600160a01b0316907f8be0079c531659141344cd1fd0a4f28419497f9722a3daafe3b4186f6b6457e0908390a3601480546001600160a01b0319169055565b60045481106115975760405162461bcd60e51b8152600401610bc690614cec565b600481815481106115a457fe5b6000918252602080832033845260076008909302019190910190526040902054156115e15760405162461bcd60e51b8152600401610bc6906149ea565b600481815481106115ee57fe5b600091825260209091206003600890920201015460ff16156116225760405162461bcd60e51b8152600401610bc690614ba2565b61165261162e33611494565b6004838154811061163b57fe5b6000918252602090912060089091020154906133c4565b6004828154811061165f57fe5b600091825260209091206008909102015561167933611494565b6004828154811061168657fe5b60009182526020808320338452600760089093020191909101905260409020556116cb60026116c56116b730611494565b6116bf610bf2565b9061341e565b9061321c565b600482815481106116d857fe5b90600052602060002090600802016000015411156113ee57611718306004838154811061170157fe5b90600052602060002090600802016006015461347b565b60016004828154811061172757fe5b906000526020600020906008020160030160006101000a81548160ff021916908315150217905550426004828154811061175d57fe5b90600052602060002090600802016002018190555050565b6000306001600160a01b03166318160ddd6040518163ffffffff1660e01b815260040160206040518083038186803b1580156117b057600080fd5b505afa1580156117c4573d6000803e3d6000fd5b505050506040513d601f19601f820116820180604052508101906117e89190614822565b905060005b6011548110156119ef5760006118556001600160801b0380166116c56011858154811061181657fe5b9060005260206000209060080201600201546011868154811061183557fe5b9060005260206000209060080201600101546130d090919063ffffffff16565b905060006011838154811061186657fe5b60009182526020909120600890910201546040516370a0823160e01b81526001600160a01b03909116906370a08231906118a490309060040161489e565b60206040518083038186803b1580156118bc57600080fd5b505afa1580156118d0573d6000803e3d6000fd5b505050506040513d601f19601f820116820180604052508101906118f49190614822565b905060006011848154811061190557fe5b60009182526020822060056008909202010154848403019150611935866116c5846001600160601b038b166130d0565b905080156119e0576011858154811061194a57fe5b60009182526020909120600890910201546040516323b872dd60e01b81526001600160a01b03909116906323b872dd9061198c903090339086906004016148b2565b602060405180830381600087803b1580156119a657600080fd5b505af11580156119ba573d6000803e3d6000fd5b505050506040513d601f19601f820116820180604052508101906119de91906147ea565b505b505050508060010190506117ed565b506119fb3330846132ed565b5050565b6000438210611a205760405162461bcd60e51b8152600401610bc690614afd565b6001600160a01b0383166000908152600c602052604090205463ffffffff1680611a4e5760009150506108d8565b6001600160a01b0384166000908152600b6020908152604080832063ffffffff600019860181168552925290912054168310611acb576001600160a01b0384166000908152600b602090815260408083206000199490940163ffffffff168352929052205464010000000090046001600160601b031690506108d8565b6001600160a01b0384166000908152600b6020908152604080832083805290915290205463ffffffff16831015611b065760009150506108d8565b600060001982015b8163ffffffff168163ffffffff161115611bc5576000600263ffffffff848403166001600160a01b0389166000908152600b6020908152604080832094909304860363ffffffff8181168452948252918390208351808501909452549384168084526401000000009094046001600160601b031690830152925090871415611ba0576020015194506108d89350505050565b805163ffffffff16871115611bb757819350611bbe565b6001820392505b5050611b0e565b506001600160a01b0385166000908152600b6020908152604080832063ffffffff909416835292905220546001600160601b036401000000009091041691505092915050565b60035490565b600e5481565b600d6020526000908152604090205481565b611c31613328565b6001600160a01b0316611c42611cac565b6001600160a01b031614611c9d576040805162461bcd60e51b815260206004820181905260248201527f4f776e61626c653a2063616c6c6572206973206e6f7420746865206f776e6572604482015290519081900360640190fd5b6113ee81613492565b60005481565b6014546001600160a01b031690565b60008060118381548110611ccb57fe5b90600052602060002090600802016005015460118481548110611cea57fe5b90600052602060002090600802016007015460118581548110611d0957fe5b60009182526020909120600890910201546040516370a0823160e01b81526001600160a01b03909116906370a0823190611d4790309060040161489e565b60206040518083038186803b158015611d5f57600080fd5b505afa158015611d73573d6000803e3d6000fd5b505050506040513d601f19601f82011682018060405250810190611d979190614822565b03019392505050565b611da8613328565b6001600160a01b0316611db9611cac565b6001600160a01b031614611e14576040805162461bcd60e51b815260206004820181905260248201527f4f776e61626c653a2063616c6c6572206973206e6f7420746865206f776e6572604482015290519081900360640190fd5b60005b81518110156119fb57611e3c828281518110611e2f57fe5b6020026020010151613492565b600101611e17565b6006805460408051602060026001851615610100026000190190941693909304601f810184900484028201840190925281815292918301828280156109a45780601f10610979576101008083540402835291602001916109a4565b60006108d583836123dd565b600080611eb78361308c565b9050611ec43385836132ed565b5060019392505050565b6000611ed982610c01565b6001600160a01b0383166000908152601060205260409020541115611f45576040805162461bcd60e51b815260206004820152600960248201527f77726f6e672076616c0000000000000000000000000000000000000000000000604482015290519081900360640190fd5b6001600160a01b038216600090815260106020526040902054611f6783610c01565b0392915050565b60015481565b6001600160a01b0381166000908152600c602052604081205463ffffffff1680611f9f576000611fdf565b6001600160a01b0383166000908152600b60209081526040808320600019850163ffffffff16845290915290205464010000000090046001600160601b03165b9392505050565b600081116120065760405162461bcd60e51b8152600401610bc690614dc8565b600480546001810180835560008390529091908290811061202357fe5b6000918252602090912060046008909202018101919091558054600019810191908290811061204e57fe5b600091825260209091206001600890920201015560048054829190600019810190811061207757fe5b90600052602060002090600802016006018190555050565b6000612099613328565b6001600160a01b03166120aa611cac565b6001600160a01b031614612105576040805162461bcd60e51b815260206004820181905260248201527f4f776e61626c653a2063616c6c6572206973206e6f7420746865206f776e6572604482015290519081900360640190fd5b600082116121255760405162461bcd60e51b8152600401610bc690614bd9565b6109d0338361347b565b60007fe48329057bfd03d55e49b547132e39cffd9c1820ad7b9d4c5307691425d15adf878787604051602001612168949392919061491e565b60405160208183030381529060405280519060200120905060007f0000000000000000000000000000000000000000000000000000000000000000826040516020016121b5929190614883565b6040516020818303038152906040528051906020012090506000600182878787604051600081526020016040526040516121f29493929190614942565b6020604051602081039080840390855afa158015612214573d6000803e3d6000fd5b5050604051601f1901519150506001600160a01b0381166122475760405162461bcd60e51b8152600401610bc6906149b3565b6001600160a01b0381166000908152600d6020526040902080546001810190915588146122865760405162461bcd60e51b8152600401610bc690614b6b565b864211156122a65760405162461bcd60e51b8152600401610bc690614d91565b6122b0818a613340565b5050505b505050505050565b6122c4614520565b60035482106122e55760405162461bcd60e51b8152600401610bc690614cec565b6122ed614520565b600383815481106122fa57fe5b60009182526020909120600890910201548152600380548490811061231b57fe5b9060005260206000209060080201600101548160200181815250506003838154811061234357fe5b9060005260206000209060080201600201548160400181815250506003838154811061236b57fe5b60009182526020909120600360089092020181015460ff161515606083015280548490811061239657fe5b906000526020600020906008020160040154816080018181525050600383815481106123be57fe5b600091825260209091206008909102016005015460a082015292915050565b6000601183815481106123ec57fe5b600091825260208083206001600160a01b03861684526004600890930201919091019052604090205461241f848461126c565b1015612472576040805162461bcd60e51b815260206004820152600960248201527f77726f6e6720766c320000000000000000000000000000000000000000000000604482015290519081900360640190fd5b60006124bd6011858154811061248457fe5b600091825260208083206001600160a01b0388168452600460089093020191909101905260409020546124b7868661126c565b90613599565b949350505050565b60006000198614156124da57506000196124e6565b6124e38661308c565b90505b6001600160a01b0388166000908152600d602090815260408083208054600181019091559051612541927f6e71edae12b1b97f4d1f60370fef10105fa2faae0126114a169c64845d6126c9928d928d928d92918d91016148ea565b60405160208183030381529060405280519060200120905060007f00000000000000000000000000000000000000000000000000000000000000008260405160200161258e929190614883565b6040516020818303038152906040528051906020012090506000600182888888604051600081526020016040526040516125cb9493929190614942565b6020604051602081039080840390855afa1580156125ed573d6000803e3d6000fd5b5050604051601f1901519150506001600160a01b0381166126205760405162461bcd60e51b8152600401610bc6906149b3565b8a6001600160a01b0316816001600160a01b0316146126515760405162461bcd60e51b8152600401610bc690614c47565b874211156126715760405162461bcd60e51b8152600401610bc690614d91565b6001600160a01b038b81166000818152600860209081526040808320948f16808452949091529081902080546bffffffffffffffffffffffff19166001600160601b038916179055517f8c5be1e5ebec7d5bd14f71427d1e84f3dd0314c0f7b2291e5b200ac8c7c3b925906126e7908890614e8d565b60405180910390a35050505050505050505050565b60006011828154811061270b57fe5b9060005260206000209060080201600101549050919050565b6001600160a01b0391821660009081526008602090815260408083209390941682529190915220546001600160601b031690565b60035481106127795760405162461bcd60e51b8152600401610bc690614cec565b6003818154811061278657fe5b6000918252602080832033845260076008909302019190910190526040902054156127c35760405162461bcd60e51b8152600401610bc6906149ea565b600381815481106127d057fe5b600091825260209091206003600890920201015460ff16156128045760405162461bcd60e51b8152600401610bc690614ba2565b61281d61281033611494565b6003838154811061163b57fe5b6003828154811061282a57fe5b600091825260209091206008909102015561284433611494565b6003828154811061285157fe5b600091825260208083203384526007600890930201919091019052604090205561288260026116c56116b730611494565b6003828154811061288f57fe5b90600052602060002090600802016000015411156113ee576128af6135a9565b6001600382815481106128be57fe5b906000526020600020906008020160030160006101000a81548160ff02191690831515021790555042600382815481106128f457fe5b60009182526020822060026008909202010191909155600380546001810180835592829052918290811061292457fe5b600091825260209091206001600890920201015560038054600019810191908290811061294d57fe5b60009182526020909120600460089092020101556003805460649190600019810190811061105c57fe5b60006011828154811061298657fe5b9060005260206000209060080201600701549050919050565b6000805b6011548110156119fb576129b78133610814565b91508115612b8c578015612b2657601181815481106129d257fe5b60009182526020909120600890910201546040516370a0823160e01b81526001600160a01b03909116906370a0823190612a1090309060040161489e565b60206040518083038186803b158015612a2857600080fd5b505afa158015612a3c573d6000803e3d6000fd5b505050506040513d601f19601f82011682018060405250810190612a609190614822565b821115612a7f5760405162461bcd60e51b8152600401610bc690614b34565b60118181548110612a8c57fe5b60009182526020909120600890910201546040516323b872dd60e01b81526001600160a01b03909116906323b872dd90612ace903090339087906004016148b2565b602060405180830381600087803b158015612ae857600080fd5b505af1158015612afc573d6000803e3d6000fd5b505050506040513d601f19601f82011682018060405250810190612b2091906147ea565b50612b8c565b6001600160601b03821115612b4d5760405162461bcd60e51b8152600401610bc690614c7e565b612b5630611494565b821115612b6283613129565b90612b805760405162461bcd60e51b8152600401610bc69190614960565b50612b8c3033846132ed565b6001016129a3565b7fe48329057bfd03d55e49b547132e39cffd9c1820ad7b9d4c5307691425d15adf81565b6003548110612bd95760405162461bcd60e51b8152600401610bc690614cec565b600060038281548110612be857fe5b600091825260208083203384526007600890930201919091019052604090205411612c255760405162461bcd60e51b8152600401610bc690614cb5565b3360009081526002602052604090205460038054612c6092919084908110612c4957fe5b60009182526020909120600890910201549061341e565b60038281548110612c6d57fe5b600091825260208083206008909202909101929092553381526002909152604081205550565b600b60209081526000928352604080842090915290825290205463ffffffff81169064010000000090046001600160601b031682565b612cd1613328565b6001600160a01b0316612ce2611cac565b6001600160a01b031614612d3d576040805162461bcd60e51b815260206004820181905260248201527f4f776e61626c653a2063616c6c6572206973206e6f7420746865206f776e6572604482015290519081900360640190fd5b6001600160a01b038116612d825760405162461bcd60e51b8152600401808060200182810382526026815260200180614ebc6026913960400191505060405180910390fd5b6014546040516001600160a01b038084169216907f8be0079c531659141344cd1fd0a4f28419497f9722a3daafe3b4186f6b6457e090600090a3601480546001600160a01b0319166001600160a01b0392909216919091179055565b7f000000000000000000000000000000000000000000000000000000000000000081565b60045490565b6003546000908210612e2c5760405162461bcd60e51b8152600401610bc690614cec565b600382815481106110a557fe5b6001600160a01b038216612e5f5760405162461bcd60e51b8152600401610bc690614d5a565b6000612e6a8261308c565b60075460408051808201909152601581527f6d696e7420616d6f756e74206f766572666c6f777300000000000000000000006020820152919250612ebb916001600160601b03909116908390613829565b600780546001600160601b039283166bffffffffffffffffffffffff19918216179091556001600160a01b03851660008181526009602052604080822080548087168801909616959094169490941790925591517fddf252ad1be2c89b69c2b068fc378daa952ba7f163c4a11628f55a4df523b3ef90612f3c908590614e8d565b60405180910390a36001600160a01b038084166000908152600a6020526040812054612f6992168361385c565b505050565b600082612f7d575060006108d8565b82600019148015612f915750600160ff1b82145b15612fcd5760405162461bcd60e51b8152600401808060200182810382526027815260200180614f486027913960400191505060405180910390fd5b82820282848281612fda57fe5b05146108d55760405162461bcd60e51b8152600401808060200182810382526027815260200180614f486027913960400191505060405180910390fd5b600082820181831280159061302c5750838112155b80613041575060008312801561304157508381125b6108d55760405162461bcd60e51b8152600401808060200182810382526021815260200180614ee26021913960400191505060405180910390fd5b808201828110156108d857600080fd5b60006c0100000000000000000000000082106130ba5760405162461bcd60e51b8152600401610bc690614a21565b5090565b6000600160ff1b82106130ba57600080fd5b6000826130df575060006108d8565b828202828482816130ec57fe5b04146108d55760405162461bcd60e51b8152600401808060200182810382526021815260200180614f276021913960400191505060405180910390fd5b60608161314e57506040805180820190915260018152600360fc1b60208201526109d0565b8160005b811561316657600101600a82049150613152565b60008167ffffffffffffffff8111801561317f57600080fd5b506040519080825280601f01601f1916602001820160405280156131aa576020820181803683370190505b50859350905060001982015b831561321357600a840660300160f81b828280600190039350815181106131d957fe5b60200101907effffffffffffffffffffffffffffffffffffffffffffffffffffffffffffff1916908160001a905350600a840493506131b6565b50949350505050565b6000808211613272576040805162461bcd60e51b815260206004820152601a60248201527f536166654d6174683a206469766973696f6e206279207a65726f000000000000604482015290519081900360640190fd5b818381610cd757fe5b60008215806132965750508181028183828161329357fe5b04145b6108d857600080fd5b6000808212156130ba57600080fd5b6000836001600160601b0316836001600160601b0316111582906132e55760405162461bcd60e51b8152600401610bc69190614960565b505050900390565b6132f8838383613a2a565b60005b6011548110156133225761331a818585856001600160601b0316613db5565b6001016132fb565b50505050565b3390565b6133368282613ef2565b6119fb8282614038565b6001600160a01b038083166000818152600a6020818152604080842080546009845282862054949093528787166001600160a01b031984168117909155905191909516946001600160601b039092169391928592917f3134e8a2e6d97e929a7e54011ea5485d7d196dd5f0ba4d4ef95803e8e3fc257f9190a461332282848361385c565b6000828201838110156108d5576040805162461bcd60e51b815260206004820152601b60248201527f536166654d6174683a206164646974696f6e206f766572666c6f770000000000604482015290519081900360640190fd5b600082821115613475576040805162461bcd60e51b815260206004820152601e60248201527f536166654d6174683a207375627472616374696f6e206f766572666c6f770000604482015290519081900360640190fd5b50900390565b6134858282612e39565b6119fb8282600003614038565b6001600160a01b0381166134ed576040805162461bcd60e51b815260206004820152600860248201527f4164647265737330000000000000000000000000000000000000000000000000604482015290519081900360640190fd5b6000805b60115481101561353f57826001600160a01b03166011828154811061351257fe5b60009182526020909120600890910201546001600160a01b0316141561353757600191505b6001016134f1565b5080613552576011805460010181556000525b60118054839190600019810190811061356757fe5b6000918252602090912060089091020180546001600160a01b0319166001600160a01b03929092169190911790555050565b808203828111156108d857600080fd5b6040516370a0823160e01b81526136919030906370a08231906135d090839060040161489e565b60206040518083038186803b1580156135e857600080fd5b505afa1580156135fc573d6000803e3d6000fd5b505050506040513d601f19601f820116820180604052508101906136209190614822565b306001600160a01b03166318160ddd6040518163ffffffff1660e01b815260040160206040518083038186803b15801561365957600080fd5b505afa15801561366d573d6000803e3d6000fd5b505050506040513d601f19601f820116820180604052508101906116bf9190614822565b60125560005b6011548110156113ee576000613766601183815481106136b357fe5b906000526020600020906008020160050154601184815481106136d257fe5b60009182526020909120600890910201546040516370a0823160e01b81526001600160a01b03909116906370a082319061371090309060040161489e565b60206040518083038186803b15801561372857600080fd5b505afa15801561373c573d6000803e3d6000fd5b505050506040513d601f19601f820116820180604052508101906137609190614822565b906133c4565b905060006137b46001600160801b0380166011858154811061378457fe5b6000918252602080832030845260036008909302019190910190526040902054816137ab57fe5b84919005613017565b9050600081131561381f5780601184815481106137cd57fe5b906000526020600020906008020160070154101561381f5761381f8361381a601186815481106137f957fe5b9060005260206000209060080201600701548461408f90919063ffffffff16565b6140f4565b5050600101613697565b6000838301826001600160601b0380871690831610156132135760405162461bcd60e51b8152600401610bc69190614960565b816001600160a01b0316836001600160a01b03161415801561388757506000816001600160601b0316115b15612f69576001600160a01b0383161561395d576001600160a01b0383166000908152600c602052604081205463ffffffff1690816138c7576000613907565b6001600160a01b0385166000908152600b60209081526040808320600019860163ffffffff16845290915290205464010000000090046001600160601b03165b9050600061394b82856040518060400160405280601681526020017f766f746520616d6f756e7420756e646572666c6f7773000000000000000000008152506132ae565b90506139598684848461431c565b5050505b6001600160a01b03821615612f69576001600160a01b0382166000908152600c602052604081205463ffffffff1690816139985760006139d8565b6001600160a01b0384166000908152600b60209081526040808320600019860163ffffffff16845290915290205464010000000090046001600160601b03165b90506000613a1c82856040518060400160405280601581526020017f766f746520616d6f756e74206f766572666c6f77730000000000000000000000815250613829565b90506122b48584848461431c565b6001600160a01b038316613a505760405162461bcd60e51b8152600401610bc690614a8f565b6001600160a01b038216613a765760405162461bcd60e51b8152600401610bc690614ac6565b6001600160a01b038216600090815260096020908152604091829020548251808401909352600a83527f7472616e7366657232320000000000000000000000000000000000000000000091830191909152613ade916001600160601b03909116908390613829565b6001600160a01b03838116600090815260096020908152604080832080546bffffffffffffffffffffffff19166001600160601b03968716179055928716825290829020548251808401909352600583527f737562323200000000000000000000000000000000000000000000000000000091830191909152613b6492169083906132ae565b6001600160a01b038481166000818152600960205260409081902080546bffffffffffffffffffffffff19166001600160601b039590951694909417909355915190841691907fddf252ad1be2c89b69c2b068fc378daa952ba7f163c4a11628f55a4df523b3ef90613bd7908590614e8d565b60405180910390a36001600160a01b038084166000908152600a6020526040808220548584168352912054613c119291821691168361385c565b600354600090600a1115613c26576000613c2e565b600354600919015b90506000815b6003548110156122b457600060038281548110613c4d57fe5b600091825260208083206001600160a01b038b16845260076008909302019190910190526040902054118015613ca4575060038181548110613c8b57fe5b600091825260209091206003600890920201015460ff16155b15613dad5760038181548110613cb657fe5b600091825260208083206001600160a01b038a168452600760089093020191909101905260409020546001600160601b03851610613d295760038181548110613cfb57fe5b600091825260208083206001600160a01b038a16845260076008909302019190910190526040902054613d34565b836001600160601b03165b9150613d768260038381548110613d4757fe5b600091825260208083206001600160a01b038c168452600760089093020191909101905260409020549061341e565b60038281548110613d8357fe5b600091825260208083206001600160a01b038b168452600760089093020191909101905260409020555b600101613c34565b6000613deb610c5c8360118881548110613dcb57fe5b90600052602060002090600802016001015461327b90919063ffffffff16565b9050613e2d8160118781548110613dfe57fe5b600091825260208083206001600160a01b038a1684526003600890930201919091019052604090205490613017565b60118681548110613e3a57fe5b600091825260208083206001600160a01b03891684526003600890930201919091019052604090205560118054613ea691839188908110613e7757fe5b600091825260208083206001600160a01b0389168452600360089093020191909101905260409020549061408f565b60118681548110613eb357fe5b90600052602060002090600802016003016000856001600160a01b03166001600160a01b03168152602001908152602001600020819055505050505050565b6001600160a01b038216613f185760405162461bcd60e51b8152600401610bc690614d23565b6000613f238261308c565b6001600160a01b038416600090815260096020908152604091829020548251808401909352601b83527f6275726e20616d6f756e7420657863656564732062616c616e6365000000000091830191909152919250613f8c916001600160601b03169083906132ae565b6001600160a01b03841660008181526009602052604080822080546bffffffffffffffffffffffff199081166001600160601b0396871617909155600780549182169186168790039095161790935591517fddf252ad1be2c89b69c2b068fc378daa952ba7f163c4a11628f55a4df523b3ef9061400a908590614e8d565b60405180910390a36001600160a01b038084166000908152600a6020526040812054612f699216908361385c565b61406f614050600e5483612f6e90919063ffffffff16565b6001600160a01b0384166000908152600f602052604090205490613017565b6001600160a01b039092166000908152600f602052604090209190915550565b60008183038183128015906140a45750838113155b806140b957506000831280156140b957508381135b6108d55760405162461bcd60e51b8152600401808060200182810382526024815260200180614f6f6024913960400191505060405180910390fd5b60006001600160801b03801661414f6011858154811061411057fe5b9060005260206000209060080201600101546011868154811061412f57fe5b90600052602060002090600802016002015461327b90919063ffffffff16565b8161415657fe5b0490506000614165828461307c565b90506f4b3b4ca85a86c47a098a224000000000811061418382613129565b9061420c5760405162461bcd60e51b81526004018080602001828103825283818151815260200191508051906020019080838360005b838110156141d15781810151838201526020016141b9565b50505050905090810190601f1680156141fe5780820380516001836020036101000a031916815260200191505b509250505060405180910390fd5b50601254614221826001600160801b0361327b565b8161422857fe5b046011858154811061423657fe5b9060005260206000209060080201600101819055506012546011858154811061425b57fe5b9060005260206000209060080201600201819055506142a1836011868154811061428157fe5b90600052602060002090600802016006015461307c90919063ffffffff16565b601185815481106142ae57fe5b9060005260206000209060080201600601819055506142f483601186815481106142d457fe5b90600052602060002090600802016007015461307c90919063ffffffff16565b6011858154811061430157fe5b90600052602060002090600802016007018190555050505050565b600061435d436040518060400160405280601c81526020017f626c6f636b206e756d62657220657863656564732033322062697473000000008152506144f0565b905060008463ffffffff161180156143a657506001600160a01b0385166000908152600b6020908152604080832063ffffffff6000198901811685529252909120548282169116145b15614406576001600160a01b0385166000908152600b60209081526040808320600019880163ffffffff168452909152902080546fffffffffffffffffffffffff0000000019166401000000006001600160601b038516021790556144a6565b60408051808201825263ffffffff80841682526001600160601b0380861660208085019182526001600160a01b038b166000818152600b83528781208c871682528352878120965187549451909516640100000000026fffffffffffffffffffffffff000000001995871663ffffffff19958616179590951694909417909555938252600c90935292909220805460018801909316929091169190911790555b846001600160a01b03167fdec2bacdd2f05b59de34da9b523dff8be42e5e38e818c82fdb0bae774387a72484846040516144e1929190614ea1565b60405180910390a25050505050565b60008164010000000084106145185760405162461bcd60e51b8152600401610bc69190614960565b509192915050565b6040518060e001604052806000815260200160008152602001600081526020016000151581526020016000815260200160008152602001600081525090565b80356001600160a01b03811681146109d057600080fd5b803560ff811681146109d057600080fd5b600060208284031215614598578081fd5b6108d58261455f565b600080604083850312156145b3578081fd5b6145bc8361455f565b91506145ca6020840161455f565b90509250929050565b6000806000606084860312156145e7578081fd5b6145f08461455f565b92506145fe6020850161455f565b9150604084013590509250925092565b600080600080600080600060e0888a031215614628578283fd5b6146318861455f565b965061463f6020890161455f565b9550604088013594506060880135935061465b60808901614576565b925060a0880135915060c0880135905092959891949750929550565b60008060408385031215614689578182fd5b6146928361455f565b946020939093013593505050565b60008060008060008060c087890312156146b8578182fd5b6146c18761455f565b955060208701359450604087013593506146dd60608801614576565b92506080870135915060a087013590509295509295509295565b60008060408385031215614709578182fd5b6147128361455f565b9150602083013563ffffffff8116811461472a578182fd5b809150509250929050565b60006020808385031215614747578182fd5b823567ffffffffffffffff8082111561475e578384fd5b818501915085601f830112614771578384fd5b81358181111561477d57fe5b8381026040518582820101818110858211171561479657fe5b604052828152858101935084860182860187018a10156147b4578788fd5b8795505b838610156147dd576147c98161455f565b8552600195909501949386019386016147b8565b5098975050505050505050565b6000602082840312156147fb578081fd5b815180151581146108d5578182fd5b60006020828403121561481b578081fd5b5035919050565b600060208284031215614833578081fd5b5051919050565b6000806040838503121561484c578182fd5b823591506145ca6020840161455f565b60006020828403121561486d578081fd5b81356001600160601b03811681146108d5578182fd5b61190160f01b81526002810192909252602282015260420190565b6001600160a01b0391909116815260200190565b6001600160a01b039384168152919092166020820152604081019190915260600190565b901515815260200190565b90815260200190565b9586526001600160a01b0394851660208701529290931660408501526060840152608083019190915260a082015260c00190565b9384526001600160a01b039290921660208401526040830152606082015260800190565b93845260ff9290921660208401526040830152606082015260800190565b6000602080835283518082850152825b8181101561498c57858101830151858201604001528201614970565b8181111561499d5783604083870101525b50601f01601f1916929092016040019392505050565b60208082526011908201527f696e76616c6964207369676e6174757265000000000000000000000000000000604082015260600190565b6020808252600d908201527f416c726561647920566f74656400000000000000000000000000000000000000604082015260600190565b60208082526016908201527f616d6f756e742065786365656473203936206269747300000000000000000000604082015260600190565b6020808252600c908201527f6275726e42616c546f4c6f770000000000000000000000000000000000000000604082015260600190565b6020808252601e908201527f7472616e736665722066726f6d20746865207a65726f20616464726573730000604082015260600190565b6020808252601c908201527f7472616e7366657220746f20746865207a65726f206164647265737300000000604082015260600190565b60208082526012908201527f6e6f74207965742064657465726d696e65640000000000000000000000000000604082015260600190565b60208082526012908201527f6e6f7420656e6f7567682062616c616e63650000000000000000000000000000604082015260600190565b6020808252600d908201527f696e76616c6964206e6f6e636500000000000000000000000000000000000000604082015260600190565b6020808252600f908201527f416c726561647920506173736564200000000000000000000000000000000000604082015260600190565b6020808252600a908201527f4d696e7420416d74203000000000000000000000000000000000000000000000604082015260600190565b6020808252600a908201527f6275726e20416d74203000000000000000000000000000000000000000000000604082015260600190565b6020808252600c908201527f756e617574686f72697a65640000000000000000000000000000000000000000604082015260600190565b6020808252600a908201527f76616c546f4269675a5a00000000000000000000000000000000000000000000604082015260600190565b6020808252600f908201527f6469646e277420766f7465207965740000000000000000000000000000000000604082015260600190565b60208082526015908201527f70726f706f73616c20646f65736e742065786973740000000000000000000000604082015260600190565b6020808252601a908201527f6275726e2066726f6d20746865207a65726f2061646472657373000000000000604082015260600190565b60208082526018908201527f6d696e7420746f20746865207a65726f20616464726573730000000000000000604082015260600190565b60208082526011908201527f7369676e61747572652065787069726564000000000000000000000000000000604082015260600190565b60208082526009908201527f616d6f756e743d3d300000000000000000000000000000000000000000000000604082015260600190565b600060e0820190508251825260208301516020830152604083015160408301526060830151151560608301526080830151608083015260a083015160a083015260c083015160c083015292915050565b63ffffffff91909116815260200190565b63ffffffff9290921682526001600160601b0316602082015260400190565b60ff91909116815260200190565b6001600160601b0391909116815260200190565b6001600160601b039283168152911660208201526040019056fe4f776e61626c653a206e6577206f776e657220697320746865207a65726f20616464726573735369676e6564536166654d6174683a206164646974696f6e206f766572666c6f777472616e7366657220616d6f756e74206578636565647320616c6c6f77616e6365207a7a536166654d6174683a206d756c7469706c69636174696f6e206f766572666c6f775369676e6564536166654d6174683a206d756c7469706c69636174696f6e206f766572666c6f775369676e6564536166654d6174683a207375627472616374696f6e206f766572666c6f77a164736f6c6343000706000a5369676e6564536166654d6174683a206164646974696f6e206f766572666c6f775369676e6564536166654d6174683a206d756c7469706c69636174696f6e206f766572666c6f77",
  "linkReferences": {},
  "deployedLinkReferences": {}
}